:020000040800F2
:10000000D00600207D120008250200082702000803
:10001000290200082B0200082D0200080000000041
:100020000000000000000000000000002F02000897
:100030003102000800000000330200083502000809
:1000400097120008971200089712000897120008EC
:1000500097120008971200089712000897120008DC
:1000600097120008971200089712000897120008CC
:1000700097120008971200089712000897120008BC
:1000800097120008971200089712000897120008AC
:10009000971200089712000897120008971200089C
:1000A000971200089712000897120008971200088C
:1000B000971200089712000897120008971200087C
:1000C000971200089712000897120008971200086C
:1000D000971200089712000897120008971200085C
:1000E00097120008971200089712000800F002F813
:1000F00000F03FF80AA090E8000C82448344AAF183
:100100000107DA4501D100F034F8AFF2090EBAE880
:100110000F0013F0010F18BFFB1A43F0010318473B
:10012000382A0000582A0000103A24BF78C878C145
:10013000FAD8520724BF30C830C144BF04680C60ED
:10014000704700000023002400250026103A28BF35
:1001500078C1FBD8520728BF30C148BF0B60704739
:10016000642901F06D85002070471FB51FBD10B5D3
:1001700010BD01F04CFE1146FFF7F7FF00F008F844
:1001800001F06AFE03B4FFF7F2FF03BC01F06EFE5C
:100190001CB501F027F800F033FF00F0F1FD00205E
:1001A00000F0B3FC00F045F9154D0024686801F03B
:1001B000AFFF0146E0B200F08DFF641C0C2CF5DBB4
:1001C000002310A21946184600F03FFD0C480830E5
:1001D00000F041FB28700028E7D109480830C278B8
:1001E0008178CDE900124378027809A10C4801F02A
:1001F000DFFC00230A4A0221184600F026FDD4E75E
:10020000000000204C4F4144494E472E2E2E000046
:1002100049443A25642564256425642020000000B3
:10022000380000207047FEE7FEE7FEE7FEE7704774
:1002300070477047704700000CB500224C48009290
:100240000192016841F4803101604FF4A0630168BC
:1002500001F4003101910099491C0091019911B9F3
:1002600000999942F3D10168890333D501210191A5
:1002700040490A6842F010020A600A6822F003024C
:100280000A600A6842F002020A60416841604168FF
:100290004160416841F480614160416821F47C1112
:1002A0004160416841F4E8114160016841F08071AA
:1002B000016001688901FCD5416821F003014160BA
:1002C000416841F0020141604168C1F381010229A6
:1002D000FAD10CBD01920CBD254810B5016841F062
:1002E000010101604168244A114041600168234ACC
:1002F00011400160016821F480210160416821F40E
:10030000FE0141604FF41F018160FFF795FF1C491A
:100310004FF00060086010BD154A10B55068194BC9
:1003200010F00C01184803D0042901D0082901D08D
:10033000036012E05168536801F470114FF0020439
:1003400013F4803F04EB914102D053689B0301D525
:100350000E4B00E00B4B5943016051680A4AC1F350
:100360000311121D515C0268CA40026010BD0000FA
:1003700000100240002002400000FFF8FFFFF6FEE0
:1003800008ED00E000127A000C00002000093D009A
:1003900070B5FE4E054600244021304601F0A9F814
:1003A00028064FF02001304602D501F0A0F801E008
:1003B00001F09FF84021304601F099F86806641C6E
:1003C000050EE4B2082CE7D33046BDE8704040216A
:1003D00001F08DB870B57E2101EA4000EB4E40F08F
:1003E00080048021304601F084F82046FFF7D0FFDA
:1003F000002425466006040E4021304601F079F8BD
:100400004021304601F073F81021304601F05BF8CE
:1004100008B144F001046D1CEDB2082DEAD340216F
:10042000304601F064F88021304601F060F8204643
:1004300070BD10B500F096FA00F05BFA03211420AD
:1004400000F04CFA022000F0FBFE00F03AFA08211E
:10045000084600F043FA3D21112000F011FA8621F0
:10046000172000F00DFA7F21262000F009FA1E2146
:100470002D2000F005FA00212C2000F001FA8D213A
:100480002A2000F0FDF93E212B2000F0F9F914207C
:1004900000F0BFFEBDE8104000F013BA2DE9FF5F89
:1004A0000025DDF838B017468A4681464FF002082D
:1004B0002E460C2805D0B9F10E0F04D112251026B6
:1004C00001E07725302645F08001022000F0D8F9C0
:1004D0008021042000F002FA0021012000F0D0F970
:1004E00080210A2000F0E2F9002405E01AF8041047
:1004F000092000F0C5F9641CBC42F7D3494601202D
:1005000000F0BEF9B9F10C0F03D180210D2000F0ED
:10051000CDF94FF47A740420FFF75CFF0746641EA0
:1005200003D0F80701D13742F5D080210D2000F02B
:10053000D5F93CB10620FFF74DFF10F01B0F0DD091
:100540004FF0020880210C2000F0B0F900210120BA
:1005500000F096F904B04046BDE8F09F2F404FF000
:100560000008F80701D04FF00108B9F10C0FE9D1EC
:100570000A20FFF72FFF05460C20FFF72BFF10F096
:1005800007004FEAC50101D008390144CBF800103B
:1005900025B1122D00D91225002408E00125FBE722
:1005A0000920FFF717FF014603980155641CAC4270
:1005B000F6D3C7E710B53720FFF70CFF922801D01C
:1005C000002010BD012010BD30B50C4605460821A5
:1005D00087B0084600F082F907210D2000F050F99D
:1005E0000321142000F062F906A801AB00908DF8F9
:1005F0000450012219460C20FFF750FF10B906994C
:10060000102902D0022007B030BD9DF804102170DF
:100610009DF805106170F6E770B50646082188B0B0
:100620000024084600F05AF900210D2000F028F9B6
:1006300080210E2000F052F993208DF80400202034
:100640008DF8050006A801AB0090022219460C2087
:10065000FFF724FF05000DD1002101A8425C725470
:10066000425C491C5440C9B20429F7D3405CA04203
:1006700000D0022580210E2000F018F9284608B08D
:1006800070BD2DE9F0410E460746154604210520B0
:1006900000F024F90021012000F0F2F880210A2066
:1006A00000F004F9002405E0395D092000F0E8F8C5
:1006B000641CE4B2B442F7D30321012000F0E0F857
:1006C000FF240520FFF786FE641E14F0FF0401D00E
:1006D0004007F6D52220FFF77DFE28702120FFF786
:1006E00079FE6870BDE8F08110B588B093218DF86F
:1006F000041070218DF8051000218DF80A1001AA50
:100700005418435CA370445C9DF80A30491C634054
:10071000C9B28DF80A300429F2D3072101A8D21DED
:10072000FFF7AFFF0821084600F0D8F806A801AB94
:100730000090092219460C20FFF7B0FE10B9069967
:10074000182900D0022008B010BD10B588B08DF86F
:1007500004008DF805101068CDF806009088ADF8FB
:100760000A001868039006A801AB00900C221946F5
:100770000E20FFF793FE040004D10820FFF72AFEA5
:10078000000700D402242046DDE7000000080140F5
:1007900030B587B00C4630218DF8041001AD8DF8CE
:1007A000050002212846AA1CFFF76BFF06A801AB33
:1007B0000090042219460C20FFF770FE10B906992C
:1007C000902901D002201EE70023E95CE1545B1C64
:1007D000DBB2102BF9D316E770B588B00C46A02118
:1007E0008DF8041001AD8DF8050002212846AA1CE1
:1007F000FFF747FF06AE01AB042219460C20009616
:10080000FFF74CFE28BB0698042822D19DF804006F
:1008100000F00F000A281CD10020215C2954401C44
:10082000C0B21028F9D305AA102101A8FFF729FFAB
:1008300001AB122219460C200096FFF72FFE40B99B
:100840000699042905D19DF8041001F00F010A2929
:1008500000D0022013E738B5044669465220FFF75E
:10086000B3FE58B92046FFF7D7FE38B9642000F030
:10087000E7FC2046FFF738FF002800D0022038BDF3
:1008800070B50D467E2101EA4004534E802130466A
:1008900000F02FFE2046FFF77BFD2846FFF778FD8E
:1008A0003046BDE87040802100F021BE70B50C4696
:1008B0000546FFF78FFD40EA04012846BDE8704079
:1008C000DEE710B51420FFF785FDC043800704D094
:1008D0000321BDE810401420E8E710BD70B50C46B8
:1008E0000546FFF777FD20EA04012846BDE8704081
:1008F000C6E710B5384C0821204600F0F8FD052069
:1009000000F087FC0821204600F0F3FD052000F0F0
:1009100080FC0821204600F0EAFD052000F079FC6B
:100920000F210120FFF7ACFF0120FFF753FDC006A8
:10093000FAD43D211120FFF7A3FF1E212D20FFF740
:100940009FFF00212C20FFF79BFF8D212A20FFF71E
:1009500097FF3E212B20FFF793FF4021BDE8104079
:1009600015208DE738B50121042000F03EFF03205B
:100970008DF8020010248DF803400820164DADF8C4
:1009800000006946284600F048FD2021ADF800101F
:100990006946284600F041FD4020ADF80000694658
:1009A000284600F03AFD8020ADF800006946284650
:1009B00000F033FD04208DF80300ADF800406946D7
:1009C000284600F02AFD4021284600F090FD8021B5
:1009D000284600F08CFD38BD000801402DE9F041AB
:1009E00088460746FE4C4FF40036FE4D01E0641E7B
:1009F00028D33146284601F0A7F80128F7D0012175
:100A0000284600F0D9FFF84800F080FAD0B900225B
:100A10007821284601F017F8F44800F077FA88B9F1
:100A20003946284601F00AF8F04CA41C204600F094
:100A30006DFA38B94146284601F000F8204600F02A
:100A400065FAC8B1EA49284601F093F80121284621
:100A500000F0BCFF0121284601F002F8052000F05B
:100A6000D8FB0021284600F0FBFF0121284600F0BA
:100A700085FF0120BDE8F0810121284600F0A6FF96
:100A80000020F7E770B5054609B1402400E00024D6
:100A900001462046FFF7A2FF002804D02946204641
:100AA000BDE870409AE770BD10B50446B031C8B2D9
:100AB0000021FFF7E7FF102040EA14100021FFF7A4
:100AC000E1FF04F00F00BDE8104040F001000021FC
:100AD000D8E710B500218D20FFF7D4FF00211420A6
:100AE000FFF7D0FF0021BDE81040AF20CAE710B5E6
:100AF00000218D20FFF7C6FF00211020FFF7C2FF65
:100B00000021BDE81040AE20BCE770B5002505F11E
:100B1000B000C0B20021FFF7B5FF00210846FFF783
:100B2000B1FF00211020FFF7ADFF002401210020BC
:100B3000FFF7A8FF641CE4B2802CF7D36D1CEDB264
:100B4000082DE4D370BD2DE9F047203A00241E465D
:100B500088468146D5B27F2804D908F10200A14613
:100B600000F0FF0841464846FFF79EFFA14F04EB07
:100B70000510012E385C01D1C043C0B20121FFF73E
:100B800081FF641CE4B2082CF1D308F10100C1B26A
:100B90004846FFF789FF002404EB05103844012E76
:100BA000007A01D1C043C0B20121FFF76BFF641C82
:100BB000E4B2082CF0D3BDE8F0870346012000E042
:100BC0005843491EC9B2FBD270472DE9F0411E4679
:100BD0008046884C002013780F46B43C00EBC001DF
:100BE00004EB8105296A91F800C09C4528D1497819
:100BF00092F801C0614523D139464046FFF754FFC2
:100C00000024285D0EB1C043C0B20121FFF73AFFB6
:100C1000641CE4B2102CF4D37F1CF9B24046FFF7F9
:100C200043FF002405EB0400007C0EB1C043C0B2BA
:100C30000121FFF727FF641CE4B2102CF2D319E75F
:100C4000401C80B20528C9D314E7F8B5044600203B
:100C50001F4615460E4600901FE0100610D58DF871
:100C6000002068788DF801003B466A4631462046F0
:100C7000AD1CFFF7AAFF1034E4B2702C0DD909E0C7
:100C80003B46314620466D1CFFF75DFF0834E4B259
:100C9000782C02D9B61CF6B200242A78002ADCD1BE
:100CA000F8BD2DE9F0471F4690460E4682460025C6
:100CB000DDF8209011E031465046FFF7F5FE54462E
:100CC00007E019F8050001216D1CFFF7DBFE641C2D
:100CD000E4B24445F5D3761CF6B2BE42EBD36AE7E4
:100CE00070B515460E4604460CE0002331462046FA
:100CF000FFF729FF0834E4B26D1C782C02D90024D8
:100D0000B61CF6B22A78002AEFD170BD2DE9F04763
:100D10001D4616468946074600244FF00A0816E08D
:100D2000281B401EC1B20A20FFF747FFB6FBF0F1B7
:100D3000B1FBF8F208FB12103030C2B207EBC4006E
:100D4000C0B200234946FFF7FEFE641CE4B2AC4289
:100D5000E6D330E708B502EBC203264AB43A02EB09
:100D60008302126A13788DF8003052788DF80120D2
:100D700000228DF8022013466A46FFF726FF08BDC1
:100D800030B58DB01C221CA104A800F095FF0121F4
:100D9000092000F02AFD0121480500F02FFD012166
:100DA000022000F0C5FB00F05CF84FF44070ADF895
:100DB0002C001C208DF82F0003208DF82E000BA98D
:100DC000144800F02AFB074C204600F05DFD124855
:100DD00000210090ADF804104BF6FF701EE00000FB
:100DE000FFFF0300005400400100030082000700E1
:100DF0000004001058250008AE2010B0C8001040B4
:100E000081DFA1A6A83FA4D300D5F0D922DA12DB56
:100E1000208D14AF000C0140A0860100ADF8060043
:100E2000ADF808102014ADF80A10ADF80C006946B2
:100E3000204600F03CFD0121204600F09FFD64208B
:100E400000F0FEF9002404AD0021285DFFF71AFE32
:100E5000641CE4B21C2CF7D30020FFF756FE0DB043
:100E600030BDF8B50121092000F0BFFC01210220AE
:100E700000F05EFB4FF44074ADF8004014208DF894
:100E8000030003202A4D8DF802006946284600F031
:100E9000C4FA2146284600F02AFB052000F0B9F9E3
:100EA0006F153946284600F00EFBAE15C0B9002478
:100EB0003146284600F01DFB052000F0AAF9314616
:100EC000284600F014FB052000F0A3F93946284617
:100ED00000F0F9FA012803D0641CE4B2102CE7D327
:100EE0003946284600F005FB052000F092F931460E
:100EF000284600F0FCFA052000F08BF93946284618
:100F000000F0F5FA052000F084F9F8BD70B506464A
:100F1000084C094D03E0641E01D2012070BD31462A
:100F2000284600F0FEFD0128F5D1002070BD00002C
:100F3000000C0140FFFF0300005400401FB50020DB
:100F4000ADF80400ADF808004FF48060ADF80A0079
:100F50000001ADF80C004BF6FF719648964CADF8C9
:100F6000061000906946204600F0A1FC01212046B1
:100F700000F004FD1FBD10B58F4C0121204600F08C
:100F800025FD0021204600F0F9FC0121204600F05B
:100F900067FD0A2000F03DF90021204600F060FDC9
:100FA000BDE81040CAE700F0A0B8844910B58842F7
:100FB00002DB8349884200DD08460C2101F033FA48
:100FC0000146804800F0C2FF4FF07C5100F056FF10
:100FD00001F07EF8401EC4B210210020FFF7E3FFAD
:100FE0002146FE20FFF7DFFF20210020FFF7DBFF77
:100FF000012000F025F9A021BDE810400020D2E733
:1010000038B50121092000F0F0FB0121480500F06E
:10101000F5FB0121022000F08BFA4FF44074ADF88B
:1010200000401C208DF803000320674D8DF802005E
:101030006946284600F0F1F92146284600F057FAA3
:10104000FFF77CFFFFF797FF04210120FFF7ABFFBD
:101050005E48FFF7AAFF20210020FFF7A4FF38BD5C
:1010600070B515460E4604460F281CD8062000EB26
:101070008400F1B2C0B2FFF796FF072000EB8400B6
:10108000310AC0B2FFF78FFF082000EB8400E9B2FD
:10109000C0B2FFF788FF290A092000EB8400BDE8F1
:1010A0007040C0B27FE770BD10B5494910F1FF4FE5
:1010B00001D3002002E0884200DD084600F046FF30
:1010C000444901F03DF8444900F0D8FE01F000F831
:1010D00080B210BD10B504460846FFF7E5FF024692
:1010E0002046BDE810400021BAE770B505464FF430
:1010F00000340E46204600F04BF830B9FFF73BFFB6
:10110000204600F045F8002828D02B4C012120462D
:1011100000F052FC314800F02AF800B30022802190
:10112000204600F090FC2E4800F021F8B8B1294686
:10113000204600F083FC2A4DAD1C284600F017F82D
:1011400068B13146204600F079FC284600F00FF8DF
:1011500028B10121204600F039FC012070BD012199
:10116000204600F033FCFFF706FF002070BD70B58D
:1011700006464EF66024104D02E02046641E06D35B
:101180003146284600F0CDFC0028F6D0012070BD85
:1011900070B506464EF66024074D02E02046641EF8
:1011A00006D33146284600F0CFFC0128F6D00120B6
:1011B00070BD0000A0860100005400400000C04146
:1011C00000C0BE4420BCBE4B000C014000004842A1
:1011D000000034430000CD430000CC420100030076
:1011E0008200070010B56FF0040000F0ACF8204852
:1011F00020490068B0FBF1F01F49C0B200EB40028B
:101200000870C2EBC0104FF6FF7202EAC0004880BF
:1012100010BD1949097848434FF0E0214861002387
:101220008B61086940F0010008610869C20701D0BC
:10123000C003FAD5086920F0010008618B6170478E
:101240000D49498848434FF0E021486100238B61F4
:10125000086940F0010008610869C20701D0C003B5
:10126000FAD5086920F0010008618B617047000021
:101270000C00002000127A0020000020094880475E
:1012800009480047FEE7FEE7FEE7FEE7FEE7FEE768
:10129000FEE7FEE7FEE7FEE704480549054A064B80
:1012A00070470000D9020008ED000008D0000020BF
:1012B000D0060020D0020020D00200202849084398
:1012C00028490860704730B50F23C278017801259E
:1012D000F2B1244A126801F1E02102F4E062C2F5A1
:1012E000E062120AC2F10404D3404278A24084783A
:1012F0001C401443220181F80024007800F01F01F3
:101300008D404009800000F1E020C0F8005130BD60
:1013100001F01F0085404809800000F1E020C0F87E
:10132000805130BD104A114001430E48001F01603A
:1013300070470C4A121D0029116801D0014300E0DA
:101340008143116070474FF0E0210428086903D001
:1013500020F004000861704740F00400FAE7000044
:101360000000FA050CED00E080FFFF1F8F4910B56B
:10137000884206D10121042000F049FA002104200E
:101380003BE08B49884206D10121082000F03FFA5A
:101390000021082031E08749884206D10121102030
:1013A00000F035FA0021102027E08349884206D159
:1013B0000121202000F02BFA002120201DE07F4990
:1013C000884206D10121402000F021FA002140206E
:1013D00013E07B49884206D10121802000F017FAF2
:1013E0000021802009E0774988420AD18415012133
:1013F000204600F00CFA00212046BDE8104000F025
:1014000006BA10BD10B50121084600F000FA00210F
:10141000BDE81040012000F0FAB9F0B5CC78002208
:1014200004F00F03E40601D58C7823430C784FF0C9
:101430000F0C14F0FF0F4FF0010E1BD005680E8843
:101440000EFA02F42640A64210D196000CFA06F7D6
:1014500025EA070703FA06F5CE783D43282E02D089
:10146000482E02D002E0446100E00461521C082AC8
:10147000E5D305600A88FF2A1CD94468002202F1DE
:1014800008060EFA06F50E882E40AE420ED19600E2
:101490000CFA06F7BC4303FA06F7CE783C43282E35
:1014A00000D14561CE78482E00D10561521C082A32
:1014B000E5D34460F0BD4FF6FF71018002218170D9
:1014C0000421C17070470246002092680A4200D091
:1014D00001207047806880B2704702460020D268C1
:1014E0000A4200D001207047C06880B27047016195
:1014F0007047416170470AB10161704741617047AF
:10150000C160704741F4803282618161826181698A
:10151000806970472C4B10B51A684FF680742240D2
:1015200042EA00100843186010BD2849C86170479E
:10153000F0B5254C002801DAE36900E06368450D49
:101540002E0185B2C0F30157B540C0F30342032F0B
:1015500005D0C6020AD503269640B34307E023F020
:101560007062636823F07063636002E0AB4343F032
:10157000706201B12A43002801DAE261F0BD6260C5
:10158000F0BD10B58A0721F003040F49120F214462
:101590000F238C6893409C438C608B68904003437E
:1015A0008B6010BD0949C1F8DC007047000801409C
:1015B000000C0140001001400014014000180140DF
:1015C000001C0140002001400000014000002042BA
:1015D000A548016841F0010101604168A34A11403A
:1015E00041600168A24A11400160016821F4802134
:1015F0000160416821F4FE0141604FF41F018160E8
:10160000704799490A6822F480320A600A6822F415
:1016100080220A60B0F5803F07D0B0F5802F03D15B
:10162000086840F4A02008607047086840F48030E3
:10163000F9E70346002059098B4A01290AD00229FB
:101640000AD0516A03F01F02012393400B4200D0DD
:10165000012070471168F5E7116AF3E718B500201B
:101660004FF4A06400903120FFF7E3FF0099491C7C
:101670000091A14201D00028F5D03120FFF7D9FF19
:10168000002800D0012018BD774A116821F0F80128
:1016900041EAC00010607047764908607047724B9D
:1016A0005A68084322F47C1210435860704771490D
:1016B000086670476C4A516821F00301014351608C
:1016C00070476948406800F00C007047664A5168EE
:1016D00021F0F001014351607047634A516821F4E1
:1016E000E0610143516070475F4A516821F46051E5
:1016F00041EAC000506070475B4A0029517A01D02E
:10170000014300E08143517270475A49C1F8D80043
:101710007047554A516821F4404101435160704778
:101720005149002281F8202081F82020012802D090
:10173000042802D1052081F8200070474E49086036
:10174000704749490A6A02430A6270474A49443964
:101750000860704730B5444A5168484B11F00C019D
:1017600003D0042901D0082901D0036012E0516898
:10177000536801F470114FF0020413F4803F04EB3E
:10178000914102D053689B0301D53D4B00E03B4B98
:101790005943016051680F2303EA1111394B5C5C16
:1017A0000168E14041605468072505EA14241C5D86
:1017B00021FA04F48460546805EAD4241B5DD940FE
:1017C000C1605268032303EA92322E4B1B1F9A5CBE
:1017D000B1FBF2F1016130BD234A0029516901D00A
:1017E000014300E08143516170471F4A002991691C
:1017F00001D0014300E08143916170471A4A0029FA
:10180000D16901D0014300E08143D1617047164A9C
:101810000029D16801D0014300E08143D1607047C5
:10182000114A0029116901D0014300E0814311618F
:10183000704711494039086070470E49C8647047C5
:101840000949C87170470848416A41F08071416296
:101850007047054A0146002092680A4200D00120E4
:101860007047014988727047001002400000FFF87D
:10187000FFFFF6FE000042428004424200127A005E
:1018800000093D0028000020C64910B588424FF0ED
:10189000010101D14C0501E04FF480042046FFF71F
:1018A000BFFF2046BDE810400021FFF7B9BF70B56B
:1018B0000446808886B00D4620F03F066846FFF754
:1018C00049FFB9490298B0FBF1F189B20E43A680F5
:1018D000228822F001022280B44B2A689A421CD846
:1018E0005200B0FBF2F080B2042800D20420491C60
:1018F0002184A083208840F00100208020884FF6BA
:10190000F5310840A9886A89114301432180A889DB
:1019100029890843208106B070BDEB88A3F53F46B6
:10192000FF3E0BD002EBC20303EB0212B0FBF2F05E
:1019300080B240F48040020506D007E002EB42028C
:10194000B0FBF2F080B2F6E740F001004FF496727F
:1019500051434FF47A72B1FBF2F140F40040C6E714
:1019600041F288310160002181804BF6FF72C28014
:10197000018141814FF480418181704700290188B4
:1019800002D041F0010101E021F001010180704726
:101990000029818802D041F4006101E021F4006156
:1019A000818070470029818802D041F4805101E094
:1019B00021F48051818070470029018802D041F4D0
:1019C000807101E021F48071018070470029018855
:1019D00002D041F4007101E021F4007101807047F0
:1019E0000029018802D041F4806101E021F4806186
:1019F00001807047828901F0FE0122F0FE0211434E
:101A0000818170470029818902D041F0010101E004
:101A100021F00101818170470029018802D041F045
:101A2000400101E021F0400101807047002A8288D6
:101A300001D00A4300E08A438280704701827047E8
:101A4000008AC0B2704712B141F0010101E001F01B
:101A5000FE010182704708B508440090008808BD67
:101A60000029018802D041F4004101E0C1F30E01D8
:101A700001807047B1F5006F018803D021F4006147
:101A80000180704741F40061FAE7B1F5005F018819
:101A900003D021F400510180704741F40051FAE76E
:101AA0000029018802D041F4805101E021F48051E5
:101AB00001807047B1F5006F018803D021F4006107
:101AC0000180704741F40061FAE70029018802D0E3
:101AD00041F0200101E021F0200101807047008BDE
:101AE000000A70470029018802D041F0100101E08E
:101AF00021F01001018070470029018803D021F0F6
:101B000080010180704741F08001FAE7B1F5804F14
:101B1000818B02D021F4804101E041F48041818336
:101B20007047034600209A8A1B8B42EA034222F048
:101B30007F42914300D101207047818A008B41EAA6
:101B4000004121F07F4070470CB502460020009212
:101B50000A0F21F07F41019202D0009A143202E074
:101B6000009A090C1832009212680A4200D0012033
:101B70000CBDC9438182704710B5034600209A8886
:101B80004FF4E06404EA11449B8A224021F07F4133
:101B90000B4202D0002A00D0012010BDC94381822F
:101BA000704700000054004040420F00A086010032
:101BB0000FB41CB5074B06AA7B44694600900598F4
:101BC00000F00DF90020694600F01CF91CBC5DF81E
:101BD00014FB0000490200002DE9F0410E460446C6
:101BE000002020622046E168884730B3252805D0D0
:101BF000D4E901219047206A401CF2E7E1682046C1
:101C000000278847050018D0A5F14100192802D8FF
:101C100020354FF400673246294620462760FEF7FC
:101C20009FFA40B1012804D0F61D26F007060836B9
:101C3000D8E7361DD6E72846DAE7206ABDE8F08106
:101C40002DE9F0410646002410687529314616A595
:101C500010D0AFF30080002802DA404213A507E05D
:101C600031688A0701D512A502E0490704D511A5FC
:101C7000012401E0AFF3008000210A2206F12407CD
:101C800009E0B0FBF2FCB0FBF2F302FB1C003030C9
:101C900078541846491C0028F3D123462A4630467A
:101CA000BDE8F04100F03DB8000000002D0000004C
:101CB0002B0000002000000010B5203AC0F00B807F
:101CC000B1E81850203AA0E81850B1E81850A0E840
:101CD0001850BFF4F5AF5FEA027C24BFB1E818509A
:101CE000A0E8185044BF18C918C0BDE810405FEA0A
:101CF000827C24BF51F8043B40F8043B08BF704786
:101D0000D20728BF31F8023B48BF11F8012B28BF8A
:101D100020F8023B48BF00F8012B7047704770471E
:101D200070472DE9F0470D4699469246044600F16A
:101D300024080168880604D5E06921F010012160BB
:101D400000E00120A84201DD471B00E00027A16957
:101D50007A1902EB0900081AA0612078C00602D4A3
:101D60002046AFF30080002608E0D4E901211AF8EC
:101D700006009047206A401C761C20624E45F4DB2A
:101D80002078C0060AD52046AFF3008006E0D4E9EB
:101D9000012130209047206A401C2062381EA7F1A4
:101DA0000107F4DC07E0D4E9012118F805009047A9
:101DB000206A401C2062281EA5F10105F3DC2046A4
:101DC000AFF300802078000602D50220BDE8F0873E
:101DD0000120FBE701694A1C02610878704700B5E1
:101DE0008FB0CDE901310021059105497944CDE954
:101DF000031011466846FFF7EFFE0FB000BD00006C
:101E0000E5FFFFFF0A6802F8010B0A60704775469C
:101E100000F028F8AE4605006946534620F007005A
:101E2000854618B020B5FFF737FABDE820404FF0DF
:101E300000064FF000074FF000084FF0000B21F0B4
:101E40000701AC46ACE8C009ACE8C009ACE8C00981
:101E5000ACE8C0098D4670470446AFF300802046C9
:101E6000FEF790F9004870476C00002001491820E7
:101E7000ABBEFEE7260002007047000090EA010FAB
:101E800048BF81F0004100F12E82421A3CBF801A07
:101E900089184FEAD0524FF07F4C1CEA410FA2EB59
:101EA000D15318BF9CEA026F00F03B804FF0004C0A
:101EB0004CEA00204CEA012121FA03FC10EB0C0C47
:101EC0001ED202F1FF325FEA1C2040EBC25038BF45
:101ED00070471CF07F0F4FEA400C18BFBCF17F4FDA
:101EE00038BF7047C3F12003994008BF20F00100BC
:101EF000BCF17F4F38BF7047A0F1C04000F0E7B998
:101F00004FEA3C00000A40EBC25028BF1CF0FF0F14
:101F10004FEA400CE6D018BFBCF17F4F38BF704786
:101F2000EAE79CEA026F05D010EA5C0F08BF00F0F8
:101F30000040704710B500F084F900BF64FBBE3E5E
:101F4000014800F03EBA00BF0000C07F4FF47F0C94
:101F50001CEAD0121EBF1CEAD11392EA0C0F93EABE
:101F60000C0F00F0858090EA010F48BF42F48072A8
:101F700040F4000C41F400002CF07F4120F07F4041
:101F800000B58142A2EB03020FF2081CACEB504EED
:101F9000C0F100009EF800E04FEA4E0E00FB0EFC80
:101FA00038BF49004FEA2C1C02F5FA020CFB0EF375
:101FB0004FEACE1E4FEA112C4FEAC1210EEB635EB1
:101FC00042EB22420EFB0CFC4FEA1C5300FB0311B8
:101FD0004FEA112C4FEA01310EFB0CFC4FEADC4CAE
:101FE00000FB0C11C14228BF09184CEB03335DF80C
:101FF00004EB10EB410143EBC250B2F57C0F38BF4C
:10200000704729D512F0F00F1CBF00F1C04000F05E
:1020100000407047008182838485868788898B8C05
:102020008D8E8F919293959697999A9C9D9FA0A241
:10203000A3A5A7A8AAACAEB0B2B3B5B7B9BCBEC091
:10204000C2C5C7C9CCCED1D4D7D9DCDFE2E6E9EC32
:10205000F0F3F7FAFE0000004FEA400C0CF1807C30
:10206000BCF17E4F28BF7047B0F1C04000F02FB9DF
:1020700090EA010F0CEAD11348BF42F48072624526
:1020800038BF634507D213F47F0F16D080EA0100F2
:1020900000F00040704710B500F0D3F8097EFC3E18
:1020A00000F005B880EA010000F00040704780EAC7
:1020B000010000F0004000F00AB912F47F0F04BFE5
:1020C0000248704780EA010000F001B90000C07FBB
:1020D000C10DD1F19E0206DB4FEA002343F000431D
:1020E00023FA02F07047004207D54FEA4001B1F1F0
:1020F000FE4F02D24FF00000704710B500F0A1F87B
:1021000049922480002070476FEA20007047000049
:1021100010F0004148BF4042B0FA80F310FA03F2D9
:10212000C3F19D030BD051EAC35101EB12205306BA
:1021300038BF704700F1010008BF20F00100704770
:102140004FF47F0C1CEAD0121EBF1CEAD11392EA96
:102150000C0F93EA0C0F00F0478090EA010F48BF84
:1021600042F480724FF0004C4CEA00204CEA01210E
:1021700002EB0302A0FB0113A2F50002002918BF25
:1021800043F001035B0028BF4FEA330342EB2242D6
:102190005FEA132C4CEBC2502EBFBCEB436FB2F581
:1021A0007C0F70474FEA036CBCF1004F08BF20F072
:1021B0000100B2F57C0F38BF70470BD582F0FF02EB
:1021C00012F5803FC8BF704700F1C040D8BF00F093
:1021D0000040704700F5000C5FEA4C0C48BF7047A8
:1021E000B0F1C04000F073B890EA010F0CEAD113CF
:1021F00048BF42F48072624538BF634504D280EA2A
:10220000010000F00040704710B500F01AF800BF60
:102210008900013E00F007B800F009B85FEA410C00
:102220005FEA1C6C08D080EA010000F050B85FEA59
:10223000400C5FEA1C6CF6D14FF00040A0F5800026
:1022400070470EF1020E2EF0030E5EF8044B24428E
:1022500004D44FEA4102B2F17F4F11D84FEA400354
:10226000B3F17F4F0CD80ED14FEAD07CB2F17F4F43
:102270000CEB4C0C0CF1020C08BF4CEBD17C04E0D5
:102280004FF0080C01E04FEAD17C0CEB4C0324FA30
:1022900003F404F00704B4F1040C06D20EEB840C32
:1022A000BDE810404CF0010C6047DFE80CF0070877
:1022B00002024FF00040A0F5800010BD0846420029
:1022C00018BFD2F1807288BF00F0004010BDFF211E
:1022D00041EAD050C005704790EA010F48BF81F035
:1022E00000413FF5D2AD421A04D882F00042A0EB83
:1022F000020011444FEAD0524FF07F4C1CEA410FCC
:10230000A2EBD15318BF9CEA026F4AD04FF0004CA9
:102310004CEA00204CEA012121FA03FCB0EB0C0C42
:102320000FD412F0FE0F36D05FEA4C001DD500121C
:1023300040EBC25038BF70471CF03F0F18BF7047CA
:102340000BE0A2F101025FEA1C2040EBC25038BF53
:1023500070471CF07F0F18BF7047C3F120039940EE
:1023600014BF401E20F00100704780084FEA12237E
:1023700008BF7047B0FA80FCA2EB0C02CCF1280C2D
:1023800060FA0CF093EA122F04BF00EBC2507047C2
:102390004FEAC3707047130A5FEADC1008BF70474A
:1023A000F6E79CEA026F04D010EA5C0F08BF002039
:1023B000704710B5FFF745FF40DFF63E81F0004063
:1023C00070470CF00F03092B08BF082000F0518064
:1023D0000A2B0BD0082B18BF704708BF1CF0400F0A
:1023E0000AD04FF000004FF0000170471CF0400F82
:1023F00018BF4FF0004070471CF0100F08D020F0BD
:10240000704300F07F4242EAD3014FEA43707047C5
:1024100000F0604021F07F4242EA000201F07F407C
:1024200040EA727070474FF0FF0212EAD0521CBFB0
:1024300092F0FF038B42C2BFD14200EBC150704704
:10244000002A0AD0002B0BD0002900F00040A4BFC6
:1024500040F0FE4040F40000704700F0004070473C
:1024600043024FF00B0C18BF4CF0806C7FF468AD4A
:1024700070471CF4801F11D01CF4E02F03D06FEACA
:10248000CC31490070474FF04050EFF3008222F00A
:10249000704242EA000282F3008870474FF0000069
:1024A00070470000404042CC00002024A4243FA4F8
:1024B00024A460000000007F2010888A4C29180F97
:1024C0001828C8004C2B0008404040404040FF44C2
:1024D0004444444444404000000000000000FF0029
:1024E0000002040810000000482B00080000F01053
:1024F000101010FF10101010F000000000000F046A
:10250000040404FF040404040F000000542B00081A
:10251000404040404040FF44444444444440400024
:10252000000000000000FF0000020408100000008E
:10253000482B0008808080BEA2A2A2A2A2A2A2BEB6
:102540008080800000000006050404044484443CAC
:1025500000000000502B00080000000000000000F8
:102560000000000000000000000000F80000000073
:10257000000000333000000000100C06100C0600B4
:10258000000000000000000040C07840C07840001B
:10259000043F04043F040400007088FC083000007D
:1025A000001820FF211E0000F008F000E0180000D5
:1025B00000211C031E211E0000F00888700000008E
:1025C0001E2123241927211010160E0000000000E0
:1025D0000000000000000000000000E018040200FD
:1025E000000000071820400000020418E00000006E
:1025F0000040201807000000404080F0804040006C
:102600000202010F01020200000000F000000000C1
:102610000101011F01010100000000000000000095
:1026200080B070000000000000000000000000000A
:102630000001010101010101000000000000000093
:10264000003030000000000000000000806018042E
:10265000006018060100000000E010080810E0000B
:10266000000F102020100F00001010F800000000D4
:102670000020203F2020000000700808088870001B
:10268000003028242221300000300888884830009B
:102690000018202020110E000000C02010F80000BB
:1026A00000070424243F240000F808888808080054
:1026B0000019212020110E0000E010888818000069
:1026C000000F112020110E0000380808C83808003B
:1026D0000000003F000000000070880808887000BB
:1026E000001C222121221C0000E010080810E0003C
:1026F0000000312222110F00000000C0C0000000C5
:1027000000000030300000000000008000000000E9
:1027100000008060000000000000804020100800E1
:1027200000010204081020004040404040404000AA
:102730000404040404040400000810204080000085
:102740000020100804020100007048080808F0008A
:102750000000003036010000C030C828E810E0005A
:102760000718272423140B000000C038E0000000E5
:10277000203C23020227382008F88888887000004F
:10278000203F202020110E00C03008080808380023
:10279000071820202010080008F808080810E0009A
:1027A000203F202020100F0008F88888E80810003B
:1027B000203F20202320180008F88888E80810000F
:1027C000203F200003000000C03008080838000047
:1027D00007182020221E020008F808000008F80848
:1027E000203F210101213F20000808F808080000CF
:1027F0000020203F2020000000000808F808080002
:10280000C08080807F00000008F888C02818080079
:10281000203F20012638200008F8080000000000B2
:10282000203F20202020300008F8F800F8F80800A9
:10283000203F003F003F200008F830C00008F808A3
:10284000203F200007183F00E01008080810E000B3
:102850000F10202020100F0008F808080808F000CA
:10286000203F210101010000E01008080810E000ED
:102870000F18242438504F0008F888888888700082
:10288000203F2000030C3020007088080808380022
:102890000038202121221C00180808F80808180018
:1028A0000000203F2000000008F808000008F80899
:1028B000001F202020201F000878880000C838084A
:1028C000000007380E010000F80800F80008F800C2
:1028D000033C0700073C030008186880806818085C
:1028E00020302C03032C30200838C800C8380800DA
:1028F0000000203F2000000010080808C838080029
:102900002038262120201800000000FE02020200CC
:102910000000007F40404000000C30C0000000007C
:10292000000000010638C00000020202FE000000A4
:10293000004040407F00000000000402020204004A
:102940000000000000000000000000000000000087
:10295000808080808080808000020204000000006F
:102960000000000000000000000080808080000067
:102970000019242222223F2008F800808000000055
:10298000003F112020110E00000000808080000018
:10299000000E112020201100000000808088F80027
:1029A000000E112020103F20000080808080000059
:1029B000001F222222221300008080F088888818BD
:1029C0000020203F202000000000808080808000C8
:1029D000006B94949493600008F80080808000005D
:1029E000203F210000203F20008098980000000038
:1029F0000020203F20200000000000809898000068
:102A000000C08080807F000008F800008080800087
:102A1000203F24022D302000000808F800000000AC
:102A20000020203F20200000808080808080800067
:102A3000203F20003F20003F8080008080800000F9
:102A4000203F210000203F20000080808080000087
:102A5000001F202020201F008080008080000000B8
:102A600080FFA12020110E000000008080808000E7
:102A7000000E112020A0FF808080800080808000D8
:102A800020203F2120000100000080808080800005
:102A90000033242424241900008080E0808000007A
:102AA0000000001F202000008080000000808000C7
:102AB000001F202020103F20808080000080808028
:102AC00000010E30080601008080008000808080B8
:102AD0000F300C030C300F000080800080808000DD
:102AE0000020312E0E312000808080000080808008
:102AF00080818E70180601000080808080808000B8
:102B00000021302C2221300000000000807C0202D5
:102B100000000000003F404000000000FF000000F7
:102B200000000000FF0000000002027C80000000A6
:102B30000040403F000000000006010102020404C2
:102B40000000000000000000BFA80000B6C10000A7
:102B5000BAC50000D6D00000782B00080000002085
:102B60003800000028010008B02B000838000020C1
:102B7000980600004401000800000000000000006A
:102B80000000000000A24A04000000000000000055
:102B900001020304060708090000000002040608F9
:102BA00000000000010203040102030406070809F3
:04000005080000ED02
:00000001FF
