:020000040800F2
:10000000F00B0020A9260008E5020008E70200081E
:10001000E9020008EB020008ED0200080000000001
:10002000000000000000000000000000EF020008D7
:10003000F102000800000000F3020008F5020008C9
:10004000C3260008C3260008C3260008C3260008EC
:10005000C3260008C3260008C3260008C3260008DC
:10006000C3260008C3260008C3260008C3260008CC
:10007000C3260008C3260008C3260008C3260008BC
:10008000C3260008C3260008C3260008C3260008AC
:10009000C3260008C3260008C3260008C32600089C
:1000A000C3260008C3260008C3260008C32600088C
:1000B00081060008C3260008C3260008C3260008DE
:1000C000C3260008C3260008C3260008C32600086C
:1000D000C3260008C3260008C3260008C32600085C
:1000E000C3260008C3260008C326000800F002F853
:1000F00000F092F80AA090E8000C82448344AAF130
:100100000107DA4501D100F087F8AFF2090EBAE82D
:100110000F0013F0010F18BFFB1A43F0010318473B
:10012000447A0000647A0000103A24BF78C878C18D
:10013000FAD8520724BF30C830C144BF04680C60ED
:10014000704700000023002400250026103A28BF35
:1001500078C1FBD8520728BF30C148BF0B60704739
:100160006E2904F05580702904F09781662906F005
:10017000D086652906F0CD86672906F0CA866129F2
:1001800006F0C98603681B0A28BF41F0800169296F
:1001900004F00280642903F0FF87752903F0FC87CF
:1001A0006F2904F02481782904F06381E92904F09F
:1001B000BF80E42904F0BC80F52904F0B980EF2960
:1001C00004F02181F82904F062810368DB0928BF6B
:1001D00041F08001632904F0A986732904F0AE86FA
:1001E000E32904F0B986F32904F0BE8600207047A5
:1001F0001FB503F0F6FE04F04FFF040000200021BD
:1002000005F07EFE401C60600020002105F08EFE9F
:10021000E0601FBD10B510BD04F019FF1146FFF7D7
:10022000E7FF00F038F804F0FBFF03B4FFF7F2FF3C
:1002300003BC04F0FFFF00000B49D1F800C04A687E
:100240005CF8043B1068184442F8040B8C4528BF46
:10025000A1F1DC0C8A4228BFA1F1DC02C1F800C088
:100260004A6020F000407047840500201B49027856
:100270000B789A420DD142784B789A4209D1827814
:100280008B789A4205D1C078C978884201D1012083
:1002900070470020704708B502F0BAF901F03DFF41
:1002A00000F0B6F900F01EFE01F017FE00F009FEA6
:1002B00000F074FA01F0A0FF0949002001F082FE6D
:1002C00000F09FF908B102F025F8684600F078FCCC
:1002D0000028F5D1684602F007F8F1E70000002099
:1002E0000000B4427047FEE7FEE7FEE7FEE7704716
:1002F00070477047704700000CB500224C480092D0
:100300000192016841F4803101604FF4A0630168FB
:1003100001F4003101910099491C0091019911B932
:1003200000999942F3D10168890333D501210191E4
:1003300040490A6842F010020A600A6822F003028B
:100340000A600A6842F002020A604168416041683E
:100350004160416841F480614160416821F47C1151
:100360004160416841F4E8114160016841F08071E9
:10037000016001688901FCD5416821F003014160F9
:10038000416841F0020141604168C1F381010229E5
:10039000FAD10CBD01920CBD254810B5016841F0A1
:1003A000010101604168244A114041600168234A0B
:1003B00011400160016821F480210160416821F44D
:1003C000FE0141604FF41F018160FFF795FF1C495A
:1003D0004FF00060086010BD154A10B55068194B09
:1003E00010F00C01184803D0042901D0082901D0CD
:1003F000036012E05168536801F470114FF0020479
:1004000013F4803F04EB914102D053689B0301D564
:100410000E4B00E00B4B5943016051680A4AC1F38F
:100420000311121D515C0268CA40026010BD000039
:1004300000100240002002400000FFF8FFFFF6FE1F
:1004400008ED00E000127A000400002000093D00E1
:1004500070B5A14D0121284602F061FA0024102157
:10046000284602F046FA44EAC0042021284602F059
:1004700040FA44EA80044021284602F03AFA44EA6D
:100480004000C6B28021284602F033FA40EA060452
:100490000121284602F041FA0F2C07D0072C7DD00D
:1004A0000B2C7CD00D2C7BD00E2C7AD00221284630
:1004B00002F035FA00241021284602F01AFA44EA24
:1004C000C0042021284602F014FA44EA80044021A6
:1004D000284602F00EFA44EA4000C6B280212846BF
:1004E00002F007FA40EA06040221284602F015FA53
:1004F0000F2C07D0072C6CD00B2C6CD00D2C6CD093
:100500000E2C6CD00421284602F009FA0024102198
:10051000284602F0EEF944EAC0042021284602F001
:10052000E8F944EA80044021284602F0E2F944EA6E
:100530004000C6B28021284602F0DBF940EA0604FA
:100540000421284602F0E9F90F2C07D0072C48D0E7
:100550000B2C48D00D2C48D00E2C48D00821284612
:1005600002F0DDF900241021284602F0C2F944EA25
:10057000C0042021284602F0BCF944EA800440214E
:10058000284602F0B6F944EA4000C6B28021284667
:1005900002F0AFF940EA0604082103E011E012E09E
:1005A00013E014E0284602F0B8F90F2C07D0072C0E
:1005B0001FD00B2C1FD00D2C1FD00E2C1FD00020B5
:1005C00070BD012070BD022070BD032070BD0420ED
:1005D00070BD052070BD062070BD072070BD0820CD
:1005E00070BD092070BD0A2070BD0B2070BD0C20AD
:1005F00070BD0D2070BD0E2070BD0F2070BD10208D
:1006000070BD36494868002801D000224A60704712
:100610001FB50121084602F007FB314842F2107174
:100620000068B0FBF1F0401EB0F5803F01D34FF6FB
:10063000FF706321ADF80000ADF804100020ADF8A4
:100640000600ADF802004FF080446946204602F0F3
:100650009DFF01221146204603F055FA1C208DF81B
:100660000C0001218DF80D108DF80E108DF80F1073
:1006700003A802F03EF80121204603F02FFA1FBD27
:1006800010B501218C07204603F051FC002807D04B
:100690000121204603F057FCBDE8104000F001B8EE
:1006A00010BD10B5FFF7D4FE0C4A117888420FD167
:1006B0009078FF2801D2401C9070C0B2032806D366
:1006C0005078884203D05170002900D0516010BD8D
:1006D00010700120907010BD00080140180000202B
:1006E000040000202DE9F041054600244FF40048A5
:1006F0004FF40056FE4F3146384602F010F92806F6
:100700004146384602D502F008F901E002F007F947
:100710003146384602F001F96806641C050EE4B261
:10072000082CE8D331463846BDE8F04102F0F5B870
:100730002DE9F0477E2101EA4000ED4E40F08004B3
:100740004FF480594946304602F0E9F82046FFF759
:10075000C9FF0024254677144FF480486006040E34
:100760003946304602F0DBF83946304602F0D5F81B
:100770004146304602F0BDF808B144F001046D1C5A
:10078000EDB2082DEAD33946304602F0C6F84946A4
:10079000304602F0C2F82046BDE8F08710B500F000
:1007A0009BFA00F05EFA0321142000F04FFA0220B9
:1007B00001F05CFF00F03DFA0821084600F046FA1F
:1007C0003D21112000F011FA8621172000F00DFACA
:1007D0007F21262000F009FA1E212D2000F005FAC5
:1007E00000212C2000F001FA8D212A2000F0FDF9D3
:1007F0003E212B2000F0F9F9142001F020FFBDE884
:10080000104000F016BA2DE9FF5F0025DDF838B082
:1008100017468A4681464FF002082E460C2805D01E
:10082000B9F10E0F04D11225102601E077253026EC
:1008300045F08001022000F0D8F98021042000F06A
:1008400005FA0021012000F0D0F980210A2000F0F3
:10085000E5F9002405E01AF80410092000F0C5F9B4
:10086000641CBC42F7D34946012000F0BEF9B9F13F
:100870000C0F03D180210D2000F0D0F94FF47A74D1
:100880000420FFF755FF0746641E03D0F80701D187
:100890003742F5D080210D2000F0D8F93CB1062078
:1008A000FFF746FF10F01B0F0DD04FF0020880211C
:1008B0000C2000F0B3F90021012000F096F904B0FB
:1008C0004046BDE8F09F2F404FF00008F80701D0E8
:1008D0004FF00108B9F10C0FE9D10A20FFF728FF0A
:1008E00005460C20FFF724FF10F007004FEAC50172
:1008F00001D008390144CBF8001025B1122D00D9E0
:100900001225002408E00125FBE70920FFF710FF6E
:10091000014603980155641CAC42F6D3C7E710B5F5
:100920003720FFF705FF922801D0002010BD0120DD
:1009300010BD30B50C460546082187B0084600F0CA
:1009400085F907210D2000F050F90321142000F053
:1009500065F906A801AB00908DF8045001221946F4
:100960000C20FFF750FF10B90699102902D0022081
:1009700007B030BD9DF8041021709DF8051061701E
:10098000F6E770B50646082188B00024084600F056
:100990005DF900210D2000F028F980210E2000F0E3
:1009A00055F993208DF8040020208DF8050006A845
:1009B00001AB0090022219460C20FFF724FF05002E
:1009C0000DD1002101A8425C7254425C491C544084
:1009D000C9B20429F7D3405CA04200D0022580218F
:1009E0000E2000F01BF9284608B070BD2DE9F0413B
:1009F0000E46074615460421052000F027F9002180
:100A0000012000F0F2F880210A2000F007F900240C
:100A100005E0395D092000F0E8F8641CE4B2B44256
:100A2000F7D30321012000F0E0F8FF240520FFF7B1
:100A30007FFE641E14F0FF0401D04007F6D522208B
:100A4000FFF776FE28702120FFF772FE6870BDE880
:100A5000F08110B588B093218DF8041070218DF8C5
:100A6000051000218DF80A1001AA5418435CA370E8
:100A7000445C9DF80A30491C6340C9B28DF80A30C5
:100A80000429F2D3072101A8D21DFFF7AFFF0821E7
:100A9000084600F0DBF806A801AB009009221946D1
:100AA0000C20FFF7B0FE10B90699182900D00220DB
:100AB00008B010BD10B588B08DF804008DF8051091
:100AC0001068CDF806009088ADF80A001868039009
:100AD00006A801AB00900C2219460E20FFF793FEEA
:100AE000040004D10820FFF723FE000703D401E02F
:100AF000000C014002242046DAE730B587B00C46EE
:100B000030218DF8041001AD8DF805000221284632
:100B1000AA1CFFF76BFF06A801AB00900422194640
:100B20000C20FFF770FE10B90699902901D0022021
:100B30001EE70023E95CE1545B1CDBB2102BF9D308
:100B400016E770B588B00C46A0218DF8041001ADF1
:100B50008DF8050002212846AA1CFFF747FF06AEC4
:100B600001AB042219460C200096FFF74CFE28BB6F
:100B70000698042822D19DF8040000F00F000A28EE
:100B80001CD10020215C2954401CC0B21028F9D38C
:100B900005AA102101A8FFF729FF01AB122219466F
:100BA0000C200096FFF72FFE40B90699042905D1C5
:100BB0009DF8041001F00F010A2900D0022013E76C
:100BC00038B5044669465220FFF7B3FE58B92046AF
:100BD000FFF7D7FE38B9642001F048FD2046FFF743
:100BE00038FF002800D0022038BD2DE9F0410D4625
:100BF0007E2101EA4004564F4FF480563146384674
:100C000001F08DFE2046FFF76DFD2846FFF76AFDD7
:100C100031463846BDE8F04101F07FBE70B50C4664
:100C20000546FFF785FD40EA04012846BDE870400F
:100C3000DBE710B51420FFF77BFDC043800704D02D
:100C40000321BDE810401420E8E710BD70B50C4644
:100C50000546FFF76DFD20EA04012846BDE8704017
:100C6000C3E770B53B4D4FF480742146284601F030
:100C700054FE052001F0E3FC2146284601F04FFE1A
:100C8000052001F0DCFC2146284601F046FE052047
:100C900001F0D5FC0F210120FFF7A7FF0120FFF78E
:100CA00047FDC006FAD43D211120FFF79EFF1E210B
:100CB0002D20FFF79AFF00212C20FFF796FF8D21B2
:100CC0002A20FFF792FF3E212B20FFF78EFFBDE881
:100CD00070404021152088E7F8B501210C2001F073
:100CE0009AFF03208DF8020010208DF80300000108
:100CF000ADF800006946174801F0A5FD4FF400402B
:100D0000134EADF800006946304601F09CFD7414A6
:100D1000ADF800406946304601F095FD6510ADF82C
:100D200000506946304601F08EFD04218DF8031015
:100D30000803ADF800006946304601F084FD214605
:100D4000304601F0EAFD2946304601F0E6FDF8BDE7
:100D5000000C01400008014002464FF48071FE483B
:100D600001F0DFBD02464FF40071FB4801F0D9BD30
:100D700038B500214FF47A720020401C9042FCD319
:100D8000491C9142F8D30121082001F044FF1420AE
:100D90008DF8030003208DF802004FF48070EE4CB4
:100DA000ADF800006946204601F04DFD6115ADF833
:100DB00000106946204601F046FD0120FFF7CCFFF8
:100DC0000120FFF7CFFF38BD10B50120FFF7CAFFA4
:100DD0000120FFF7C1FF0020FFF7C4FFBDE810406E
:100DE0000020B9E710B50020FFF7BCFF0120FFF796
:100DF000B3FFBDE810400120B4E770B500240546FC
:100E0000802626FA04F0284000D00120FFF7AAFF30
:100E10000120FFF7A1FF0020FFF79EFF641CE4B252
:100E2000082CEED30120FFF797FFBDE870400020AB
:100E300092E710B50446FFF7C7FF7820FFF7DDFF04
:100E40000020FFF7DAFF2046FFF7D7FFBDE810408C
:100E5000C8E770B50D460646FFF7B6FF7820FFF7E6
:100E6000CCFF4020FFF7C9FF002404E0305DFFF70E
:100E7000C4FF641CE4B2AC42F8D3BDE87040B1E7F3
:100E800010B50C4640F0B000FFF7D3FF102040EA49
:100E90001410FFF7CEFF04F00F00BDE81040C8E7C4
:100EA00070B5AE4D002400212046FFF7E9FF05EBA9
:100EB000C4108021FFF7CDFF641CE4B2082CF2D3EC
:100EC00070BD10B50021A54C0A46002004EBC113EB
:100ED0001A54401CC0B28028FAD3491CC9B2082950
:100EE000F3D310BD10B5FFF743FFAE20FFF7A1FF0E
:100EF000D520FFF79EFF8020FFF79BFFA820FFF77C
:100F000098FF3F20FFF795FFD320FFF792FF0020C7
:100F1000FFF78FFF4020FFF78CFFA120FFF789FF2D
:100F2000C820FFF786FFDA20FFF783FF1220FFF7C4
:100F300080FF8120FFF77DFFCF20FFF77AFFD920C8
:100F4000FFF777FFF120FFF774FFDB20FFF771FF5A
:100F50003020FFF76EFFA420FFF76BFFA620FFF7FE
:100F600068FF8D20FFF765FF1420FFF762FFAF20B9
:100F7000FFF75FFFFFF7A5FFBDE8104090E70346CE
:100F8000012000E05843491EFCD270472DE9F0478C
:100F900081469A4600200346A9F10104089E28E0F4
:100FA00032F91350B54202DD4FF0010C01E04FF071
:100FB000000C32F91470B74202DD4FF0010801E075
:100FC0004FF00008C44511D031F914C031F9134075
:100FD000A6EB0508ACEB040C0CFB08FC7D1B9CFB92
:100FE000F5F52544554501DD38B100201C465B1C54
:100FF0001BB24B45D4DBBDE8F0870120F6E72DE9B5
:10100000F0411C461546884605F049FA06460F464B
:10101000404605F044FA32463B4604F067FE504A2B
:10102000504B05F087F800224F4B05F09FFA05F072
:10103000D9F900B2A54204DAA84207DBA04202DDDA
:1010400004E0A842FADB0120BDE8F0810020FBE7C4
:101050002DE9F0410546C81701EB5070C410C818BF
:101060009046401EC21700EB5270012202EBE000D6
:1010700006B2002902DA761E36B2641E374F11E03E
:101080007F2D0DD8002C0BDB072C09DCE9B2E0B278
:10109000FFF7F6FE07EBC41028444146FFF7D9FEE0
:1010A000641C24B2B442EBDBCEE7F0B501EB030CD9
:1010B00020E00446871819E07F2C15D8002913DB9F
:1010C0003F2911DCCB1701EB5376F510234B26F0AB
:1010D000070603EBC5132344A1EB060E1D7801267A
:1010E00006FA0EF6B5431D70641C24B2A742E3DC79
:1010F000491C09B28C45DCDCF0BD10B5174B002152
:10110000002003EBC112145CE4431454401CC0B231
:101110008028F8D3491CC9B20829F1D310BDF0B515
:1011200001EB030C2CE00446871825E07F2C21D826
:1011300000291FDB3F291DDCCB1701EB5376F5108F
:10114000064B26F0070603EBC5132344A1EB060E5E
:101150001D7801260AE00000000C01405400002028
:101160001F85EB51B81E09400080664006FA0EF656
:1011700075401D70641C24B2A742D7DC491C09B21B
:101180008C45D0DCF0BD2DE9FF4F1F4616460D46BD
:101190000024DDF834A00098FFF787FF7F1EF817C2
:1011A00007EB50700121DFF878B401EBE00E3DE071
:1011B000002037E000990B187F2B31D8E91705EB99
:1011C0005171CA1021F00701691A002D03DA521E6D
:1011D000083112B209B22244072A0ED804FB06F7DE
:1011E0000AEB00080BEBC21917F8087019F803C0D6
:1011F0008F404CEA070C09F803C0571C072F0FD883
:101200000BEBC21204FB06F70AEB000C1A4417F8AA
:101210000C7012F8803FC1F10801CF403B431370BE
:10122000401CC0B2B042C5D3641CE4B2A645BFDCCA
:10123000BDE8FF8F08B5082B0DD0062B0AD1F94B5E
:1012400002EB420203EB4202C03A0092082306225C
:10125000FFF799FF08BDF44B03EB0212A2F50072F1
:10126000102300920822F3E72DE9F0411D461646AF
:1012700088460746002408E004FB057000B22B46B0
:101280004146FFF7D7FF641CE4B2325D002AF3D178
:10129000DAE62DE9F0471D4617468A4680460024C7
:1012A0004FF00A09089E14E0291B0A20491EFFF787
:1012B00066FEB7FBF0F1B1FBF9F209FB121204FB79
:1012C000068000B2334651463032FFF7B3FF641C4C
:1012D000E4B2AC42E8D38EE62DE9F0471E46089F03
:1012E00015008A4680463B4603D42B22FFF7A2FF17
:1012F00003E02D22FFF79EFF6D4200244FF00A0904
:1013000014E0311B0A20491EFFF739FEB5FBF0F14E
:10131000B1FBF9F209FB1212641C04FB078000B256
:101320003B4651463032FFF785FFE4B2B442E8D382
:1013300061E62DE9F0431E469046894607460024A3
:10134000079D16E0311B1020491EFFF718FEB8FB61
:10135000F0F000F00F0204FB05700A2A00B22B46E1
:10136000494601D2303200E03732FFF763FF641C98
:10137000E4B2B442E6D3BDE8F0832DE9F0431D4664
:101380001746894680460024079E12E0291B02204A
:10139000491EFFF7F4FDB7FBF0F000F0010204FB7B
:1013A000068000B2334649463032FFF743FF641CE3
:1013B000E4B2AC42EAD3DEE72DE9FF5F82B0144627
:1013C0001D46DDE911B60746002213462046294690
:1013D000DDF8408005F0C8F9334605D82B223846A1
:1013E0000399FFF727FF06E02D2238460399FFF700
:1013F00021FF85F000452046294605F023F8824666
:1014000005F064F822462B4605F03EFA04460D46E8
:1014100059460A20FFF7B3FD814605F057F82246EA
:101420002B4605F0A3F804F021FD05F00BF8B0FB06
:10143000F9F1044601EB0A02B81900B243460096DE
:101440000399FFF726FF08F1010000FB067000B2C8
:1014500033462E220399FFF7EDFE08F1020000FB50
:10146000067000B25B46224600960399FFF711FF13
:1014700006B0BDE8F09F2DE9FC5F002591468B4644
:1014800082462E46DFF8A48101952EE001A9485539
:101490006D1CEDB2032D26D300252C4606E0384600
:1014A00001A902F0CFFD58B1641CE4B204EBC40101
:1014B00008EB810007465EA102F0C4FD0028EED1D2
:1014C000701C0321B0FBF1F10AEB011004EBC40224
:1014D00008EB8201091D10381023009100B21A4652
:1014E0005946FFF750FE761CF6B219F806000028A0
:1014F000CCD1BDE8FC9F0FB470B5C0B014460D460A
:10150000064648AA6846479902F020FD23466A46E7
:1015100029463046FFF7A8FE40B070BC5DF814FBCA
:1015200010B57F2813D8002911DB3F290FDCCA171B
:1015300001EB5272D4103A4B22F0070203EBC413B2
:1015400018448A1A0378012191400B43037010BD9F
:1015500010B57F2814D8002912DB3F2910DCCA17E8
:1015600001EB5272D3102E4C22F0070204EBC3138E
:101570008A1A185C01219140084201D0012010BD57
:10158000002010BD2DE9F0471D464FF0000816461B
:101590000C460746C446A9420DD1B74208DD3E4677
:1015A000174605E021463846FFF7BAFF7F1C3FB2D9
:1015B000B742F7DD1FE5B7420DD1AC4208DD1C464E
:1015C0000D4605E021463846FFF7AAFF641C24B209
:1015D000AC42F7DD0FE503DD3E4617461C460D46DF
:1015E000AC4205DD604204B2684205B24FF001082A
:1015F000281BF11B884207DD384627460446304643
:101600002E4605464FF0010C281B4200F11B0FFA35
:1016100082FA421A52000FFA82F9C1EB400023E02D
:1016200054000020467600085670000880780008B4
:1016300000000000784201B203E0604201B203E022
:101640003946204601E021463846FFF769FFB74298
:10165000B0DA7F1C3FB2002D02DA05EB0A0003E08E
:10166000641C24B205EB090005B2B8F1000F03D0E9
:10167000BCF1000FE1D0DDE7BCF1000FE3D0DFE704
:101680002DE9F041844606980F46CD180CEB020672
:1016900070BB681E64460FFA80F809E039462046A0
:1016A000FFF73EFF41462046FFF73AFF641C24B295
:1016B000A642F3DC761E34B209E039466046FFF7F5
:1016C0002FFF20463946FFF72BFF7F1C3FB2BD425C
:1016D000F3DCB9E43C4605E021466046FFF720FF15
:1016E000641C24B2A542F7DC0CF1010C0FFA8CFC4F
:1016F0006645EFDCA8E42DE9F04F85B00546DDE94D
:101700000F700E9EADF80450ADF80C109B4692463B
:101710000C46A8468946ADF80620ADF80860ADF83D
:101720000E30ADF81070D8B15046C24500DA804690
:10173000464500DAB046CB4500DAD9464F4500DAD7
:10174000B9465046AA4500DD0546AE4200DD3546A5
:101750005846A34500DD0446A7422CDD3C462AE05E
:101760005B46524621462846FFF70CFF3B46324671
:1017700021462846FFF706FF3B463246594650466B
:10178000FFF700FF05B0BDE8F08F4E460DE0434681
:1017900003AA01A903200096FFF7F8FB18B1314610
:1017A0004046FFF7BDFE761C36B2A642EFDD08F1DB
:1017B00001080FFA88F8A845E7DDE3E72DE9FF4FB8
:1017C000844614460E46081901B287B0C2F10108DA
:1017D00000256046FFF7A4FE301B01B26046FFF70C
:1017E0009FFE0CEB0400314600B2FFF799FEACEB14
:1017F0000400314600B2FFF793FE0A98002876D025
:10180000674206E0F01901B26046FFF789FE7F1CCF
:101810003FB2A742F6DB6AE06D1C2DB2B8F1000FB3
:1018200002DA08EB450004E0641E24B2291B08EB31
:101830004100401C0FFA80F8301901B20CEB050092
:1018400007B2BB4658460691FFF76AFE701901B20F
:101850000CEB040000B2029000910390FFF760FED1
:10186000301B01B2ACEB050000B282460591FFF7D8
:1018700057FE701B01B2ACEB040000B28946049025
:101880000190FFF74DFE38460599FFF749FE49469E
:101890000398FFF745FE50460699FFF741FEDDE944
:1018A0000010FFF73DFE0A9808B3604207B20BE054
:1018B000F01901B289465846FFF732FE49465046B4
:1018C000FFF72EFE7F1C3FB2A742F1DB684207B252
:1018D0000BE0F01901B289460498FFF721FE494652
:1018E0000298FFF71DFE7F1C3FB2AF42F1DBA5421D
:1018F00092DB0BB047E72DE9F04F9B4689B00646D7
:101900005C4660420F4690460025049004F0C7FDF7
:101910000022FE4B04F052FB824608FB08F94846C1
:10192000009104F0BCFD5246CDE90201009B04F099
:101930001DFE82460BFB0BF84046059104F0AFFDFF
:10194000CDE900105246059B04F038FB04F004FB7F
:101950008246129898B1DDF810C00EE007EB0C003B
:1019600001B230460491FFF7DBFD30460499FFF7E2
:10197000D7FD0CF1010C0FFA8CFCA445EEDB3819F5
:1019800001B2701900B204910690FFF7C9FD381B2F
:1019900001B2701B0FFA80FC60460591FFF7C0FD95
:1019A000604604994FE04FF0030101EB4501BAF5A1
:1019B000000F08FB01F006DA05F0D2F9514605F0F8
:1019C00085F882460DE06342022202EB430209FBE6
:1019D000020005F0C5F9514605F078F8641E82460C
:1019E00024B2049805B21298D0B160420FFA80FC7C
:1019F000701900B20490701B00B206900EE007EB65
:101A00000C0001B205910498FFF78AFDDDE905108D
:101A1000FFF786FD0CF1010C0FFA8CFCA445EEDB00
:101A200038190FFA80FC701900B261460690FFF772
:101A300077FD381B01B2701B00B2CDE90401FFF73E
:101A40006FFD61460498FFF76BFDDDE90510FFF7B8
:101A500067FD204604F023FD0022AC4B04F020FF7C
:101A600002460B46DDE9020104F080FDCDE90601E6
:101A7000681C049000FB08F004F011FDDDE906236A
:101A800004F038FD8FD309FB0BF000FB0BF004F0E2
:101A900006FDCDE90201601E09FB00F1484304F098
:101AA000FEFCCDE90401284604F0F9FC0022974B26
:101AB00004F084FA02460B4682468B46DDE90010AC
:101AC00004F054FD52465B4604F050FDDDE904236A
:101AD00004F074FADDE9022304F0E2FE04F03CFABB
:101AE00082465AE0BAF5000F13DA022101EB4501F4
:101AF0006342032208FB01F002EB430209FB0200F0
:101B000005F02EF9514604F0E1FF6D1C82462DB21E
:101B10000BE06242032101EB420109FB01F005F0F9
:101B20001FF9514604F0D2FF8246641E129824B277
:101B3000D0B160420FFA80FC701900B20190701BA6
:101B400000B200900EE007EB0C0001B28B4601984A
:101B5000FFF7E6FC59460098FFF7E2FC0CF1010C98
:101B60000FFA8CFCA445EEDB381901B2701900B2F3
:101B70008B460190FFF7D4FC381B0FFA80FC701BDA
:101B800000B261460090FFF7CBFC59460098FFF782
:101B9000C7FC61460198FFF7C3FC002CA2DC09B02A
:101BA000F1E52DE9FF5F14460E460746C2F1010B31
:101BB0000025214628460E9B039AFFF720FA20B104
:101BC000301901B23846FFF7ABFC61424FF0000913
:101BD000884648460E9B039AFFF711FA20B1301B46
:101BE00001B23846FFF79CFC294620460E9B039A1B
:101BF000FFF705FA20B13819314600B2FFF790FC23
:101C0000494640460E9B039AFFF7F9F920B1381B6D
:101C1000314600B2FFF784FC0F98002814D04046EC
:101C200010E0014600200E9B039AFFF7E8F928B167
:101C300006EB080001B23846FFF772FC08F101001C
:101C400000B28046A045ECDBCCE06D1C2DB2BBF1B0
:101C5000000F02DA0BEB450004E0641E24B2291BDE
:101C60000BEB4100401C0FFA80FB214628460E9BDF
:101C7000039AFFF7C4F928B1301901B2781900B2FC
:101C8000FFF74EFC294620460E9B039AFFF7B7F953
:101C900028B1701901B2381900B2FFF741FC604257
:101CA00001B2684200B28A4681460E9B039AFFF752
:101CB000A6F928B1301B01B2781B00B2FFF730FC47
:101CC000494650460E9B039AFFF799F928B1701BBD
:101CD00001B2381B00B2FFF723FC514628460E9B89
:101CE000039AFFF78CF928B1301B01B2781900B2C2
:101CF000FFF716FC494620460E9B039AFFF77FF933
:101D000040B1701B01B2381900B201E00000E03FA1
:101D1000FFF706FC214648460E9B039AFFF76FF932
:101D200028B1301901B2781B00B2FFF7F9FB294640
:101D300050460E9B039AFFF762F928B1701901B261
:101D4000381B00B2FFF7ECFB0F98E8B35046D046C3
:101D50001FE0014628460E9B039AFFF750F930B169
:101D600006EB080001B2781900B2FFF7D9FB414633
:101D700048460E9B039AFFF742F930B106EB080084
:101D800001B2781B00B2FFF7CBFB08F1010000B2F3
:101D90008046A045DDDB4846C84621E00146504666
:101DA0000E9B039AFFF72BF930B106EB080001B246
:101DB000381B00B2FFF7B4FB414620460E9B039A46
:101DC000FFF71DF940B100E00CE006EB080001B29E
:101DD000381900B2FFF7A4FB08F1010000B28046F9
:101DE000A845DBDBA542FFF630AFBDE8FF9F000052
:101DF0002DE9F047794F8A4681460121384601F0A6
:101E000031FA42F2107425464FF0FF36DFF8D081E8
:101E100001E06D1E0ED04146384601F0D8FA002888
:101E2000F7D000228021384601F063FA2546DFF81A
:101E3000B48104E00121384632E06D1EFAD04146FB
:101E4000384601F0C4FA0028F7D04946384601F078
:101E50004BFADFF890812546A8F1020801E06D1EDB
:101E6000E8D04146384601F0B2FA0028F7D0514692
:101E70003D46384601F038FA5A4FBF1C01E0641E57
:101E80000CD03946284601F0A2FA0028F7D00121EB
:101E9000284601F0F1F90020BDE8F087012128462D
:101EA00001F0EAF93046F7E710B50C2105F095F896
:101EB00001464D4804F072FE04F032FF401EC4B2E9
:101EC00010210020FFF794FF2146FE20FFF790FF2E
:101ED0008021BDE8104000208AE710B586B00121BE
:101EE000082000F098FE0121480500F09DFEC0206A
:101EF000ADF810001C208DF8130003208DF812009F
:101F000004A93A4800F09FFC0020ADF80400ADF8A9
:101F100008004FF48060ADF80A000001ADF80C0035
:101F20004BF6FF7132482D4CADF806100090694613
:101F3000204601F012F90121204601F075F92D48E3
:101F4000FFF7B2FF00210846FFF752FF04210120EE
:101F5000FFF74EFF06B010BD70B5044606200E46D2
:101F600000EB84001546C9B2C0B2FFF741FF07205D
:101F700000EB8400310AC0B2FFF73AFF082000EB03
:101F80008400E9B2C0B2FFF733FF290A092000EB51
:101F90008400BDE87040C0B22AE710B504F06AFDC5
:101FA0000022154B04F0C6F80022144B04F0DEFAB0
:101FB0000022134B04F002F803F0CEFF04F0B0FE51
:101FC00080B210BD10B504460846FFF7E6FF024692
:101FD0002046BDE810400021BEE70000005400404C
:101FE000010003008200070020BCBE4B000C014032
:101FF000A08601000000484200E0704000A0794047
:102000000080594070B55C4D1021284600F071FCED
:10201000C4002021284600F06CFC44EA80044021E2
:10202000284600F066FC44EA4000C4B280212846FD
:1020300000F05FFC2043072807D00B2807D00D28AD
:1020400007D00E2807D0002070BD012070BD0220EF
:1020500070BD032070BD042070BD70B5464D0121D8
:10206000284600F05CFCFFF7CDFF444C607018B9C7
:1020700008E00A2000F0FAFAFFF7C4FF0028F8D1C0
:10208000607820700121284600F047FC0221284694
:1020900000F045FCFFF7B6FF607018B909E00A20B0
:1020A00000F0E4FAFFF7AEFF0028F8D16078001DD9
:1020B00020700221284600F030FC0421284600F060
:1020C0002EFCFFF79FFF607018B909E00A2000F0AE
:1020D000CDFAFFF797FF0028F8D16078083020701C
:1020E0000421284600F019FC0821284600F017FCBE
:1020F000FFF788FF607018B909E00A2000F0B6FA0F
:10210000FFF780FF0028F8D160780C30207008219C
:10211000284600F002FC207870BD38B5012104206B
:1021200000F079FD0F20ADF8000003208DF80200CB
:102130001020114C8DF803006946204600F083FB07
:10214000F021ADF8001048218DF8031069462046B3
:1021500000F079FB0121204600F0DFFB0221204640
:1021600000F0DBFB0421204600F0D7FB08212046CD
:1021700000F0D3FB38BD0000000801402000002023
:1021800070B500F0B0FDF74D284600F0E6FD0428DC
:1021900004D000F0B4FD4FF0FF3070BDF24E0024CB
:1021A00005EB840056F8241000F075FE042804D0D6
:1021B00000F0A5FD6FF0010070BD641C0D2CEFDB7D
:1021C00000F09DFD002070BD38B510233022202185
:1021D0000020FEF76AFFE54C606800280BDDE2484E
:1021E000413001F0DBFE02460820009023792021D7
:1021F0000020FFF74EF838BD70B5FEF773FEDA4BDE
:102200000020024603F1340443F820202254401CED
:102210000D28F9DBD34D002055F8201043F820108D
:1022200001B101212154401C0D28F5DBCF48CE49D6
:102230000270413142600A704FF0FF31C0E9022163
:10224000C0E90421FEF73DFE0021C9A20846FFF7C0
:1022500012F9CAA200213220FFF70DF9BDE8704043
:10226000FEF71EBE2DE9F04188B0FEF72AFE0021E0
:10227000C3A20846FFF7FFF82021684601F0BAFE26
:10228000B94F01250024DFF8108334376E46385DDE
:1022900008B1312100E03021E01704EB107020F08C
:1022A0000F00201A3044017004EA08010F2901D000
:1022B0000C2C0CD10021417006236A4629B2002063
:1022C000FEF7D2FF2021684601F094FE6D1C641CCD
:1022D0000D2CDCDBB1A229B20020FFF7CCF8FEF711
:1022E000DFFD08B0BDE8F081A04B30B419780129BA
:1022F0000ED1B14A0021445C555CAC4208D1491C66
:102300000429F8DB01209860801E586130BCA9E7E1
:1023100030BC70472DE9F04F934E00244136651EC6
:10232000924F89B0042823D04FF0010B082826D003
:10233000421E6FF062010F2A02D8A04951F8201006
:102340008A488A1C406829D0884A4B1D12782CD0B4
:1023500009297CD8002A7BD00222904277DA0F2804
:1023600075DA30317D613154401C7860345478E046
:102370003C707C603470C7E902453C6136E087F808
:1023800000B07C603470C7E902453C61FEF799FDFE
:102390008BA200210020FFF76EF86BE0002802DD21
:1023A000401E786034547D615BE0DFF8BC91396990
:1023B00009F1340AF1B1F96800291BDB0D2903D2B8
:1023C000C8B20021FFF7FEFD3878012801D018B10E
:1023D00055E0C7E9035414E0F86849F820400AF8CA
:1023E0000040FFF7CDFE3C70C7E90354FEF769FDDE
:1023F00079A2CEE7012A01D042B140E078690028F5
:102400003DDB7D6109B0BDE8F04F2BE700281EDD04
:102410005548413001F0C2FD4FF00008494651F8DF
:102420002820824201D1454604E008F10108B8F1B4
:102430000D0FF4DB002D17DB1AF80500A0B12846BC
:1024400000F089F80823032166A2002001E07CE067
:102450007EE0FEF709FFFEF723FD7C60C7E9035B22
:102460003470FFF7B1FE05E0082360A203210020CD
:10247000FEF7FAFE09B0BDE8F04FFEF711BDB868EF
:1024800048B37868B84600285FDD3748413001F02E
:1024900085FD05460D28E7D21AF80500F0B159F878
:1024A0002570FEF70EFD00214BA20846FEF7E3FF64
:1024B0000820009006233A4620210020FEF7E9FE7E
:1024C000FEF7EEFCC8F81450C8F80440347009B0A8
:1024D000BDE8F04F78E647A203215BE7FDF7ACFECD
:1024E000474990FBF1F201FB1201642095FBF0F2E9
:1024F00000FB125040F63542504301EB401749F8BB
:1025000025700AF805B0FFF73BFE3EA101A801F0D7
:102510002FFD082301AA01210020FEF7A5FE0820B7
:10252000009006233A4620210020FEF7B2FEFEF777
:10253000B7FC284600F00FF8C8E9035BC8F8044070
:102540003470FFF741FEFEF7ABFC09B0BDE8F08F39
:10255000062202E770470D2803D2C0B22B49FFF7CD
:1025600031BD704700F8000854040020240000200A
:10257000E58F96E4BBB6E7A081000000EFBC9A00AF
:10258000E5AD98E4BBB6E6A8A1E5BC8F20E7A9BA03
:10259000E997B23A000000000F000080E8BE93E522
:1025A00085A5E997A8E7BC96E58FB7E5B9B6E7A199
:1025B000AEE8AEA400000000000000207C79000816
:1025C000E5AD98E4BBB6E6A8A1E5BC8F20E8AFB7BF
:1025D000E588B7E58DA10000E58F96E4BBB6E7A0DE
:1025E000813A00006F70656E000000004552524F46
:1025F00052000000E8AFB7E588B7E58DA100000004
:10260000A0860100436F64653A0000000000B442F8
:1026100010B56FF0040000F0ACF8204820490068C5
:10262000B0FBF1F01F49C0B200EB40020870C2EBF2
:10263000C0104FF6FF7202EAC000488010BD194971
:10264000097848434FF0E021486100238B61086915
:1026500040F0010008610869C20701D0C003FAD543
:10266000086920F0010008618B6170470D494988B5
:1026700048434FF0E021486100238B61086940F036
:10268000010008610869C20701D0C003FAD50869D2
:1026900020F0010008618B617047000004000020F9
:1026A00000127A003C000020094880470948004792
:1026B000FEE7FEE7FEE7FEE7FEE7FEE7FEE7FEE7F2
:1026C000FEE7FEE704480549054A064B704700004F
:1026D00099030008ED000008F0050020F00B002031
:1026E000F0070020F0070020284908432849086027
:1026F000704730B50F23C27801780125F2B1244A22
:10270000126801F1E02102F4E062C2F5E062120A0F
:10271000C2F10404D3404278A24084781C401443A0
:10272000220181F80024007800F01F018D4040094B
:10273000800000F1E020C0F8005130BD01F01F0022
:1027400085404809800000F1E020C0F8805130BD8C
:10275000104A114001430E48001F016070470C4AA7
:10276000121D0029116801D0014300E0814311606E
:1027700070474FF0E0210428086903D020F00400DE
:102780000861704740F00400FAE700000000FA0515
:102790000CED00E080FFFF1F8F4910B5884206D185
:1027A0000121042000F049FA002104203BE08B497C
:1027B000884206D10121082000F03FFA00210820BC
:1027C00031E08749884206D10121102000F035FA16
:1027D0000021102027E08349884206D101212020D2
:1027E00000F02BFA002120201DE07F49884206D10D
:1027F0000121402000F021FA0021402013E07B4914
:10280000884206D10121802000F017FA00218020A3
:1028100009E0774988420AD184150121204600F059
:102820000CFA00212046BDE8104000F006BA10BDA9
:1028300010B50121084600F000FA0021BDE8104063
:10284000012000F0FAB9F0B5CC78002204F00F03B3
:10285000E40601D58C7823430C784FF00F0C14F06C
:10286000FF0F4FF0010E1BD005680E880EFA02F420
:102870002640A64210D196000CFA06F725EA070773
:1028800003FA06F5CE783D43282E02D0482E02D01A
:1028900002E0446100E00461521C082AE5D30560AF
:1028A0000A88FF2A1CD94468002202F108060EFAA1
:1028B00006F50E882E40AE420ED196000CFA06F7B1
:1028C000BC4303FA06F7CE783C43282E00D145617D
:1028D000CE78482E00D10561521C082AE5D3446009
:1028E000F0BD4FF6FF710180022181700421C1709B
:1028F00070470246002092680A4200D001207047CB
:10290000806880B2704702460020D2680A4200D038
:1029100001207047C06880B2704701617047416113
:1029200070470AB10161704741617047C1607047EB
:1029300041F480328261816182618169806970477E
:102940002C4B10B51A684FF68074224042EA0010F2
:102950000843186010BD2849C8617047F0B5254C80
:10296000002801DAE36900E06368450D2E0185B2B5
:10297000C0F30157B540C0F30342032F05D0C60290
:102980000AD503269640B34307E023F070626368DC
:1029900023F07063636002E0AB4343F0706201B107
:1029A0002A43002801DAE261F0BD6260F0BD10B593
:1029B0008A0721F003040F49120F21440F238C686A
:1029C00093409C438C608B68904003438B6010BDA8
:1029D0000949C1F8DC00704700080140000C0140C3
:1029E000001001400014014000180140001C01408B
:1029F000002001400000014000002042A54801687D
:102A000041F0010101604168A34A11404160016841
:102A1000A24A11400160016821F4802101604168EF
:102A200021F4FE0141604FF41F0181607047994914
:102A30000A6822F480320A600A6822F480220A605E
:102A4000B0F5803F07D0B0F5802F03D1086840F47F
:102A5000A02008607047086840F48030F9E703461A
:102A6000002059098B4A01290AD002290AD0516A4B
:102A700003F01F02012393400B4200D00120704756
:102A80001168F5E7116AF3E718B500204FF4A06468
:102A900000903120FFF7E3FF0099491C0091A1420B
:102AA00001D00028F5D03120FFF7D9FF002800D051
:102AB000012018BD774A116821F0F80141EAC000F1
:102AC00010607047764908607047724B5A68084337
:102AD00022F47C12104358607047714908667047B1
:102AE0006C4A516821F00301014351607047694805
:102AF000406800F00C007047664A516821F0F00110
:102B0000014351607047634A516821F4E061014319
:102B1000516070475F4A516821F4605141EAC0003A
:102B2000506070475B4A0029517A01D0014300E0B0
:102B30008143517270475A49C1F8D8007047554ACD
:102B4000516821F4404101435160704751490022CE
:102B500081F8202081F82020012802D0042802D109
:102B6000052081F8200070474E49086070474949A8
:102B70000A6A02430A6270474A494439086070474A
:102B800030B5444A5168484B11F00C0103D0042978
:102B900001D0082901D0036012E05168536801F4A4
:102BA00070114FF0020413F4803F04EB914102D006
:102BB00053689B0301D53D4B00E03B4B59430160FB
:102BC00051680F2303EA1111394B5C5C0168E14045
:102BD00041605468072505EA14241C5D21FA04F4B9
:102BE0008460546805EAD4241B5DD940C1605268F2
:102BF000032303EA92322E4B1B1F9A5CB1FBF2F1C6
:102C0000016130BD234A0029516901D0014300E030
:102C10008143516170471F4A0029916901D00143E6
:102C200000E08143916170471A4A0029D16901D0BF
:102C3000014300E08143D1617047164A0029D16801
:102C400001D0014300E08143D1607047114A00295F
:102C5000116901D0014300E08143116170471149BE
:102C60004039086070470E49C86470470949C87107
:102C700070470848416A41F0807141627047054AD7
:102C80000146002092680A4200D0012070470149A5
:102C900088727047001002400000FFF8FFFFF6FE48
:102CA000000042428004424200127A0000093D00C6
:102CB00044000020FD4A116801F038010143116011
:102CC0007047FA490A6822F008020A600A6802435B
:102CD0000A607047F5490A6822F010020A600A6823
:102CE00002430A607047F148F1494160F14941608F
:102CF0007047EE48EE494160EE4941607047EB484D
:102D0000016941F0800101617047E848016941F0C3
:102D1000800101617047E5490420CA68D20701D0EB
:102D200001207047CA68520701D502207047C96860
:102D3000C906FBD50320704700B50346FFF7EBFF3C
:102D400002E0FFF7E8FF5B1E012803D0002B00D153
:102D5000052000BD002BF4D1FAE770B505464FF40D
:102D600030263046FFF7E8FF042811D1CF4C206908
:102D700040F0020020616561206940F04000206160
:102D80003046FFF7D9FF216941F6FD7211402161FC
:102D900070BD30B54FF430252846FFF7CDFF04282D
:102DA00010D1C24C206940F004002061206940F03D
:102DB000400020612846FFF7BFFF216941F6FB7202
:102DC0001140216130BD00B50346FFF7A4FF02E0CA
:102DD000FFF7A1FF5B1E012803D0002B00D10520C7
:102DE00000BD002BF4D1FAE730B54FF4302528466A
:102DF000FFF7E9FF042810D1AC4C206940F0040033
:102E00002061206940F0400020612846FFF7DBFF89
:102E1000216941F6FB721140216130BDA3490020B8
:102E2000C969890700D50120704770B5A525FFF74E
:102E3000F5FF00B100254FF430263046FFF77CFF48
:102E4000042827D1994C9A48A0609A48A06020692C
:102E500040F020002061206940F0400020613046B1
:102E6000FFF76AFF41F6EF7604280ED1206941F69C
:102E7000DF7108402061206940F0100020618E4819
:102E800005804FF40050FFF757FF052802D0216955
:102E90003140216170BDF8B5064600204FF4005C5A
:102EA00000900D466046FFF747FF042816D17F4C7F
:102EB000206940F00100206135806046FFF73CFF4B
:102EC00041F6FE77042806D1B61C280C0096308007
:102ED0006046FFF731FF216939402161F8BDF0B547
:102EE00006464FF400570D463846FFF725FF0428E5
:102EF0000CD16E4C206940F00100206135803846CD
:102F0000FFF71AFF2169BA1E11402161F0BDF0B52B
:102F100006464FF400570D463846FFF70DFF0428CC
:102F200013D1624C6248A0606248A060206940F002
:102F30001000206135803846FFF7FEFE052804D0DA
:102F4000216941F6EF7211402161F0BD2DE9F04198
:102F5000C043C7B2C0F30726C0F30745040E4FF4C1
:102F600000584046FFF7E8FE04283CD1DFF83CC19A
:102F70004F49CCF808104F49CCF80810DCF8101075
:102F800041F01001CCF81010FF2F07D04A4808304C
:102F900007804046FFF7D0FE04281BD1FF2E07D044
:102FA00045480A3006804046FFF7C6FE042811D186
:102FB000FF2D07D040480C3005804046FFF7BCFE8F
:102FC000042807D1FF2C07D03B480E300480404630
:102FD000FFF7B2FE052806D0DCF8101041F6EF72BC
:102FE0001140CCF81010BDE8F08170B505464FF4E3
:102FF00030263046FFF7A0FE042818D12B4C2C4871
:10300000A0602C48A060206940F020002061206969
:1030100040F0400020613046FFF78EFE41F6DF7140
:10302000042805D0052802D022690A40226170BD1B
:10303000206908402061206940F0100020611E488E
:103040000DB1002100E0A52101803046FFF774FE9C
:103050000528ECD0216941F6EF721140216170BD65
:10306000F0B5124C0746124816460D46A0601148AE
:10307000A0604FF4005C6046FFF75EFE042814D1A8
:10308000206940F01000206135430B493D43891C05
:1030900045F0F80008806046FFF74EFE052804D092
:1030A000216941F6EF7211402161F0BD002002401C
:1030B00023016745AB89EFCD00F8FF1F1C48C069AD
:1030C000800870471A48006A70471949002009684B
:1030D000890600D501207047154A0029116901D0E1
:1030E000014300E081431161704701460020104A0E
:1030F000012903D0D2680A4203D17047D169C907B8
:10310000FBD0012070470A49C86070470849042075
:10311000CA68D20701D001207047CA68520701D59A
:1031200002207047C968C906FBD50320704700001C
:1031300000200240C64910B588424FF0010101D17C
:103140004C0501E04FF480042046FFF77FFD204648
:10315000BDE810400021FFF779BD70B504468088B6
:1031600086B00D4620F03F066846FFF709FDB949D5
:103170000298B0FBF1F189B20E43A680228822F0BA
:1031800001022280B44B2A689A421CD85200B0FB3C
:10319000F2F080B2042800D20420491C2184A083CC
:1031A000208840F00100208020884FF6F53108404B
:1031B000A9886A89114301432180A8892989084384
:1031C000208106B070BDEB88A3F53F46FF3E0BD0D3
:1031D00002EBC20303EB0212B0FBF2F080B240F448
:1031E0008040020506D007E002EB4202B0FBF2F09D
:1031F00080B2F6E740F001004FF4967251434FF46D
:103200007A72B1FBF2F140F40040C6E741F2883136
:103210000160002181804BF6FF72C28001814181F3
:103220004FF48041818170470029018802D041F02C
:10323000010101E021F0010101807047002981882E
:1032400002D041F4006101E021F400618180704707
:103250000029818802D041F4805101E021F480519D
:10326000818070470029018802D041F4807101E01B
:1032700021F48071018070470029018802D041F457
:10328000007101E021F4007101807047002901887C
:1032900002D041F4806101E021F480610180704737
:1032A000828901F0FE0122F0FE0211438181704704
:1032B0000029818902D041F0010101E021F00101E2
:1032C000818170470029018802D041F0400101E06E
:1032D00021F0400101807047002A828801D00A4312
:1032E00000E08A438280704701827047008AC0B242
:1032F000704712B141F0010101E001F0FE010182CD
:10330000704708B508440090008808BD002901886E
:1033100002D041F4004101E0C1F30E010180704789
:10332000B1F5006F018803D021F40061018070477E
:1033300041F40061FAE7B1F5005F018803D021F4A0
:1033400000510180704741F40051FAE700290188DB
:1033500002D041F4805101E021F480510180704796
:10336000B1F5006F018803D021F40061018070473E
:1033700041F40061FAE70029018802D041F0200100
:1033800001E021F0200101807047008B000A7047A6
:103390000029018802D041F0100101E021F0100164
:1033A000018070470029018803D021F0800101804D
:1033B000704741F08001FAE7B1F5804F818B02D070
:1033C00021F4804101E041F480418183704703464C
:1033D00000209A8A1B8B42EA034222F07F429143EB
:1033E00000D101207047818A008B41EA004121F021
:1033F0007F4070470CB50246002000920A0F21F072
:103400007F41019202D0009A143202E0009A090C26
:103410001832009212680A4200D001200CBDC94344
:103420008182704710B5034600209A884FF4E0640B
:1034300004EA11449B8A224021F07F410B4202D0D2
:10344000002A00D0012010BDC943818270470000CE
:103450000054004040420F00A0860100F94910B519
:10346000884202D10121C41486E0B0F1804F09D016
:10347000F54988420DD101210220FFF7E7FB002129
:10348000022064E001210846FFF7E0FB0021012053
:103490005DE0EE49884206D101210420FFF7D6FB0A
:1034A0000021042053E0EA49884206D10121082086
:1034B000FFF7CCFB0021082049E0E649884206D10D
:1034C00001211020FFF7C2FB002110203FE0E2495C
:1034D000884206D101212020FFF7B8FB00212020DF
:1034E00035E0DE49884202D10121441444E0DC4940
:1034F000884202D10121CC043EE0DA49884202D15F
:1035000001210C0538E0D849884202D101214C053F
:1035100032E0D649884206D101214020FFF796FBD0
:103520000021402013E0D249884206D101218020A9
:10353000FFF78CFB0021802009E0CE4988420AD1A8
:10354000841501212046FFF781FB00212046BDE8BC
:103550001040FFF77BBBC849884202D101210C040F
:103560000AE0C649884202D101214C0404E0C44962
:1035700088420AD101218C042046FFF75EFB2046D9
:10358000BDE810400021FFF758BB10BD30B50288E0
:10359000AC4CB24DA0420DD0A8420BD0B0F1804F40
:1035A00008D0A94B984205D0A84B984202D0A84B0E
:1035B000984203D122F070034A881A43A54B9842DF
:1035C00006D0A54B984203D022F44073CA881A4310
:1035D00002808A8882850A880285A0420AD0A84291
:1035E00008D0A54A904205D0A44A904202D0A44AED
:1035F000904201D1097A01860121818230BD30B526
:10360000028C22F001020284028C8388048B22F057
:10361000020224F073050C882C430D8915434A8857
:103620002A43884DA8420BD08C4DA84208D0924D19
:10363000A84205D0914DA84202D0914DA8420DD18B
:1036400022F008054A8923F440732A4322F0040536
:103650008A882A438D891D43CB892B438380048329
:10366000C9888186028430BD70B5028C22F01002B8
:103670000284028C8388048B0D8824F4E6464FF67E
:10368000FF7404EA052535430E8922F0200204EA7E
:10369000061616434A8804EA02123243694EB042C3
:1036A00002D06E4EB04215D122F080064A8923F432
:1036B000406304EA0212324322F040068A8804EA98
:1036C000021232438E8904EA86061E43CB8904EA3D
:1036D0008303334383800583C9880187028470BDD7
:1036E00070B5028C22F480720284028C8388848BF1
:1036F0000D8824F0730425430E894FF6FF7422F4DD
:10370000007204EA062616434A8804EA022232437B
:103710004C4EB04202D0514EB04215D122F4006658
:103720004A8923F4405304EA0222324322F4806699
:103730008A8804EA022232438E8904EA06161E436E
:10374000CB8904EA0313334383808583C988818747
:10375000028470BD70B5028C22F480520284058C04
:103760008288838B0C8823F4E6464FF6FF7303EAC6
:103770000424344325F400560D8903EA0535354306
:103780004E8803EA06362E432E4DA84202D0334D12
:10379000A84205D122F480458A8903EA82122A438D
:1037A00082808483C988A0F84010068470BD828B13
:1037B00022F440628283828B4FF6FF7303EA012179
:1037C0000A4382837047828B22F00C028283828BB1
:1037D0000A4382837047028B22F440620283028B89
:1037E0004FF6FF7303EA01210A4302837047F0B5E5
:1037F000048C24F010040484078B048C4FF6FF75AE
:1038000027F4734705EA03333B4305EA02221A43D0
:103810000C4B05EA011698420ED0104B98420BD083
:10382000B0F1804F08D0084B984205D0074B984222
:1038300002D0074B984225D124F02001314341F0BA
:10384000100124E0002C014000040040000800406A
:10385000000C004000100040001400400034014003
:10386000004C01400050014000540140001800404D
:10387000001C004000200040004001400044014086
:103880000048014024F0A0030B4343F010010283E1
:103890000184F0BD028B22F00C020283028B0A43EA
:1038A0000283704770B5048C24F001040484058BF6
:1038B000048C4FF6FF7606EA0313134325F0F30555
:1038C000F84A2B4390420ED0F74A90420BD0B0F109
:1038D000804F08D0F54A904205D0F54A904202D078
:1038E000F44A904202D124F0020201E024F00A02DC
:1038F0000A4342F001010383018470BD2DE9F84FB2
:103900000D4604460888E74FDFF89CC3DFF89C8328
:10391000DFF89C934988AA882B894FF0804A48B3E6
:1039200004282FD04FF6FF760828934632D0208CFB
:103930009E4620F480502084A38B208C06EA01321E
:10394000009223F4734306EA0B221A4306EA0E336D
:103950001343BC420AD0644508D0544506D04445C0
:1039600004D04C4502D0D34A944242D120F40050B6
:10397000009940E02046FFF795FFE9882046BDE822
:10398000F84F87E72046FFF732FFE9882046BDE879
:10399000F84F20E7208C20F480702084B4F81CE0DD
:1039A000208C06EA031306EA01222EF0F30E43EA06
:1039B0000B0343EA0E030092BC420AD0644508D0D0
:1039C000544506D0444504D04C4502D0B94A9442EF
:1039D00003D120F40070009901E020F42060084336
:1039E00040F48070A3832084E9882046BDE8F84F26
:1039F000E9E620F40240084340F48050A383208489
:103A0000E9882046BDE8F84FD1E62DE9F0410C46A3
:103A1000002649880746012501B90226A288012A05
:103A200000D10225208823890028384610D0FFF7CE
:103A3000DEFEE1883846FFF7CEFE23892A4631466E
:103A40003846FFF72FFFE1883846BDE8F04121E70F
:103A5000FFF728FFE1883846FFF71CFF23892A4635
:103A600031463846FFF7C3FEE1883846BDE8F041ED
:103A7000B1E610B50A884B88CC881A438B8823435B
:103A80001A430B891A434B8989891A430A43A0F8C0
:103A9000442010BD4FF6FF71818000210180C1805C
:103AA0004180017270470021018041808180C18086
:103AB000018141818181C181704700210180418064
:103AC00001228280C18001817047002101804180F4
:103AD0008180C180018141818181704700290188F5
:103AE00002D041F0010101E021F0010101807047A5
:103AF000002930F8441F02D041F4004101E0C1F335
:103B00000E0101807047002A828901D00A4300E03B
:103B10008A4382817047818270471143A0F8481020
:103B20007047002A828901D00A4300E08A438281DB
:103B30007047018921F0070101817047028922F055
:103B400070020A430281704700B50346FFF7F6FF93
:103B5000188940F00700188100BD70B516460D4663
:103B6000602904464FF0010231460AD0FFF79AFE61
:103B700029462046FFF7E2FF208940F00700208118
:103B800070BDFFF734FEF3E730B504894FF6FF75DB
:103B900005EA03231343E4B20B432343038130BDFF
:103BA00010B50446FFF7F0FF208940F07700208130
:103BB00010BD10B50446FFF7E7FF208940F48040B0
:103BC000208110BD018582827047028822F0700238
:103BD0000A430280704770B50589048B068C25F076
:103BE00007050D434FF6FC410C4040F201110C4318
:103BF0004FF6FF7101EA031126F02206114331430B
:103C000005810483018470BD028B22F070020A4397
:103C100002837047028B4FF6FF7322F4E04203EAFF
:103C20000121114301837047828B22F070020A4305
:103C300082837047828B4FF6FF7322F4E04203EADF
:103C400001211143818370470029018802D041F08E
:103C5000800101E021F08001018070470029818806
:103C600002D041F0040101E021F00401818070479D
:103C70000029818802D041F0080101E021F008010B
:103C8000818070470029818802D041F0010101E064
:103C900021F0010181807047028B22F008020A4363
:103CA00002837047002C01400034014000040040B2
:103CB00000080040000C0040028B4FF6FF7322F416
:103CC000006203EA012111430183EAE7828B22F0BB
:103CD00008020A438283E4E7828B4FF6FF7322F4E3
:103CE000006203EA012111438183DAE7028B22F0AB
:103CF00004020A430283D4E7028B4FF6FF7322F4D7
:103D0000806203EA012111430183CAE7828B22F01A
:103D100004020A438283C4E7828B4FF6FF7322F4C6
:103D2000806203EA012111438183BAE7028B22F00A
:103D300080020A430283B4E7028B4FF6FF73C2F39B
:103D40000E0203EA012111430183AAE7828B22F0CC
:103D500080020A438283A4E7828B4FF6FF73C2F38B
:103D60000E0203EA0121114381839AE7028C22F0BB
:103D700002020A43028494E7028C22F008020A43FA
:103D800002848EE7028C4FF6FF7322F0200203EAD2
:103D900001111143018484E7028C4FF6FF7322F076
:103DA000800203EA0111114301847AE7028C4FF685
:103DB000FF7322F4007203EA01211143018470E7CA
:103DC000028C4FF6FF7322F4006203EA01211143D3
:103DD000018466E7028C4FF6FF7322F4005203EA77
:103DE0000131114301845CE710B50123048C8B4041
:103DF0009C430484038C8A401343038410BD10B594
:103E00000423048C8B409C430484038C8A4013431A
:103E1000038410BD30B50124058C00F118038C40DB
:103E2000A543058489B108290FD0091FC1F34E00AD
:103E30001844016821F4E041016001684FF6FF7306
:103E400003EA02221143016030BD03EB5100016817
:103E500021F0700101600168F4E70029018802D0B7
:103E600041F0020101E021F00201018019E700297F
:103E7000018802D041F0040101E021F00401018039
:103E80000FE70029818802D041F0800101E021F094
:103E90008001818005E7028822F008020280028802
:103EA0000A430280FDE6828822F0700282808288C6
:103EB0000A438280F5E6028922F007020281028924
:103EC0000A430281EDE6028922F080020281028922
:103ED0000A430281E5E68184E3E68185E1E68186A5
:103EE000DFE60187DDE68187DBE6A0F84010D8E653
:103EF000028822F44072028002880A430280D0E6DF
:103F0000808ECEE6008FCCE6808FCAE6B0F8400007
:103F1000C7E6808CC5E6008DC3E602460020128A03
:103F20000A4200D00120BCE6C9430182B9E602463C
:103F30000020138A92890B4202EA010202D0002A71
:103F400000D00120ADE6C9430182AAE61CB50C46AB
:103F5000064B7B4469460090204600F072F9044607
:103F60000020694600F080F920461CBD13030000C4
:103F70000FB41CB5084B06AA7B446946009005980F
:103F800000F05FF904460020694600F06DF9204614
:103F90001CBC5DF814FB0000ED02000070B5064685
:103FA00000F094F80468054630460A22002100F02B
:103FB00043FB2C6070BD00000B4910B5A1F17C02E1
:103FC0000A4CC2E93712372106E000EB104342F8F1
:103FD0002130074B00FB03400B1EA1F10101F4DC73
:103FE00010BD0120E8E7000024050020E119D66695
:103FF000CD0D01004FF0000200B5134694469646E1
:10400000203922BFA0E80C50A0E80C50B1F12001EB
:10401000BFF4F7AF090728BFA0E80C5048BF0CC099
:104020005DF804EB890028BF40F8042B08BF7047F7
:1040300048BF20F8022B11F0804F18BF00F8012B69
:10404000704700004FF0013C50F8042B51F8043B3E
:104050009A4221D1A2EB0C03934313EACC1317D15C
:1040600050F8042B51F8043B9A4215D1A2EB0C03F3
:10407000934313EACC130BD150F8042B51F8043BB3
:104080009A4209D1A2EB0C03934313EACC13DBD081
:104090004FF00000704700BFD01A01BAB1FA81F1A9
:1040A00001F0180122FA01F0CB40C1F12001DBB28E
:1040B000C0B2C01A2CFA01F3D11A914311EAC3110C
:1040C000E6D170477047704770470000004870475E
:1040D0008C05002070B5044685690068C10601D5CD
:1040E000302600E02026C00707D070BDD4E90121AA
:1040F00030469047206A401C20626D1EF6D570BD88
:1041000070B5044685690078C00707D170BDD4E951
:10411000012120209047206A401C20626D1EF6D5A8
:1041200070BD09684A0501D540B27047C905FCD584
:1041300000B2704709684A0501D5C0B27047C90589
:10414000FCD580B2704770B50C460546012A05D0F3
:104150002878800600D5EA69002302E0012305E003
:104160005B1C934202D2E05C0028F9D1A869E618F2
:10417000C01AA861286A184428622846FFF7AAFFD7
:1041800004E0D5E9012114F8010B9047B442F8D3BB
:104190002846FFF7B5FF70BD2DE9F0410646002423
:1041A00010687529314616A510D0FFF7BAFF002810
:1041B00002DA404213A507E031688A0701D512A54B
:1041C00002E0490704D511A5012401E0FFF7B2FF81
:1041D00000210A2206F1240709E0B0FBF2FCB0FB43
:1041E000F2F302FB1C00303078541846491C0028BA
:1041F000F3D123462A463046BDE8F04100F0A5BA87
:10420000000000002D0000002B0000002000000036
:1042100011680268006A530501D508700AE0D305E9
:1042200001D5088006E0130603D5C217C1E90002D4
:1042300000E008600120704701694A1C02610878AB
:10424000704700B58FB0CDE90131002105910549D6
:104250007944CDE903101146684600F029F90FB002
:1042600000BD0000E5FFFFFF0A6802F8010B0A60CD
:10427000704700002DE9FF5F15468A460446DFF8C7
:10428000AC80F8440027D8E900103E46CDE9001084
:1042900010E03AF816106A4602A800F0B8FE411C79
:1042A00007D02178890603D5E269391891420DD8E3
:1042B0000744761C2078800602D5E069B84205DD07
:1042C000AE42E6DB3AF816000028E2D1A069C01B36
:1042D000A0612046FFF7FEFED8E90010CDE90010EE
:1042E000002017E03AF818106A4602A800F08FFE86
:1042F000B0F1FF3F81460BD000250DF1080B05E022
:10430000D4E901211BF8050090476D1C4D45F7D3FA
:1043100008F10100B0428046E4DB206A38442062A4
:104320002046FFF7EDFEBDE8FF9F00003A37000092
:104330002DE9F0418046D21D22F007020025D2E986
:104340000002F52915A614D0011E72F1000106DA4B
:104350000023D0EB030063EB020211A608E0D8F8BB
:1043600000108B0701D50FA602E0490701D50EA664
:1043700001251146002408F1240704E000F0A0F90B
:1043800030323A55641C50EA0102F7D12B463246CE
:1043900021464046BDE8F04100F0D7B900000000DA
:1043A0002D0000002B0000002000000030B4002190
:1043B00000F1240408E002F00705D208303542EA93
:1043C0004372DB086554491C52EA0305F3D10468C3
:1043D000002310A2250707D5A40600D421B1C46983
:1043E00001230DA2641EC46130BC00F0AEB910B54B
:1043F000044621461068FFF79DFE02462046BDE8B0
:1044000010400023D2E7D21D22F00701D1E900239A
:10441000CCE700000000000030000000F0B40D46C2
:104420000188090502D5214C7C4402E01F4C7C44E4
:104430000E34002100F1240608E002F00F071209F3
:10444000E75D42EA03721B097754491C52EA0307ED
:10445000F3D102780023120704D5702D06D009B1DC
:10446000022311342246F0BC00F06FB9012310344E
:10447000F8E770B504460D4621461068FFF75AFE6E
:10448000024629462046BDE870400023C6E7D21DFB
:1044900022F00703D3E90023C0E70368126843F062
:1044A000200303600823C3610023B7E79C350000A5
:1044B0002DE9F05F894604464FF0000ADFF874B139
:1044C000FB44C0F820A02046E1688847002874D04B
:1044D000252806D0D4E901219047206A401C20629B
:1044E000F1E700265F462046E16888472028054618
:1044F00007DB312D05D2781910F8200C08B10643DE
:10450000F1E7B00701D526F00406C4F81CA0002787
:10451000C4F818A02A2D09D0284601F0CFFA38B3E4
:1045200004EB8708303DC8F8185019E059F8041B0F
:10453000204604EB87029161E1688847012F054618
:1045400018D1E069002820DA26F020061DE0D8F80E
:10455000180000EB800005EB40003038C8F8180068
:104560002046E1688847054601F0A8FA0028EED108
:10457000012F0AD02E2D08D12046E16888477F1CE4
:104580000546022F46F02006C4DBA069002803DAA6
:10459000404246F00106A061F00701D026F0100667
:1045A0006C2D0BD0682D09D04C2D39D06A2D35D00B
:1045B000742D35D07A2D33D016E038E0E1682F46DF
:1045C00020468847B842054609D16C2F26D04FF4C3
:1045D0008060E168064320468847054604E06C2F6A
:1045E0001AD04FF4807006430DB3A5F1410019288D
:1045F00002D8203546F400664A4629462046266001
:104600004E46FBF7ADFD80B101280BD0F61D26F01C
:10461000070000F1080956E74020E4E78020D8E7CA
:104620000020D6E706F104094DE7284652E7206A44
:10463000BDE8F09F2C3500002DE9F04791460F466C
:1046400080460446002614F8015B2DB100F030F8D6
:104650000068405DC007F6D12B2D02D02D2D18D05B
:10466000641E4A463946204600F082FC27B139686C
:10467000A14201D1C7F800804FF0020471050BD5AB
:104680004042002803DDFFF721FD0460A007BDE8DC
:10469000F08746F48066E4E70028F8DAFFF716FDB5
:1046A00004606FF00040F2E7004870478C0500207E
:1046B00010B500F0F1FC001D10BD00BF4518000052
:1046C00030B5B0F10A024FEA900E71F100034EEAE4
:1046D000817EB0EB0E0061EB91014FEA101E4EEAB5
:1046E000017E10EB0E0041EB11114FEA102E4EEA45
:1046F000016E10EB0E0041EB11214FEA104E4EEA15
:10470000014E10EB0E0041EB1141401841F1000148
:104710004FEAD00040EA41704FEAD10110EB80052A
:104720004FEA810444EA907444EB01046D1944EBB0
:104730000404521BA3414FF0000348BF0A3200D5C6
:1047400030BD401C41F1000130BD2DE9F0470D4660
:1047500099469246044600F124080168880604D56B
:10476000E06921F01001216000E00120A84201DD94
:10477000471B00E00027A1697A1902EB0900081A1B
:10478000A0612078C00602D42046FFF7A3FC0026D3
:1047900008E0D4E901211AF806009047206A401C7D
:1047A000761C20624E45F4DB2078C0060AD52046F0
:1047B000FFF790FC06E0D4E9012130209047206A01
:1047C000401C2062381EA7F10107F4DC07E0D4E9A1
:1047D000012118F805009047206A401C2062281E1D
:1047E000A5F10105F3DC2046FFF78AFC20780006DE
:1047F00002D50220BDE8F0870120FBE770472DE9D4
:10480000FF4F0C461E464FF0FF378BB0D2E9000138
:10481000DDF860800A908A46C1F30A5505B93D4625
:10482000002108464FF00000BAF1000F00F44000EC
:1048300005DA00EB80004FF4400101EA50004FEA36
:104840009059B9F1010F00DDB9460A9850EA4A00C3
:104850000ED044F61050A5F2FF3545432F14B8F1A1
:10486000000F1ED07542291E1EDDC9F100021CE09A
:10487000B8F1010F4FF0000001D0302103E0F24306
:1048800005E02154401CB042FBDB304600220021F1
:1048900021540B99C1F80880C1E900200FB0BDE890
:1048A000F08FBD1B6D1CDEE74A4600DA694206A8A0
:1048B00000F044FC06AB93E8070003AB83E8070075
:1048C00050460A9900F0BCFC8DE80700A0F50050A6
:1048D0001F3800900398002D0ADD42F21F014A465E
:1048E0000844002303A90390684600F025FF09E06F
:1048F000A0F500504A461F38002303A903906846DC
:1049000000F02FFF8DE807000004000C03D04FF0EB
:10491000FF30410800E01046B8F1000F03D000223C
:10492000009215461EE0751E05D4FFF7C9FE303211
:1049300062556D1EF9D5B3460122084302D000220C
:104940007F1C04E02078302801D100227F1E002A3D
:10495000099784D01DE0112D07DAFFF7B1FE303240
:1049600062556D1C50EA0102F5D1084302D000984F
:10497000C8B10EE00021681E05E0235C625C635450
:104980002254401E491C8142F7DBAB46A81B401E47
:104990000990002004F80B000B98099AC0F80880D1
:1049A000C0E9002B7AE711264FF0000857E72DE900
:1049B000F04F88460446D21D22F0070191B0D1E99C
:1049C0000001CDE90A0101F003F802460B98C00F7F
:1049D00001D02D2007E02068810701D52B2002E0BF
:1049E000202101EAC000032A099001D0072A05DB33
:1049F00003464146204600F053FB0BE12078800639
:104A000001D5E06900E00620B8F1650F814606D0C7
:104A1000B8F1660F18D0B8F1670F70D131E00020FF
:104A2000B9F1110F009001DB112301E009F101033D
:104A30000AAA01A90CA8FFF7E2FEDDE90C70002626
:104A400009F10105834647E001204B4600904FF0F5
:104A500000470AAA01A90CA8FFF7D1FEDDE90DB0B5
:104A60000C995D46002610B909F101000D18B9EB4B
:104A7000050003D4C0F1FF3609F10105A5EB0900DB
:104A80002BE0B9F1010F01DA4FF001090020B9F173
:104A9000110F0090484601DD112300E003460AAAE9
:104AA00001A90CA8FFF7ABFEDDE90C704D4600260E
:104AB0008346207800070AD4AB4500DA5D4601A89A
:104AC000012D04DD411911F8011C302907D04F4593
:104AD00002DA17F1040F04DA012082460FE06D1E9E
:104AE000EEE7002F02DCED1B3E4403E0781CA842F9
:104AF00000DD7D1CB81B00F1010A4FF00047207853
:104B0000000703D4AA4501DB4FF0FF3A0021B7F1BB
:104B1000004F0DF143088DF8431024D002202B23C1
:104B2000002F01DA7F422D230A21021EA0F101008D
:104B300000DC5FB197FBF1FC97FBF1F201FB1C7C01
:104B400017460CF1300C08F801CDEEE7A8F1010092
:104B500003702188090501D5452100E06521A0F1F8
:104B6000010800F8011C09980FA9A1EB0807FF1D17
:104B700000B10120411901EBEA70A1693844081A1B
:104B8000401EA0612078C00602D42046FFF7A2FA9A
:104B9000099828B1D4E901219047206A401C20627D
:104BA0002078C00622D52046FFF794FA1EE0002E9A
:104BB00004DBB34502DD01A8805D00E03020D4E9CC
:104BC00001219047206A401C2062761CAAF1010056
:104BD0005FEA000A0AD100F05FFAC0680168405C31
:104BE000D4E901219047206A401C2062281EA5F1CB
:104BF0000105DCDC07E0D4E9012118F8010B90473E
:104C0000206A401C2062381EA7F10107F3DC204611
:104C1000FFF776FA032011B041E600002DE9F04FCE
:104C200004460D46D21D22F0070089B0D0E9009756
:104C30004846394600F0CCFE0246F80F01D02D233D
:104C400007E02068810701D52B2302E0202101EA3B
:104C5000C0038DF820300BB1012000E00020032AB2
:104C6000824601D0072A04DB2946204600F018FAC4
:104C70003FE12078800601D40D2500E0E569C7F307
:104C80000A560D2D49DA00214FEA175B08464FF00E
:104C90000000002F00F4400007DA00EB80004FF422
:104CA000400100EBD07001EA60008115012901DDAF
:104CB0004FF0FF3100224FEA850CBCF1180F06D3EC
:104CC0001346ACF118004FF08052C24003E04FF49D
:104CD000801323FA0CF30CF10C0CBCF1200F04D35D
:104CE000ACF1200C09FA0CF001E007FA0CF00029F5
:104CF0004FF0004801DD18B90FE00ED140450CD34C
:104D000019EB02095F4121B9404502D19F4329EACD
:104D10000209BBEB175F00D0761C2088000502D586
:104D20007B48784402E07A487844193808AA30234E
:104D300002F80A30037C0AF10101002E0AF1020A8E
:104D400053546A4602DC4FF0300101E04FF031016C
:104D50004FF001088DF8001002D0A6F2FF3603E0F4
:104D600059EA470100D06B4E002D02DC217809077B
:104D700004D54FF002082E218DF80110C446002101
:104D80000BE0C7F303433F01C35C491C6D1E02F8EF
:104D90000830052908F1010801DA002DF1DC0021B5
:104DA0000CE000EB1973491C1B786D1E082902F8F2
:104DB00008304FEA091908F1010801DA002DF0DC8A
:104DC00021688B0602D516E0A8F10108E04505DD53
:104DD00002EB080313F8013C302BF5D0B8F1000FBB
:104DE00009DD02EB080313F8013C2E2B03D1090760
:104DF00001D4A8F10108002D05DD3E2102F80810BC
:104E00006D1E08F10108407C002E02F8080008F130
:104E1000010804DA2D20764202F8080002E02B2077
:104E200002F808000A214FF47A70864208F101085E
:104E30000BDB96FBF0F3303302F8083096FBF0F30F
:104E400008F1010800FB136601E0642E0CDB64200E
:104E500096FBF0F3303302F8083096FBF0F308F1DC
:104E6000010800FB136601E00A2E06DB96FBF1F059
:104E7000303002F8080008F1010896FBF1F001FB60
:104E80001060303002F80800A16908F1010808EB51
:104E9000050202EB0A00081AA0612078C00602D4BD
:104EA0002046FFF717F9216A08AE01EB0A002062DD
:104EB00004E0D4E9012116F8010B9047BAF1010A88
:104EC000F7D22078C00602D52046FFF703F96E46D8
:104ED00009E016F8010B3E280FD0D4E901219047D4
:104EE000206A401C2062B8F10108F2D22046FFF788
:104EF00007F909B00320BDE8F08F206A284420623A
:104F000003E0D4E90121302090476D1EEBD3F8E790
:104F1000952D000002FCFFFF10B5436913B1AFF3FC
:104F2000008001E0FFF70FF9012010BD127800F1B9
:104F300024010A7000224A700122EDE711684FF047
:104F4000FF32E9E710B5436913B1AFF3008001E028
:104F5000FFF790F9012010BD128800F1240182842E
:104F60000022C2840122EDE711684FF0FF32E9E729
:104F70002DE9F05F824615468B4600270AF10104B1
:104F8000B9460078302801D09DB113E014F8010B28
:104F90000127782803D0582801D045B10AE00DB187
:104FA000102D07D1002714F8010B102502E0082569
:104FB00000E00A250026B0460EE005FB080005FBD0
:104FC00006F101271FFA80F801EB1046B6F5803F85
:104FD00000D3B94614F8010B294600F0A1F80028C7
:104FE000EBDABBF1000F05D00FB1641E00E05446B0
:104FF000CBF80040B9F1000F06D0FFF767F80221A7
:105000000160C81EBDE8F09F48EA0640FAE770B5A7
:1050100016460C460546FFF74BFB036893F8010163
:10502000012806D0FF2C0FD8185D68B101202C7024
:1050300070BDD3F807013246214603F2071303443B
:105040002846BDE8704018474FF0FF3070BD7546E8
:10505000FFF72AFBAE4605006946534620F00700DD
:10506000854618B020B5FDF72DFBBDE820404FF078
:1050700000064FF000074FF000084FF0000B21F042
:105080000701AC46ACE8C009ACE8C009ACE8C0090F
:10509000ACE8C0098D46704700487047AC05002059
:1050A0002DE9F0411F46044603260168072A01F452
:1050B000006004DB08B116A505E016A503E008B101
:1050C00015A500E015A521F010002060A069C01E04
:1050D000A0610FB1401EA0612046FEF7FBFF4FB15B
:1050E000D4E9012138469047206A401C2062C01C48
:1050F000206206E0206AFAE7D4E9012115F8010BE5
:105100009047761EF8D22046FEF7FAFFBDE8F08100
:105110004E414E006E616E00494E4600696E66005B
:105120003A2800D2303820F02002412A01D3A2F1DF
:105130003700884201D34FF0FF3070472DE9F04728
:10514000814616468AB0354878440DC88DE80D0072
:1051500032487844801C03AC0DC884E80D0041F649
:105160009B300844372190FBF1F290FBF1F5A5F15B
:10517000800501FB12041B3C02D56442012000E0C3
:105180000020DFF898A080460027FA44AAF1BE0A62
:105190000EE0E0070AD03246684607EB47010123DC
:1051A0000AEB810100F0DDFA8DE8070064107F1C36
:1051B000002CEED1194F7F44AE3F19E0E80715D01F
:1051C00007EB04100DF1180A90E80E008AE80E00B3
:1051D000C068F04201D1981908903246012306A90F
:1051E00003A800F0BEFA03AB83E807006D10641C4F
:1051F000002DE3D14FF0010332466946B8F1000FAC
:1052000003A802D000F098FA01E000F0AAFAC9E978
:105210000001C9F808200AB0BDE8F087002A0000A4
:1052200010B50446AFF300802046BDE81040FAF701
:10523000FCBF704701491820ABBEFEE72600020004
:105240005FEA400C08BF91F0000F4FEA8C234FEA51
:10525000C12243EA51514FEA1C5018BF00F5F040FB
:105260004FEA300018BF41F000415FEA6C5C00F08B
:105270002980BCF1FF3F08BF40F080407047130C0D
:1052800006BF12044FF0100C4FF0000C130E04BFB9
:1052900012020CF1080C130F04BF12010CF1040CE4
:1052A000930F04BF92000CF1020CD30F04BF520005
:1052B0000CF1010C11464FF00002A0F11F00A0EB11
:1052C0000C00704711F0004F08BF704731F00041EB
:1052D0003FF4D5AF0B0C06BF09044FF0100C4FF094
:1052E000000C0B0E04BF09020CF1080C0B0F04BFDD
:1052F00009010CF1040C8B0F04BF89000CF1020CA6
:10530000CB0F04BF49000CF1010CCCF12003A0EB42
:105310000C0022FA03F302FA0CF241EA030100F155
:105320000100704720F07F4C80EA030023F07F47A4
:10533000ACEB070303F57C5300F0004003F1FF03DF
:105340002DE980494FEA154B09B44FEA144325EA89
:105350000B4E24EA03480FF2042606EB13274908F4
:105360003E785FEA320203FB0667C7F5000707FBDA
:1053700006F64FEA54374FEAD64606F1020607FB17
:10538000066CCCF1005C4FEA1C472CEA074C07FB8B
:1053900006F40CFB06F504EB15464FEA961634BFEF
:1053A00000204FF000404FEAD13706FB07FC4FEAE0
:1053B0001C4C0CFB0BF7D21B03FB0CF761EB07013A
:1053C0000CFB0EF7B0EB074072EB17420CFB08F733
:1053D00034BFA2EB0742B2EB074261EB17414FEA41
:1053E0000C444FEA910706FB07FC4FEA1C4C0CFBF0
:1053F0000BF7B0EBC74072EB573203FB0CF734BF2F
:10540000A2EBC742B2EBC74261EB57310CFB0EF780
:10541000B0EBC70072EB57720CFB08F734BFA2EB7E
:10542000C702B2EBC70261EB5771039F4FEA81617C
:1054300041EA921104EBCC044FEAD1374FEA826281
:1054400006FB07FC42EA90124FEA80604FEA1C4CD0
:105450000CFB0BF7D21B03FB0CF761EB07010CFBFA
:105460000EF7B0EB074072EB17420CFB08F734BFA6
:10547000A2EB0742B2EB074261EB17414FEA8C55B2
:105480004FEA910704EB9C2406FB07FC4FEA1C4CF7
:105490000CFB0BF7B0EBC74072EB573203FB0CF77A
:1054A00034BFA2EBC742B2EBC74261EB57310CFBF2
:1054B0000EF7B0EBC70072EB57720CFB08F734BF66
:1054C000A2EBC702B2EBC70261EB577115EB4C259B
:1054D0004FEA816141EA92114FEA82624FEAD13785
:1054E00042EA901206FB07FC44F100044FEA806098
:1054F0004FEA1C4C0CFB0BF7D21B03FB0CF761EBC8
:1055000007010CFB0EF7B0EB074072EB17420CFBE8
:1055100008F734BFA2EB0742B2EB074261EB174139
:1055200015EB1C154FEA813141EA92414FEA823274
:1055300042EA90424FEA80304FEA0C7644F1000490
:1055400048EA03434EEA0B484FF0000EB2EB080C5A
:1055500071EB030724BF624639464EEB0E0E4FF047
:10556000000B0018524149414BEB0B0BB2EB080CFE
:1055700071EB03077BF1000B24BF624639464EEB0B
:105580000E0E4FF0000B0018524149414BEB0B0B34
:10559000B2EB080C71EB03077BF1000B24BF6246F2
:1055A00039464EEB0E0E51EA020718BF46F00106CF
:1055B00016EB0E7655F1000254F1000103D5BDE85B
:1055C0008901BDE80088BDE88901BDE80048B61939
:1055D000524141EB0101A3F10103704780807F7EBE
:1055E0007D7C7B7A79787776767574737271717059
:1055F0006F6E6E6D6C6C6B6A6A696868676666650B
:105600006464636362616160605F5F5E5E5D5D5C98
:105610005C5B5B5A5A595958585757565655555509
:105620005454535352525251515050504F4F4F4E69
:105630004E4D4D4D4C4C4C4B4B4B4A4A4A494949B7
:1056400048484847474747464646454545444444F9
:10565000444343434342424242414141002B9C4622
:1056600030D477002BD01CB54FEA370703B44FF086
:1056700010004FF01001BAF1000F06D0BCF1000F7E
:10568000DCBF40F0080040F008014FF000000FBC04
:10569000BDE810400BF1010BBBF1010F08BF5FEA41
:1056A000170722BF12F1010211F101014FF0004171
:1056B00043F1000300F0004043EA00007047F9D3D3
:1056C0005708D0E746EA064613F1400F4FEA164660
:1056D0001FDD13F1200FDFBF16430A4600212033E0
:1056E0005B42BED0C3F1200746EA064602FA07F73E
:1056F0004FEA164646EA0706C3F1200722FA03F2EC
:1057000001FA07F721FA03F14FF0000342EA07021A
:10571000A7E746EA020646EA06464FEA164646EA82
:105720000106BCBF46EA0646360C4FF000034FF0B8
:1057300000024FF0000194E72DE9804C9A46934611
:1057400070B491E8380007C831EA400C48BF34EA29
:10575000430C03D5FFF7E6FDFFF780FFF0BCBDE883
:10576000008C2DE9804C9A46934670B491E838003D
:1057700007C810F0804F08BF13F0804F03D100F02E
:1057800005F8FFF76BFFF0BCBDE8008C20F07F4709
:1057900080EA030023F07F4C07EB0C03A3F57C5356
:1057A00000F00040A3F1FE0392F0000F00F0B38080
:1057B00095F0000F00F077802DE901494FEA114084
:1057C0004FEA144621EA004800FB06FC24EA06479B
:1057D00008FB06F607FB08F800FB07F718EB06487E
:1057E0004CEB164C4FEA124B18EB07484FEA1546A4
:1057F0004CEB174022EA0B4E0BFB06FC25EA064752
:105800000EFB06F607FB0EFE0BFB07F71EEB064E24
:105810004CEB164C4FF000061EEB074E4CEB174BB3
:1058200018EB0B0840F1000018EB0E0B58EB0008CA
:1058300040F100008F1A4FF000013CBFC943661BC6
:1058400014BFB5EB040C00213CBFC943F61B4FEA63
:1058500017444EEA8E0E27EA04454FEA1C4704FB24
:1058600007622CEA074C05FB07F70CFB05F604FB67
:105870000CFC16EB074642EB174216EB0C4642EBCC
:105880001C421BEB060658EB0202414146EA9E060B
:1058900001D5BDE80189B619524141EB0101A3F1DF
:1058A0000103BDE801894FEA14454FEA114724EA94
:1058B000054621EA074C05FB07F406FB07F70CFB3E
:1058C00006F105FB0CFC11EB074144EB17444FEAD2
:1058D000124711EB0C4144EB1C4422EA074C05FB38
:1058E00007F206FB07F70CFB06F605FB0CFC16EBB4
:1058F000074642EB174216EB0C4642EB1C456A1872
:1059000054F1000148BF7047B619524141EB010103
:10591000A3F10103704795F0000F37D04FEA114211
:105920004FEA144721EA024624EA074C02FB07F13A
:1059300006FB07F70CFB06F402FB0CFC14EB074418
:1059400041EB17414FEA154714EB0C4441EB1C4166
:1059500025EA074C02FB07F506FB07F70CFB06F6EA
:1059600002FB0CFC16EB074645EB174516EB0C4605
:1059700045EB1C42121951F1000148BF7047B6199E
:10598000524141EB0101A3F1010370474FEA144575
:105990004FEA114724EA054621EA074C05FB07F1C7
:1059A00006FB07F70CFB06F24FF0000605FB0CFCAC
:1059B00012EB074241EB174112EB0C4251EB1C4139
:1059C00048BF7047921841EB0101A3F101037047F2
:1059D000490050EAC12018BF04204A0D18BF40F00A
:1059E000010040F2FF72B2EB515F08BF40F00200CD
:1059F000012808BF052070472DE9F0414F1E00EB3C
:105A0000C7010446D1E9000115461E4637F00602DB
:105A10000DD02A46334600F0A9FD7F1E04EBC703D4
:105A2000D3E9002300F0CAFA37F00602F1D1022FC1
:105A300025D0042F13D0062F18BFBDE8F0812A46C9
:105A4000334600F093FDD4E90A2300F0B7FA2A4662
:105A5000334600F08BFDD4E9082300F0AFFA2A4664
:105A6000334600F083FDD4E9062300F0A7FA2A4666
:105A7000334600F07BFDD4E9042300F09FFA2A4668
:105A8000334600F073FDD4E9022300F097FA2A466A
:105A9000334600F06BFDD4E90023BDE8F04100F08F
:105AA0008DBA012201F06BBA00F088BA024A0020D8
:105AB000110701F064BA000001FDFFFF30380A2829
:105AC00001D2012070470020704700002DE9F84FF7
:105AD00004460D4621F0004000917349814211DCDB
