:020000040800F2
:10000000D0060020E9120008A9020008AB0200088F
:10001000AD020008AF020008B102000800000000B5
:10002000000000000000000000000000B302000813
:10003000B502000800000000B7020008B90200087D
:100040000313000803130008031300080313000838
:100050000313000803130008031300080313000828
:100060000313000803130008031300080313000818
:100070000313000803130008031300080313000808
:1000800003130008031300080313000803130008F8
:1000900003130008031300080313000803130008E8
:1000A00003130008031300080313000803130008D8
:1000B00003130008031300080313000803130008C8
:1000C00003130008031300080313000803130008B8
:1000D00003130008031300080313000803130008A8
:1000E00003130008031300080313000800F002F8CC
:1000F00000F03FF80AA090E8000C82448344AAF183
:100100000107DA4501D100F034F8AFF2090EBAE880
:100110000F0013F0010F18BFFB1A43F0010318473B
:100120005430000074300000103A24BF78C878C101
:10013000FAD8520724BF30C830C144BF04680C60ED
:10014000704700000023002400250026103A28BF35
:1001500078C1FBD8520728BF30C148BF0B60704739
:10016000642901F0A385002070471FB51FBD10B59D
:1001700010BD01F082FE1146FFF7F7FF00F01DF8F9
:1001800001F0A0FE03B4FFF7F2FF03BC01F0A8FEEC
:10019000027830490B789A420DD142784B789A42D6
:1001A00009D182788B789A4205D1C078C978884283
:1001B00001D101207047002070471CB501F048F8BC
:1001C00000F0DFFE002000F0F7FC00F074F900F012
:1001D000A8FF002120A2084601F01AF822A201215E
:1001E000002001F015F81B4C641E3025C62000F0DD
:1001F00072FF284600F0D9FF002320A219461846B6
:1002000000F07AFD1348001D00F067FB2070002805
:10021000ECD11048001DC2788178CDE900124378F6
:10022000027819A11B4801F0F9FC0023194A0221A8
:10023000184600F061FD0748001DFFF7A9FF4FF0C9
:10024000000308B114A200E015A20421002000F070
:1002500053FDCBE7010000202020202048454C4CD6
:100260004F2121212020200020202020202020207C
:10027000202020202020202000000000B6C1BFA8A0
:10028000D6D02E2E2E00000025642564256425641A
:100290000000000038000020412020202020200005
:1002A0004552524F520000007047FEE7FEE7FEE75E
:1002B000FEE7704770477047704700000CB500229A
:1002C0004C4800920192016841F4803101604FF482
:1002D000A063016801F4003101910099491C00916B
:1002E000019911B900999942F3D10168890333D575
:1002F0000121019140490A6842F010020A600A682F
:1003000022F003020A600A6842F002020A604168B1
:10031000416041684160416841F4806141604168E9
:1003200021F47C114160416841F4E81141600168A9
:1003300041F08071016001688901FCD5416821F0BC
:1003400003014160416841F0020141604168C1F32D
:1003500081010229FAD10CBD01920CBD254810B5CE
:10036000016841F0010101604168244A1140416087
:100370000168234A11400160016821F48021016075
:10038000416821F4FE0141604FF41F018160FFF7D5
:1003900095FF1C494FF00060086010BD154A10B56C
:1003A0005068194B10F00C01184803D0042901D0F3
:1003B000082901D0036012E05168536801F47011FC
:1003C0004FF0020413F4803F04EB914102D05368D4
:1003D0009B0301D50E4B00E00B4B59430160516864
:1003E0000A4AC1F30311121D515C0268CA4002603F
:1003F00010BD000000100240002002400000FFF885
:10040000FFFFF6FE08ED00E000127A000C0000206D
:1004100000093D0070B5FE4E0546002440213046DF
:1004200001F09DF828064FF02001304602D501F07A
:1004300094F801E001F093F84021304601F08DF886
:100440006806641C050EE4B2082CE7D33046BDE80C
:100450007040402101F081B870B57E2101EA400072
:10046000EB4E40F080048021304601F078F82046C1
:10047000FFF7D0FF002425466006040E40213046D9
:1004800001F06DF84021304601F067F81021304648
:1004900001F04FF808B144F001046D1CEDB2082DD5
:1004A000EAD34021304601F058F88021304601F06F
:1004B00054F8204670BD10B500F096FA00F05BFAD3
:1004C0000321142000F04CFA022000F0EFFE00F0AF
:1004D0003AFA0821084600F043FA3D21112000F0C5
:1004E00011FA8621172000F00DFA7F21262000F056
:1004F00009FA1E212D2000F005FA00212C2000F021
:1005000001FA8D212A2000F0FDF93E212B2000F078
:10051000F9F9142000F0B3FEBDE8104000F013BA62
:100520002DE9FF5F0025DDF838B017468A46814681
:100530004FF002082E460C2805D0B9F10E0F04D159
:100540001225102601E07725302645F08001022093
:1005500000F0D8F98021042000F002FA00210120E7
:1005600000F0D0F980210A2000F0E2F9002405E033
:100570001AF80410092000F0C5F9641CBC42F7D336
:100580004946012000F0BEF9B9F10C0F03D18021DA
:100590000D2000F0CDF94FF47A740420FFF75CFFD2
:1005A0000746641E03D0F80701D13742F5D08021F9
:1005B0000D2000F0D5F93CB10620FFF74DFF10F0FB
:1005C0001B0F0DD04FF0020880210C2000F0B0F975
:1005D0000021012000F096F904B04046BDE8F09FEC
:1005E0002F404FF00008F80701D04FF00108B9F193
:1005F0000C0FE9D10A20FFF72FFF05460C20FFF76B
:100600002BFF10F007004FEAC50101D00839014463
:10061000CBF8001025B1122D00D91225002408E0D6
:100620000125FBE70920FFF717FF01460398015555
:10063000641CAC42F6D3C7E710B53720FFF70CFFB8
:10064000922801D0002010BD012010BD30B50C460D
:100650000546082187B0084600F082F907210D20E1
:1006600000F050F90321142000F062F906A801AB54
:1006700000908DF80450012219460C20FFF750FF1E
:1006800010B90699102902D0022007B030BD9DF89C
:10069000041021709DF805106170F6E770B50646EC
:1006A000082188B00024084600F05AF900210D20E6
:1006B00000F028F980210E2000F052F993208DF8E7
:1006C000040020208DF8050006A801AB009002224E
:1006D00019460C20FFF724FF05000DD1002101A8C9
:1006E000425C7254425C491C5440C9B20429F7D39D
:1006F000405CA04200D0022580210E2000F018F9B5
:10070000284608B070BD2DE9F0410E460746154653
:100710000421052000F024F90021012000F0F2F866
:1007200080210A2000F004F9002405E0395D092049
:1007300000F0E8F8641CE4B2B442F7D303210120CE
:1007400000F0E0F8FF240520FFF786FE641E14F099
:10075000FF0401D04007F6D52220FFF77DFE287068
:100760002120FFF779FE6870BDE8F08110B588B0F0
:1007700093218DF8041070218DF8051000218DF85B
:100780000A1001AA5418435CA370445C9DF80A3017
:10079000491C6340C9B28DF80A300429F2D30721FD
:1007A00001A8D21DFFF7AFFF0821084600F0D8F8D6
:1007B00006A801AB0090092219460C20FFF7B0FEF5
:1007C00010B90699182900D0022008B010BD10B544
:1007D00088B08DF804008DF805101068CDF806007B
:1007E0009088ADF80A001868039006A801AB009045
:1007F0000C2219460E20FFF793FE040004D10820B6
:10080000FFF72AFE000700D402242046DDE700009F
:100810000008014030B587B00C4630218DF8041037
:1008200001AD8DF8050002212846AA1CFFF76BFFD9
:1008300006A801AB0090042219460C20FFF770FEB9
:1008400010B90699902901D002201EE70023E95C27
:10085000E1545B1CDBB2102BF9D316E770B588B0FE
:100860000C46A0218DF8041001AD8DF80500022181
:100870002846AA1CFFF747FF06AE01AB0422194623
:100880000C200096FFF74CFE28BB0698042822D1C6
:100890009DF8040000F00F000A281CD10020215C04
:1008A0002954401CC0B21028F9D305AA102101A870
:1008B000FFF729FF01AB122219460C200096FFF723
:1008C0002FFE40B90699042905D19DF8041001F0C6
:1008D0000F010A2900D0022013E738B50446694603
:1008E0005220FFF7B3FE58B92046FFF7D7FE38B9BC
:1008F000642000F0DBFC2046FFF738FF002800D022
:10090000022038BD70B50D467E2101EA4004534EE9
:100910008021304600F023FE2046FFF77BFD28466D
:10092000FFF778FD3046BDE87040802100F015BE2D
:1009300070B50C460546FFF78FFD40EA04012846D6
:10094000BDE87040DEE710B51420FFF785FDC04319
:10095000800704D00321BDE810401420E8E710BD53
:1009600070B50C460546FFF777FD20EA04012846DE
:10097000BDE87040C6E710B5384C0821204600F0AD
:10098000ECFD052000F07BFC0821204600F0E7FD8F
:10099000052000F074FC0821204600F0DEFD052053
:1009A00000F06DFC0F210120FFF7ACFF0120FFF7E5
:1009B00053FDC006FAD43D211120FFF7A3FF1E21ED
:1009C0002D20FFF79FFF00212C20FFF79BFF8D219B
:1009D0002A20FFF797FF3E212B20FFF793FF4021AE
:1009E000BDE8104015208DE738B50121042000F046
:1009F00032FF03208DF8020010248DF803400820F8
:100A0000164DADF800006946284600F03CFD202157
:100A1000ADF800106946284600F035FD4020ADF8DD
:100A200000006946284600F02EFD8020ADF8000049
:100A30006946284600F027FD04208DF80300ADF834
:100A400000406946284600F01EFD4021284600F07F
:100A500084FD8021284600F080FD38BD000801405B
:100A60000020401CC0B20A28FBD37047FF4900B5E4
:100A70000120C1F8A401C1F8A00101F5D071FFF770
:100A8000EFFF00224A60FFF7EBFF0A605DF804EB1E
:100A9000E6E7F64900B50020C1F8A4010122C1F83B
:100AA000A02101F5D071FFF7DBFF4A6000BDEF4ADE
:100AB00000B50121C2F8A411FFF7D2FFC2F8A011BE
:100AC000FFF7CEFFD2F8240108B1012100E0002198
:100AD0000020C2F8A001FFF7C3FF084600BD30B5F3
:100AE0000021E24B02460D460124D00902D0C3F892
:100AF000A44101E0C3F8A451FFF7B2FF5006020E73
:100B0000C3F8A041FFF7ACFFC3F8A051072901D1FA
:100B1000C3F8A441FFF7A4FF491CC9B20829E4D3D4
:100B200030BD30B50C460546FFF7A0FF7820FFF733
:100B3000D6FFFFF7BCFF0CB1402000E00020FFF71C
:100B4000CEFFFFF7B4FF2846FFF7C9FFFFF7AFFF5F
:100B5000BDE830409DE710B50446B031C8B2002171
:100B6000FFF7DFFF102040EA14100021FFF7D9FF44
:100B700004F00F00BDE8104040F001000021D0E774
:100B800000B500218D20FFF7CCFF00211420FFF7D6
:100B9000C8FF0021AF205DF804EBC2E700B50021DB
:100BA0008D20FFF7BEFF00211020FFF7BAFF0021C4
:100BB000AE205DF804EBB4E730B5002505F1B000D8
:100BC000C0B20021FFF7ADFF00210846FFF7A9FFE3
:100BD00000211020FFF7A5FF002401210020FFF7CE
:100BE000A0FF641CE4B2802CF7D36D1CEDB2082D7D
:100BF000E4D330BD2DE9F041203A00241E468C4656
:100C00008046D5B27F2805D9002001F1020C80462C
:100C10000CF0FF0C6146FFF79EFF954F04EB0510AB
:100C2000012E385C01D1C043C0B20121FFF779FF2A
:100C3000641CE4B2082CF1D30CF1010C0CF0FF01A0
:100C40004046FFF788FF002404EB05103844012ECE
:100C5000007A01D1C043C0B20121FFF762FF641CDA
:100C6000E4B2082CF0D3BDE8F0810346012000E097
:100C70005843491EC9B2FBD27047F0B51E468446A0
:100C80007B4C002013780F46B43C00EBC00104EB12
:100C90008105296A91F800E09E4528D1497892F8AB
:100CA00001E0714523D139466046FFF754FF002427
:100CB000285D0EB1C043C0B20121FFF732FF641CB2
:100CC000E4B2102CF4D37F1CF9B26046FFF743FF67
:100CD000002405EB0400007C0EB1C043C0B201212A
:100CE000FFF71FFF641CE4B2102CF2D3F0BD401CD0
:100CF00080B20528C9D3F0BDF8B5044600201F46D0
:100D000015460E4600901FE0100610D58DF8002005
:100D100068788DF801003B466A4631462046AD1C96
:100D2000FFF7ABFF1034E4B2702C0DD909E03B465D
:100D3000314620466D1CFFF75DFF0834E4B2782C85
:100D400002D9B61CF6B200242A78002ADCD1F8BDFC
:100D50002DE9F0431F4694460E4681460025DDF8F6
:100D60001C8011E031464846FFF7F5FE4C4607E08F
:100D700018F8050001216D1CFFF7D3FE641CE4B2D6
:100D80006445F5D3761CF6B2BE42EBD3BDE8F083E2
:100D900070B515460E4604460CE000233146204649
:100DA000FFF728FF0834E4B26D1C782C02D9002428
:100DB000B61CF6B22A78002AEFD170BD2DE9F043B7
:100DC0001D4616468946074600244FF00A0816E0DD
:100DD000281B401EC1B20A20FFF747FFB6FBF0F107
:100DE000B1FBF8F208FB12103030C2B207EBC400BE
:100DF000C0B200234946FFF7FDFE641CE4B2AC42DA
:100E0000E6D3C3E708B502EBC203194AB43A02EBD2
:100E10008302126A13788DF8003052788DF8012021
:100E200000228DF8022013466A46FFF726FF08BD10
:100E30002DE9F04188B01C220EA1684600F072FF37
:100E40000121082000F007FD4FF48075ADF81C501B
:100E50001026DFF83C808DF81F6003278DF81E7088
:100E600007A9404600F00FFB6C0013E00080214210
:100E7000742B0008AE2010B0C800104081DFA1A67E
:100E8000A83FA4D300D5F0D922DA12DB208D14AF0D
:100E9000000C0140ADF81C408DF81F608DF81E70ED
:100EA00007A9404600F0EFFA2946404600F055FBFE
:100EB0002146404600F051FB642000F0F7F9002481
:100EC0006D460021285DFFF72CFE641CE4B21C2C4B
:100ED000F7D30020FFF770FE08B0C4E62DE9F0411B
:100EE000684C0F4606460121204600F09BFD664DEA
:100EF0002046294600F04BFE0028F9D00022402170
:100F0000204600F0D6FD614D2046294600F03FFE08
:100F10000028F9D03146204600F0C6FD5B4DAD1EDD
:100F20002946204600F033FE0028F9D039462046F5
:100F300000F0BAFD554DAD1C2946204600F027FEB5
:100F40000028F9D02046BDE8F041012100F074BD31
:100F500010B50C2101F076FD01464D4801F014FC5E
:100F600001F0D4FC401EC4B210210020FFF7B6FFF0
:100F70002146FE20FFF7B2FF8021BDE8104000208F
:100F8000ACE710B586B00121082000F064FC012117
:100F9000880500F069FCC020ADF810001C208DF819
:100FA000130003208DF8120004A93A4800F06BFAF0
:100FB0000020ADF80400ADF808004FF48060ADF8F3
:100FC0000A000001ADF80C004BF6FF714FF47A7087
:100FD0002C4CADF8061000906946204600F09DFCB0
:100FE0000121204600F000FD2B48FFF7B1FF002152
:100FF0000846FFF773FF04210120FFF76FFF06B0DB
:1010000010BD70B5044606200E4600EB8400154660
:10101000C9B2C0B2FFF762FF072000EB8400310ABB
:10102000C0B2FFF75BFF082000EB8400E9B2C0B25A
:10103000FFF754FF290A092000EB8400BDE8704047
:10104000C0B24BE710B501F06DFB0022134B01F06D
:1010500029F80022124B01F07DF90022114B00F01B
:1010600079FF00F045FF01F051FC80B210BD10B5D2
:1010700004460846FFF7E6FF02462046BDE810405A
:101080000021BEE700580040010003008200070075
:1010900020BCBE4B000C01400000484200E0704004
:1010A00000A07940008059402DE9F041654E054689
:1010B000304600F04FFA644F10B1384600F04AFA5B
:1010C0002C462146304600F051FA21463846BDE80C
:1010D000F04100F04BBA70B55C4C06464FF400513D
:1010E000204600F03CFA4FF48041204600F037FAE9
:1010F0004FF400452946204600F031FA3046FFF70C
:10110000D3FF012000F0D2F82946204600F025FA4E
:10111000052000F0CBF829462046BDE8704000F0DD
:101120001EBA38B501211C2000F095FB4FF4005089
:10113000ADF8000010208DF803000320434C8DF81B
:1011400002006946204600F09EF94FF48041ADF858
:1011500000106946204600F096F94FF40041ADF8C2
:1011600000106946204600F08EF94FF41F40ADF89C
:1011700000006946334800F086F94FF46040ADF84E
:1011800000006946304800F07EF93820FFF7A3FFE1
:101190000C20FFF7A0FF0620FFF79DFF0120FFF7BF
:1011A0009AFF8020FFF797FF38BD70B5274C0646A1
:1011B0004FF40051204600F0D0F94FF48041204612
:1011C00000F0CDF94FF400452946204600F0C7F95C
:1011D0003046FFF769FF012000F068F829462046F5
:1011E00000F0BBF9052000F061F829462046BDE873
:1011F000704000F0B4B910B5144639B1C030C0B277
:10120000FFF769FF2046BDE81040CEE78030F6E7E3
:1012100010B5144621B1C030C0B2FFF75CFF04E046
:101220008030F9E7FFF7C1FF641C20780028F9D16E
:1012300010BD10B50120FFF74EFFBDE8104005209E
:1012400000F034B800080140000C014000100140DB
:1012500010B56FF0040000F0ACF820482049006899
:10126000B0FBF1F01F49C0B200EB40020870C2EBC6
:10127000C0104FF6FF7202EAC000488010BD194945
:10128000097848434FF0E021486100238B610869E9
:1012900040F0010008610869C20701D0C003FAD517
:1012A000086920F0010008618B6170470D49498889
:1012B00048434FF0E021486100238B61086940F00A
:1012C000010008610869C20701D0C003FAD50869A6
:1012D00020F0010008618B61704700000C000020C5
:1012E00000127A0020000020094880470948004782
:1012F000FEE7FEE7FEE7FEE7FEE7FEE7FEE7FEE7C6
:10130000FEE7FEE704480549054A064B7047000022
:101310005D030008ED000008D0000020D00600208A
:10132000D0020020D0020020284908432849086044
:10133000704730B50F23C27801780125F2B1244AF5
:10134000126801F1E02102F4E062C2F5E062120AE3
:10135000C2F10404D3404278A24084781C40144374
:10136000220181F80024007800F01F018D4040091F
:10137000800000F1E020C0F8005130BD01F01F00F6
:1013800085404809800000F1E020C0F8805130BD60
:10139000104A114001430E48001F016070470C4A7B
:1013A000121D0029116801D0014300E08143116042
:1013B00070474FF0E0210428086903D020F00400B2
:1013C0000861704740F00400FAE700000000FA05E9
:1013D0000CED00E080FFFF1F8F4910B5884206D159
:1013E0000121042000F049FA002104203BE08B4950
:1013F000884206D10121082000F03FFA0021082090
:1014000031E08749884206D10121102000F035FAE9
:101410000021102027E08349884206D101212020A5
:1014200000F02BFA002120201DE07F49884206D1E0
:101430000121402000F021FA0021402013E07B49E7
:10144000884206D10121802000F017FA0021802077
:1014500009E0774988420AD184150121204600F02D
:101460000CFA00212046BDE8104000F006BA10BD7D
:1014700010B50121084600F000FA0021BDE8104037
:10148000012000F0FAB9F0B5CC78002204F00F0387
:10149000E40601D58C7823430C784FF00F0C14F040
:1014A000FF0F4FF0010E1BD005680E880EFA02F4F4
:1014B0002640A64210D196000CFA06F725EA070747
:1014C00003FA06F5CE783D43282E02D0482E02D0EE
:1014D00002E0446100E00461521C082AE5D3056083
:1014E0000A88FF2A1CD94468002202F108060EFA75
:1014F00006F50E882E40AE420ED196000CFA06F785
:10150000BC4303FA06F7CE783C43282E00D1456150
:10151000CE78482E00D10561521C082AE5D34460DC
:10152000F0BD4FF6FF710180022181700421C1706E
:1015300070470246002092680A4200D0012070479E
:10154000806880B2704702460020D2680A4200D00C
:1015500001207047C06880B27047016170474161E7
:1015600070470AB10161704741617047C1607047BF
:1015700041F4803282618161826181698069704752
:101580002C4B10B51A684FF68074224042EA0010C6
:101590000843186010BD2849C8617047F0B5254C54
:1015A000002801DAE36900E06368450D2E0185B289
:1015B000C0F30157B540C0F30342032F05D0C60264
:1015C0000AD503269640B34307E023F070626368B0
:1015D00023F07063636002E0AB4343F0706201B1DB
:1015E0002A43002801DAE261F0BD6260F0BD10B567
:1015F0008A0721F003040F49120F21440F238C683E
:1016000093409C438C608B68904003438B6010BD7B
:101610000949C1F8DC00704700080140000C014096
:10162000001001400014014000180140001C01405E
:10163000002001400000014000002042A548016850
:1016400041F0010101604168A34A11404160016815
:10165000A24A11400160016821F4802101604168C3
:1016600021F4FE0141604FF41F01816070479949E8
:101670000A6822F480320A600A6822F480220A6032
:10168000B0F5803F07D0B0F5802F03D1086840F453
:10169000A02008607047086840F48030F9E70346EE
:1016A000002059098B4A01290AD002290AD0516A1F
:1016B00003F01F02012393400B4200D0012070472A
:1016C0001168F5E7116AF3E718B500204FF4A0643C
:1016D00000903120FFF7E3FF0099491C0091A142DF
:1016E00001D00028F5D03120FFF7D9FF002800D025
:1016F000012018BD774A116821F0F80141EAC000C5
:1017000010607047764908607047724B5A6808430A
:1017100022F47C1210435860704771490866704784
:101720006C4A516821F003010143516070476948D8
:10173000406800F00C007047664A516821F0F001E3
:10174000014351607047634A516821F4E0610143ED
:10175000516070475F4A516821F4605141EAC0000E
:10176000506070475B4A0029517A01D0014300E084
:101770008143517270475A49C1F8D8007047554AA1
:10178000516821F4404101435160704751490022A2
:1017900081F8202081F82020012802D0042802D1DD
:1017A000052081F8200070474E490860704749497C
:1017B0000A6A02430A6270474A494439086070471E
:1017C00030B5444A5168484B11F00C0103D004294C
:1017D00001D0082901D0036012E05168536801F478
:1017E00070114FF0020413F4803F04EB914102D0DA
:1017F00053689B0301D53D4B00E03B4B59430160CF
:1018000051680F2303EA1111394B5C5C0168E14018
:1018100041605468072505EA14241C5D21FA04F48C
:101820008460546805EAD4241B5DD940C1605268C5
:10183000032303EA92322E4B1B1F9A5CB1FBF2F199
:10184000016130BD234A0029516901D0014300E004
:101850008143516170471F4A0029916901D00143BA
:1018600000E08143916170471A4A0029D16901D093
:10187000014300E08143D1617047164A0029D168D5
:1018800001D0014300E08143D1607047114A002933
:10189000116901D0014300E0814311617047114992
:1018A0004039086070470E49C86470470949C871DB
:1018B00070470848416A41F0807141627047054AAB
:1018C0000146002092680A4200D001207047014979
:1018D00088727047001002400000FFF8FFFFF6FE1C
:1018E000000042428004424200127A0000093D009A
:1018F00028000020C64910B588424FF0010101D1EF
:101900004C0501E04FF480042046FFF7BFFF20465E
:10191000BDE810400021FFF7B9BF70B504468088CC
:1019200086B00D4620F03F066846FFF749FFB949EB
:101930000298B0FBF1F189B20E43A680228822F012
:1019400001022280B44B2A689A421CD85200B0FB94
:10195000F2F080B2042800D20420491C2184A08324
:10196000208840F00100208020884FF6F5310840A3
:10197000A9886A89114301432180A88929890843DC
:10198000208106B070BDEB88A3F53F46FF3E0BD02B
:1019900002EBC20303EB0212B0FBF2F080B240F4A0
:1019A0008040020506D007E002EB4202B0FBF2F0F5
:1019B00080B2F6E740F001004FF4967251434FF4C5
:1019C0007A72B1FBF2F140F40040C6E741F288318F
:1019D0000160002181804BF6FF72C280018141814C
:1019E0004FF48041818170470029018802D041F085
:1019F000010101E021F00101018070470029818887
:101A000002D041F4006101E021F40061818070475F
:101A10000029818802D041F4805101E021F48051F5
:101A2000818070470029018802D041F4807101E073
:101A300021F48071018070470029018802D041F4AF
:101A4000007101E021F400710180704700290188D4
:101A500002D041F4806101E021F48061018070478F
:101A6000828901F0FE0122F0FE021143818170475C
:101A70000029818902D041F0010101E021F001013A
:101A8000818170470029018802D041F0400101E0C6
:101A900021F0400101807047002A828801D00A436A
:101AA00000E08A438280704701827047008AC0B29A
:101AB000704712B141F0010101E001F0FE01018225
:101AC000704708B508440090008808BD00290188C7
:101AD00002D041F4004101E0C1F30E0101807047E2
:101AE000B1F5006F018803D021F4006101807047D7
:101AF00041F40061FAE7B1F5005F018803D021F4F9
:101B000000510180704741F40051FAE70029018833
:101B100002D041F4805101E021F4805101807047EE
:101B2000B1F5006F018803D021F400610180704796
:101B300041F40061FAE70029018802D041F0200158
:101B400001E021F0200101807047008B000A7047FE
:101B50000029018802D041F0100101E021F01001BC
:101B6000018070470029018803D021F080010180A5
:101B7000704741F08001FAE7B1F5804F818B02D0C8
:101B800021F4804101E041F48041818370470346A4
:101B900000209A8A1B8B42EA034222F07F42914343
:101BA00000D101207047818A008B41EA004121F079
:101BB0007F4070470CB50246002000920A0F21F0CA
:101BC0007F41019202D0009A143202E0009A090C7F
:101BD0001832009212680A4200D001200CBDC9439D
:101BE0008182704710B5034600209A884FF4E06464
:101BF00004EA11449B8A224021F07F410B4202D02B
:101C0000002A00D0012010BDC94381827047000026
:101C10000054004040420F00A08601000FB41CB5E4
:101C2000074B06AA7B4469460090059800F00DF921
:101C30000020694600F01CF91CBC5DF814FB000094
:101C4000490200002DE9F0410E46044600202062C2
:101C50002046E168884730B3252805D0D4E9012122
:101C60009047206A401CF2E7E16820460027884739
:101C7000050018D0A5F14100192802D820354FF4ED
:101C800000673246294620462760FEF769FA40B1D0
:101C9000012804D0F61D26F007060836D8E7361DC1
:101CA000D6E72846DAE7206ABDE8F0812DE9F04161
:101CB0000646002410687529314616A510D0AFF3EA
:101CC0000080002802DA404213A507E031688A0745
:101CD00001D512A502E0490704D511A5012401E0B0
:101CE000AFF3008000210A2206F1240709E0B0FBCF
:101CF000F2FCB0FBF2F302FB1C00303078541846C3
:101D0000491C0028F3D123462A463046BDE8F0415D
:101D100000F03DB8000000002D0000002B00000086
:101D20002000000010B5203AC0F00B80B1E8185038
:101D3000203AA0E81850B1E81850A0E81850BFF4B5
:101D4000F5AF5FEA027C24BFB1E81850A0E8185054
:101D500044BF18C918C0BDE810405FEA827C24BFA8
:101D600051F8043B40F8043B08BF7047D20728BF36
:101D700031F8023B48BF11F8012B28BF20F8023B85
:101D800048BF00F8012B70477047704770472DE936
:101D9000F0470D4699469246044600F12408016832
:101DA000880604D5E06921F01001216000E00120DF
:101DB000A84201DD471B00E00027A1697A1902EB68
:101DC0000900081AA0612078C00602D42046AFF3AB
:101DD0000080002608E0D4E901211AF806009047A7
:101DE000206A401C761C20624E45F4DB2078C00639
:101DF0000AD52046AFF3008006E0D4E90121302067
:101E00009047206A401C2062381EA7F10107F4DCCD
:101E100007E0D4E9012118F805009047206A401C2A
:101E20002062281EA5F10105F3DC2046AFF30080F7
:101E30002078000602D50220BDE8F0870120FBE7EC
:101E400001694A1C02610878704700B58FB0CDE97E
:101E500001310021059105497944CDE9031011466E
:101E60006846FFF7EFFE0FB000BD0000E5FFFFFF83
:101E70000A6802F8010B0A607047754600F02CF8FA
:101E8000AE4605006946534620F00700854618B067
:101E900020B5FFF737FABDE820404FF000064FF0BD
:101EA00000074FF000084FF0000B21F00701AC468F
:101EB000ACE8C009ACE8C009ACE8C009ACE8C009AE
:101EC0008D46704710B50446AFF300802046BDE84C
:101ED0001040FEF757B90000004870476C00002022
:101EE00001491820ABBEFEE7260002007047000043
:101EF00021F00042A2F16052B2F5801F01F00043D0
:101F000028BFD2F17F6C0BD95FEA001C43EAC20202
:101F100042EB507018BF704728BF20F00100704797
:101F2000B2F5801FBCBF184670474FEA410C1CF544
:101F3000001F02D2084600F04EBD70B500F0B4FAA2
:101F400000000089FFF7F6BF4FF00040A0F58000C9
:101F50007047000010B591EA030F48BF83F00043BB
:101F600000F1FE82841A71EB030C05D2121943EBC7
:101F70000C03001B61EB0C01DFF824E14FEA115464
:101F8000A4EB135C1EEA430F18BF9EEA445F73D0B4
:101F900023EA0E03DCF1200E21EA045143F48013FE
:101FA00032D322FA0CFE10EB0E0023FA0CFE41EBAA
:101FB0000E01CCF1200E03FA0EFE10EB0E0051F1D3
:101FC0000001B1F5801FCCF1200E32D201EB04519B
:101FD00012FA0EF2BDE8104058BF7047401C38BFDF
:101FE0005FEA420218BF7047002814BF20F00100CA
:101FF00041F100014FEA410313F5001F38BF70475C
:10200000A1F1C04100F09EBA012A43EB0302ACF1FA
:10201000200CDCF11F0E32BF4FF0000E23FA0CF340
:1020200010EB030041EB0451B4EB115FD0D0A1EBF6
:10203000045101F5801149085FEA300001EB0451B9
:102040000ED350F1000038BF12FA0EFE08D1BDE8E1
:102050001040C9E7401C38BF5FEA4202CAD1C3E75B
:10206000BDE810404FEA410313F5001F38BF704729
:10207000A1F1C04100F066BA9EEA445F08D011EABF
:102080005E0FBDE8104004BF01F000410020704722
:10209000BDE8104070B500F007FA00BF64FBBE3E1B
:1020A0000000E0FF2DE9C04130B4DFF8A0C23CEAF7
:1020B000111418BF3CEA131400F0EC8081EA030508
:1020C0001CEA111444EAD57418BF1CEA131500F079
:1020D000C780A4EB05044FF0004545EAC12145EA5D
:1020E000C32341EA505143EA525304F17F749942A9
:1020F00004F500344FEAC0204FEAC22208BF9042E4
:1021000000F09C804FEA13650FF24016765D4FEAAF
:10211000134506FB05F7C7F1807706FB07F74FEA83
:10212000D737A7FB03687642C8F58038A7FB06CEF1
:1021300038BFA8F1010807FB08E64FF0000EA6FB28
:10214000028CE6FB03CEDCF1000CCEF1004E38BF72
:10215000AEF1010EA6FB0C584FF000074FF0000542
:10216000E6FB0E87A1FB08C6A0FB07CE16EB0E060A
:1021700045F10005E1FB076515F1E04E7EBFA4F5D2
:1021800080345FEA46066D4116F1800745F100058F
:102190004FEA17274FEA066647EA0567A6F1DE46CB
:1021A000B6F1805F4FEA15251FD9384624F0010C9F
:1021B00005EBC471BCF1FE6F01EB0C1102D8F0BC51
:1021C000BDE8008124425CBF01F5801E9EEAC47F09
:1021D00002D4F0BCBDE80081244238D4F0BCA1F1A7
:1021E000C041BDE8004100F0ADB94FEAD22242EA59
:1021F00043524FEAD323A7FB02864FEAD02040EA9E
:10220000415007FB03661EEA0E0F4FEAD12105FB82
:10221000026658BFA6EB0056B6EB00564FEA520EC8
:102220004EEAC37E18EB0E0E56EB530EBDD518EBDF
:1022300002085E417F1C55F10005B6E74FF480159A
:102240004FF000074FF000064FF00008ADE7F0BC7C
:102250004FF0000001F1C04101F00041BDE80081F4
:1022600011EA0C1F0CEA131500D00CE013EA0C1F46
:1022700000F025804FF00000F0BC81EA030101F07E
:102280000041BDE80081F0BCBDE8004181EA0301E6
:1022900000F058B9F0BCBDE8004170B500F004F999
:1022A000097EFC3E00F007B881EA03014FF0000010
:1022B00001F00041704781EA030100F043B9F0BC2E
:1022C000BDE800414FF0000021497047FFFDFBF9D8
:1022D000F7F5F4F2F0EEEDEBE9E8E6E4E3E1E0DE59
:1022E000DDDBDAD8D7D5D4D3D1D0CFCDCCCBCAC8CB
:1022F000C7C6C5C4C2C1C0BFBEBDBCBBBAB9B8B7F2
:10230000B6B5B4B3B2B1B0AFAEADACABAAA9A8A8E4
:10231000A7A6A5A4A3A3A2A1A09F9F9E9D9C9C9BB2
:102320009A9999989797969595949393929191905D
:102330008F8F8E8E8D8C8C8B8B8A898988888787EE
:102340008685858484838382828181800000FF0763
:102350000000F87FDFF848C170B51CEA111E1EBFEF
:102360001CEA13159EEA0C0F95EA0C0F00F06F8023
:1023700081EA030423EA4C134EEAD47E21EA4C118D
:1023800041F4801143F48013AE44A1FB024CA0FB46
:102390000365AEF17F7E361955EB0C05A1FB034CAE
:1023A0004CF10003A0FB021C16EB0C06654153F137
:1023B0000003094218BF46F0010613F4007F0BD159
:1023C0004FEA03314FEA0530340341EA155140EA40
:1023D00016506FF003020AE04FEAC3214FEAC5200E
:1023E000F40241EA555140EA56506FF0020202EB06
:1023F0002E4201EB025585EACE710AD05FEA440C09
:1024000018BF24F0004450F1000041F1000120EA1F
:10241000D47040F2FE7C624500D270BDA84214BF69
:102420004FF080444FF04044002E08BF0024BEF11E
:10243000806FA8BFA1F1C041BDE8704080F28280EA
:102440004FF0000001F1C04101F0004170479EEAE9
:102450000C0F0CEA131518BF95EA0C0F06D04FF0BD
:10246000000081EA030E0EF0004170BD00F01CF880
:102470008900013E00F007B800F009B84FEA430CAC
:102480005FEA5C5C08D081EA030100F05BB84FEAC8
:10249000410C5FEA5C5CF6D14FF0000001497047E7
:1024A0000000FF070000F87F0EF1020E2EF0030E71
:1024B0005EF8046B364205D4012A43EB030515F59B
:1024C000001F12D8012841EB010C1CF5001F0CD88D
:1024D0000ED14FEAD17C15F5001F0CEB4C0C0CF122
:1024E000020C08BF4CEBD37C04E04FF0080C01E079
:1024F0004FEAD37C0CEB4C0526FA05F606F00706EE
:10250000B6F1040C06D20EEB860CBDE870404CF020
:10251000010C6047DFE80CF0090B02024FF00041AC
:102520004FF00000A1F5002170BD194610460128AA
:1025300051EB010418BFD4F5001484BF002001F052
:10254000004170BD0808A0F500114FEA3101704745
:1025500010B591EA030F48BF83F000433FF502AD89
:10256000841A71EB030C07D212198CF0004C43EB68
:102570000C03001B61EB0C01DFF8A4E14FEA1154DE
:10258000A4EB135C1EEA430F18BF9EEA445F00F001
:10259000B08023EA6E03524221EA0451C3EB6E037A
:1025A00038BF5B1EDCF1200E25D322FA0CFE10EBA7
:1025B0000E0043FA0CFE41EB0E01CCF1200E03FAA3
:1025C0000EFE10EB0E0051F10001CCF1200E29D4CB
:1025D00012FA0EF201EB0451BDE8104058BF7047EB
:1025E000401C1CBFB2F1004F704700280CBF491CB3
:1025F00020F00100704712EB020E43EB030218BFFC
:102600004FF0010E4EEA4202ACF1200CDCF11E0E3E
:1026100054D943FA0CFE10EB0E0051F1FF31CCF10E
:102620001E0ED5D50EF1010E12FA0EFE404141EB01
:10263000010101EB445C5FEA5C5C10D910EBDE70D9
:1026400001EB045138BFBEF1004FBDE8104018BF88
:10265000704700280CBF491C20F00100704730D2A1
:102660004FEAD42C11F5001124F400641BD0B1FA08
:1026700081F20B3AA41AA41ED2F12003914030FA41
:1026800003F31943904001EBCC71002C01EB045192
:10269000BDE81040A8BF704701F1C0414FF00000F5
:1026A00001F000417047B0FA80F310FA03F100D155
:1026B00010BDE41A173C4805C90AE4E701EB0451D0
:1026C00010BD491001EB0451BDE810404FEA300045
:1026D00002E04FF0000170474A0008BF0042F8D006
:1026E000B2F5001F28BF704701F000414FF0000015
:1026F00070479EEA445F07D011EA5E0FBDE81040C4
:1027000004BF002100207047BDE8104070B5FFF7FE
:10271000CBFE00BF40DFF63E83F00041104670471D
:102720000000E0FF43004FEAD30C4FEA3C0C43406B
:102730001FBF40070CF1605113F0FE4F70471CF0B3
:10274000006F03D100200CF0004170470CF00043F3
:1027500043EA507010B540EACC0000F0F6F800BF34
:10276000000000924FEA0001FFF7ECBE4FF000417D
:102770004FF00000A1F5002170470000014800F073
:102780002FB900BF0000C07F4FF47F0C1CEAD012AD
:102790001EBF1CEAD11392EA0C0F93EA0C0F00F053
:1027A000858090EA010F48BF42F4807240F4000C2B
:1027B00041F400002CF07F4120F07F4000B58142C1
:1027C000A2EB03020FF2081CACEB504EC0F100006C
:1027D0009EF800E04FEA4E0E00FB0EFC38BF4900A9
:1027E0004FEA2C1C02F5FA020CFB0EF34FEACE1E48
:1027F0004FEA112C4FEAC1210EEB635E42EB2242FD
:102800000EFB0CFC4FEA1C5300FB03114FEA112C8A
:102810004FEA01310EFB0CFC4FEADC4C00FB0C11C3
:10282000C14228BF09184CEB03335DF804EB10EBF1
:10283000410143EBC250B2F57C0F38BF704729D538
:1028400012F0F00F1CBF00F1C04000F000407047D4
:10285000008182838485868788898B8C8D8E8F9179
:102860009293959697999A9C9D9FA0A2A3A5A7A89D
:10287000AAACAEB0B2B3B5B7B9BCBEC0C2C5C7C9C9
:10288000CCCED1D4D7D9DCDFE2E6E9ECF0F3F7FA2D
:10289000FE0000004FEA400C0CF1807CBCF17E4F42
:1028A00028BF7047B0F1C04000F095B890EA010F22
:1028B0000CEAD11348BF42F48072624538BF6345C9
:1028C00007D213F47F0F16D080EA010000F0004019
:1028D000704710B500F039F8097EFC3E00F005B8ED
:1028E00080EA010000F00040704780EA010000F03B
:1028F000004000F070B812F47F0F04BF0248704728
:1029000080EA010000F067B80000C07FC10DD1F17E
:102910009E0206DB4FEA002343F0004323FA02F055
:102920007047004207D54FEA4001B1F1FE4F02D295
:102930004FF00000704710B500F007F8499224806E
:10294000002070476FEA200070470EF1020E2EF053
:10295000030E5EF8044B244204D44FEA4102B2F164
:102960007F4F11D84FEA4003B3F17F4F0CD80ED1FF
:102970004FEAD07CB2F17F4F0CEB4C0C0CF1020C07
:1029800008BF4CEBD17C04E04FF0080C01E04FEAAB
:10299000D17C0CEB4C0324FA03F404F00704B4F1EB
:1029A000040C06D20EEB840CBDE810404CF0010C78
:1029B0006047DFE80CF0070802024FF00040A0F586
:1029C000800010BD0846420018BFD2F1807288BF57
:1029D00000F0004010BDFF2141EAD050C005704713
:1029E0000CF00F03092B08BF082000F051800A2BC0
:1029F0000BD0082B18BF704708BF1CF0400F0AD03F
:102A00004FF000004FF0000170471CF0400F18BF5E
:102A10004FF0004070471CF0100F08D020F07043BA
:102A200000F07F4242EAD3014FEA4370704700F062
:102A3000604021F07F4242EA000201F07F4040EA1C
:102A4000727070474FF0FF0212EAD0521CBF92F032
:102A5000FF038B42C2BFD14200EBC1507047002A36
:102A60000AD0002B0BD0002900F00040A4BF40F09A
:102A7000FE4040F40000704700F000407047430201
:102A80004FF00B0C18BF4CF0806C7FF477AE7047A2
:102A90001CF4801F11D01CF4E02F03D06FEACC315E
:102AA000490070474FF04050EFF3008222F070422F
:102AB00042EA000282F3008870474FF0000070473E
:102AC000404042CC00002024A4243FA424A4600061
:102AD0000000007F2010888A4C29180F1828C80091
:102AE00068310008404040404040FF444444444472
:102AF00044404000000000000000FF000002040805
:102B000010000000643100080000F010101010FFE9
:102B100010101010F000000000000F04040404FF67
:102B2000040404040F0000007031000840404040DD
:102B30004040FF44444444444440400000000000FE
:102B40000000FF00000204081000000064310008CB
:102B5000808080BEA2A2A2A2A2A2A2BE808080008B
:102B600000000006050404044484443C0000000006
:102B70006C310008000000000000000000000000B0
:102B800000000000000000F800000000000000331A
:102B90003000000000100C06100C060000000000C1
:102BA0000000000040C07840C0784000043F0404AA
:102BB0003F040400007088FC08300000001820FF6B
:102BC000211E0000F008F000E018000000211C03A6
:102BD0001E211E0000F00888700000001E21232422
:102BE0001927211010160E00000000000000000040
:102BF00000000000000000E01804020000000007D0
:102C00001820400000020418E000000000402018D6
:102C100007000000404080F0804040000202010FA9
:102C200001020200000000F0000000000101011F8D
:102C300001010100000000000000000080B07000F1
:102C40000000000000000000000000000001010181
:102C50000101010100000000000000000030300010
:102C600000000000000000008060180400601806EA
:102C70000100000000E010080810E000000F102024
:102C800020100F00001010F8000000000020203F6E
:102C900020200000007008080888700000302824F8
:102CA0002221300000300888884830000018202099
:102CB00020110E000000C02010F8000000070424BE
:102CC000243F240000F80888880808000019212003
:102CD00020110E0000E0108888180000000F11205D
:102CE00020110E0000380808C83808000000003F16
:102CF000000000000070880808887000001C222175
:102D000021221C0000E010080810E0000000312221
:102D100022110F00000000C0C000000000000030C1
:102D20003000000000000080000000000000806013
:102D30000000000000008040201008000001020494
:102D4000081020004040404040404000040404047B
:102D50000404040000081020408000000020100837
:102D600004020100007048080808F000000000306C
:102D700036010000C030C828E810E00007182724FA
:102D800023140B000000C038E0000000203C2302A8
:102D90000227382008F8888888700000203F20200B
:102DA00020110E00C030080808083800071820203D
:102DB0002010080008F808080810E000203F202034
:102DC00020100F0008F88888E8081000203F202015
:102DD0002320180008F88888E8081000203F200009
:102DE00003000000C0300808083800000718202041
:102DF000221E020008F808000008F808203F210100
:102E000001213F20000808F8080800000020203FAA
:102E10002020000000000808F8080800C08080801A
:102E20007F00000008F888C028180800203F200113
:102E30002638200008F8080000000000203F20206D
:102E40002020300008F8F800F8F80800203F003F84
:102E5000003F200008F830C00008F808203F20009C
:102E600007183F00E01008080810E0000F102020AD
:102E700020100F0008F808080808F000203F210182
:102E800001010000E01008080810E0000F182424D9
:102E900038504F0008F8888888887000203F20004C
:102EA000030C302000708808080838000038202102
:102EB00021221C00180808F8080818000000203F0C
:102EC0002000000008F808000008F808001F202073
:102ED00020201F000878880000C838080000073844
:102EE0000E010000F80800F80008F800033C070095
:102EF000073C0300081868808068180820302C03FD
:102F0000032C30200838C800C83808000000203FD3
:102F10002000000010080808C838080020382621C2
:102F200020201800000000FE020202000000007FC6
:102F300040404000000C30C00000000000000001D4
:102F40000638C00000020202FE00000000404040BF
:102F50007F000000000004020202040000000000E4
:102F60000000000000000000000000008080808061
:102F70008080808000020204000000000000000049
:102F800000000000000080808080000000192422E2
:102F900022223F2008F8008080000000003F11201E
:102FA00020110E000000008080800000000E112023
:102FB00020201100000000808088F800000E112001
:102FC00020103F200000808080800000001F22220F
:102FD00022221300008080F0888888180020203F7B
:102FE000202000000000808080808000006B94948E
:102FF0009493600008F8008080800000203F21004A
:1030000000203F2000809898000000000020203F12
:1030100020200000000000809898000000C0808000
:10302000807F000008F8000080808000203F24029C
:103030002D302000000808F8000000000020203F8C
:10304000202000008080808080808000203F200041
:103050003F20003F8080008080800000203F2100D2
:1030600000203F200000808080800000001F202082
:1030700020201F00808000808000000080FFA120B1
:1030800020110E000000008080808000000E1120C2
:1030900020A0FF80808080008080800020203F2151
:1030A0002000010000008080808080000033242404
:1030B00024241900008080E0808000000000001FB0
:1030C000202000008080000000808000001F202061
:1030D00020103F20808080000080808000010E3022
:1030E0000806010080800080008080800F300C0383
:1030F0000C300F0000808000808080000020312E86
:103100000E312000808080000080808080818E7061
:103110001806010000808080808080000021302C13
:103120002221300000000000807C0202000000002C
:10313000003F404000000000FF00000000000000D1
:10314000FF0000000002027C800000000040403FC1
:10315000000000000006010102020404000000005B
:1031600000000000BFA80000B6C10000BAC5000002
:10317000D6D0000094310008000000203800000084
:1031800028010008CC310008380000209806000013
:103190004401000800DD9AF0060000000000000075
:1031A00000A24A0400000000000000000102030425
:1031B00006070809000000000204060800000000DD
:0C31C000010203040102030406070809D1
:04000005080000ED02
:00000001FF
