:020000040800F2
:1000000088080020A91E0008810600088306000851
:10001000870600088B0600088F0600080000000015
:10002000000000000000000000000000930600082F
:1000300095060008000000009706000899060008D1
:10004000C31E0008C31E0008C31E0008C31E00080C
:10005000C31E0008C31E0008C31E0008C31E0008FC
:10006000C31E0008C31E0008C31E0008C31E0008EC
:10007000C31E0008C31E0008C31E0008C31E0008DC
:10008000C31E0008C31E0008C31E0008C31E0008CC
:10009000C31E0008C31E0008C31E0008C31E0008BC
:1000A000C31E0008C31E0008C31E0008C31E0008AC
:1000B00001190008C31E0008C31E0008C31E000863
:1000C000C31E0008C31E0008C31E0008C31E00088C
:1000D000C31E0008B11A0008F9770008C31E000803
:1000E000C31E0008C31E0008C31E000800F002F86B
:1000F00000F094F80AA090E8000C82448344AAF12E
:100100000107DA4501D100F089F8AFF2090EBAE82B
:100110000F0013F0010F18BFFB1A43F0010318473B
:1001200054DF000074DF0000103A24BF78C878C1A3
:10013000FAD8520724BF30C830C144BF04680C60ED
:10014000704700000023002400250026103A28BF35
:1001500078C1FBD8520728BF30C148BF0B60704739
:100160006E2908F08281702907F0EF8566290BF06F
:100170009A8065290BF0978067290BF0948061299C
:10018000AFF3008003681B0A28BF41F08001692992
:1001900007F06085642907F05D85752907F05A85A9
:1001A0006F2908F07E84782907F0BB85E92908F0DB
:1001B0001984E42908F01684F52908F01384EF293E
:1001C00008F07B84F82907F0BA850368DB0928BFAB
:1001D00041F08001632908F09A83732908F09F8316
:1001E000E32909F06B80F32909F070800020704743
:1001F0001FB59DE8030008F097F808F0A9FF040078
:10020000002000210AF026FB401C60600020002135
:100210000AF036FBE0601FBD10B510BD09F0FEFA14
:100220001146FFF7E5FF00F009F809F05FFD03B4A0
:10023000FFF7F2FF03BC09F08FFD00000EB50025AB
:10024000002401F07FFB4FF4A06001F04DFE4FF45D
:10025000165001F0E1FB4FF4E13001F07DFD00F0BC
:100260000DFB01F0C3F901F0D7FA4FF6FF70A023A0
:10027000802200210090084600F002FE00F028FBDA
:10028000002010214FF478420346CDE9002102906E
:10029000C6A2014600F08AFFC8A1CD4801F0E0FDEA
:1002A0000BE0002010214FF6FF724FF47843CDE9A8
:1002B00000210290C7A200F079FF00F034FC002872
:1002C000EFD14FF6FF70A023802200210090084656
:1002D00000F0D6FD002010214FF478420346CDE90E
:1002E00000210290BFA201460F2000F05FFF002016
:1002F00010214FF6FF721F23CDE900210290BDA20D
:1003000000F054FF002010214FF6FF721F23CDE9AB
:1003100000210290B9A2202100F048FF0020102106
:100320004FF6FF721F23CDE900210290B6A22021D3
:100330005F2000F03BFF002010214FF6FF721F23CB
:10034000CDE900210290B1A2302100F02FFF002062
:1003500010214FF6FF721F23CDE900210290AEA2BB
:100360003021602000F0C5FF002010214FF6FF7201
:100370001F23CDE900210290A8A2402100F016FF22
:10038000002010214FF6FF721F23CDE900210290BB
:10039000A5A24F2100F00AFF002010214FF6FF72A6
:1003A0001F23CDE900210290A1A25F2100F0FEFEF3
:1003B000002010214FF6FF721F23CDE9002102908B
:1003C0009DA26F2100F0F2FE002010214FF6FF7277
:1003D0001F23CDE90021029099A27F2100F0E6FEC3
:1003E000002010214FF6FF721F23CDE9002102905B
:1003F00095A28F2100F0DAFE07F0E4F803E04FF455
:10040000FA7001F0DCFA03F097FC0028F7D1CCE099
:10041000681C80B20546B0F5967F7DDB03F005FDD4
:1004200018B98BA16A4801F01BFD03F07CFD002583
:1004300007F04CF801F0C7FB01F034FC00F092FB30
:10044000874948800846B0F90200002804DA0846C7
:100450004088404200B248808148B0F902000A2139
:1004600090FBF1F086B210204FF6FF714FF4784206
:100470000223CDE900210290324620213C2000F0E9
:1004800064FF002010214FF6FF724FF47843CDE94E
:10049000002102902E2220214C2000F0A9FE70485D
:1004A000B0F902000A2190FBF1F201FB120086B2C2
:1004B00010204FF6FF714FF478420123CDE900215F
:1004C000029032462021542000F03FFF08212020D6
:1004D00001F088F901F0A8F9000C614908801020AA
:1004E0004FF6FF714FF47842CDE9002102905C484D
:1004F000028803233021482000F027FF00F033FA60
:1005000040F63C71884213DD012055498880002067
:1005100010214FF6FF7200E03FE04FF47843CDE941
:10052000002102904FA26F212B2000F03FFE0FE030
:1005300000204B49888010214FF6FF724FF478431A
:10054000CDE90021029049A26F212B2000F02EFE60
:100550004848006888B10120414988710020102175
:100560004FF6FF724FF47843CDE90021029042A28A
:100570007F212B2000F01AFE0FE0002038498871FF
:1005800010214FF6FF724FF47843CDE9002102901D
:100590003AA27F212B2000F009FE002006F0F1FF97
:1005A000044614B1204603F00DFD31E7BFAABBFAA3
:1005B000D6D0A1A2A1A2A1A2200000002048617271
:1005C000647761726520696E6974204F4B0D0A0073
:1005D00000380140CEC2B6C8BFAABBFACAA7B0DC79
:1005E00000000000C6FBB3B5BBB7BEB3BCE0B2E2CF
:1005F00000000000C0D7B4EFA3BA0000CEC2202094
:10060000B6C8A3BA00000000A1E60000B6FED1F50E
:10061000BBAFCCBCA3BA000050706D00C6FBB3B535
:10062000D7B4CCACA3BA0000BEADB6C8A3BA000024
:10063000CEB3B6C8A3BA0000D7F9CEBBA3BA0000A8
:10064000B3B5C3C5A3BA0000CDF8C2E7A3BA000092
:10065000D7BCB1B8B7A2CBCDCAFDBEDD0D0A000034
:1006600036000020D3D0C8CB00000000CEDEC8CBBF
:100670000000000038012242B9D80000BFAA0000E3
:10068000704700BFFEE700BFFEE700BFFEE700BF08
:10069000FEE7704770477047704700000CB50020B8
:1006A000019000906C48006840F480306A4908600E
:1006B00000BF6948006800F4003000900198401CB9
:1006C0000190009818B90198B0F5A06FF1D1624877
:1006D000006800F4003010B10120009001E000201B
:1006E00000900098012843D15C48006840F0100059
:1006F0005A4908600846006820F003000860084670
:10070000006840F002000860534840685249486061
:100710000846406848600846406840F48060486089
:100720000846406820F47C1048600846406840F461
:10073000E81048600846006840F08070086000BF1C
:100740004548006800F000700028F9D04248406831
:1007500020F00300404948600846406840F002002D
:10076000486000BF3C48406800F00C000828F9D100
:100770000CBD10B5FFF792FF10BD10B536480068EC
:1007800040F0010034490860084640683449084098
:100790003149486008460068324908402E490860DF
:1007A0000846006820F4802008600846406820F46D
:1007B000FE0048604FF41F008860FFF7DAFF4FF03B
:1007C00000602949086010BD10B5002100200022FA
:1007D000214B5B6803F00C0121B1042906D00829E4
:1007E00028D107E0214B224C236027E01F4B204CEF
:1007F000236023E0184B5B6803F47010164B5B68B2
:1008000003F48032022303EB904022B9194B434397
:10081000174C23600DE0104B5B6803F4003323B1E9
:10082000144B4343124C236003E0104B4343104CE2
:10083000236003E00D4B0E4C236000BF00BF064B4E
:100840005B68C3F303130C4CE15C094B1B68CB40A2
:10085000074C236010BD0000001002400020024041
:100860000000FFF8FFFFF6FE08ED00E000127A003E
:100870000000002000093D000400002008B501210F
:10088000102001F0BBFE4FF48040ADF8000048207E
:100890008DF8030003208DF8020069460A4801F034
:1008A000F1FB4FF40050ADF8000010208DF803006C
:1008B00003208DF802006946034801F0E3FB0120A4
:1008C0000249086008BD000000100140B401224246
:1008D00000B587B00121480201F090FE01210820F7
:1008E00001F08CFE4FF4004001F0ECFD00208DF88B
:1008F00007000120ADF8040003208DF8060001A9CF
:10090000214801F0BFFB0523012208211F4802F006
:100910009CF90020029005904FF460200490002084
:100920008DF80D008DF80C0001208DF8180002A93B
:10093000164802F0F2F80121144802F01AF913489F
:1009400002F039F900BF114802F03AF90128FAD053
:100950000E4802F03FF900BF0C4802F040F90128B0
:10096000FAD007B000BD10B50121084802F041F9E6
:1009700000BF0221054802F0ADFA0028F9D0034873
:1009800002F0CAF910BD0000000C01400024014033
:1009900010B59648006820F00F009449086008469A
:1009A000006840F00300086000209149086040F2B0
:1009B000EE2000F0E0FF01208E49C1F8A0010F20D9
:1009C00000F0D9FF10BD10B500248848006820F061
:1009D0000F00864908600846006840F0080008607B
:1009E00004E0601CC4B2012000F0C5FF80488038DC
:1009F000006808B1C82CF4DBC82C01DB012010BD55
:100A0000002404E0601CC4B2012000F0B4FF784868
:100A10008038006808B9F02CF4DBF02C01DB0120F1
:100A2000EDE70020EBE710B57048006820F00F00FC
:100A30006E4908600846006840F003000860002026
:100A40006B490860022000F096FF01206949C1F857
:100A5000A0016648006820F00F006449086008465D
:100A6000006840F0080008600C2000F084FF604837
:100A70008038006808B1012400E00024322000F032
:100A80007AFF204610BD70B50026012508E0FFF76B
:100A9000CAFF0446E00140EA6600C6B2681CC5B25F
:100AA000082DF4DD304670BD70B504464F4800682F
:100AB00020F00F004D4908600846006840F0030030
:100AC0000860012520E004F0010664106EB10020EA
:100AD00047490860022000F04EFF01204549C1F857
:100AE000A0013C2000F047FF0CE0002040490860D6
:100AF0003C2000F040FF01203E49C1F8A001022047
:100B000000F039FF681CC5B2082DDCDD70BD10B5E2
:100B1000FFF73EFFFFF757FFCC20FFF7C5FF44204C
:100B2000FFF7C2FF10BD08B50121042001F066FDEA
:100B30004FF48070ADF8000010208DF80300032002
:100B40008DF8020069462948001F01F09BFA4FF416
:100B500080712648001F01F042FBFFF719FFFFF7E5
:100B600032FF08BD2DE9F84FFFF7D1FFFFF710FF67
:100B7000FFF729FFCC20FFF797FFBE20FFF794FF78
:100B8000FFF781FF8346FFF77EFF0446072C08DD51
:100B9000E043C4B26FEA0B0000F0FF0B4FF0000A15
:100BA00001E04FF0010AA1464FEA09200FFA80F94F
:100BB00009EB0B000FFA80F948460AF08DFA009015
:100BC0000AF03EFA074600220B4B0AF01BF80546D6
:100BD00009F096FF0FFA80F9BAF1000F02D04846EB
:100BE000BDE8F88FC9F1000000B2F9E70408014040
:100BF000A0012142000021420000E43F08B501218C
:100C0000082001F0FBFC4FF44050ADF8000010202C
:100C10008DF8030003208DF802006946974801F023
:100C200031FA4FF44051954801F0D9FA08BD08B5A2
:100C30004FF48050ADF8000010208DF80300032021
:100C40008DF8020069468D4801F01CFA08BD08B510
:100C50004FF48050ADF8000001208DF80200042010
:100C60008DF803006946854801F00CFA08BD10B5FF
:100C7000FFF7DDFF4FF48051804801F0B0FA4FF4E8
:100C800000517E4801F0ABFA142000F074FE4FF4DE
:100C900080517A4801F0A5FA142000F06CFE4FF460
:100CA0000051764801F09DFA10BD10B5FFF7BFFF67
:100CB0004FF40051714801F094FA4FF480516F489D
:100CC00001F08FFA142000F056FE4FF400516B48EB
:100CD00001F085FA4FF48051684801F080FA142041
:100CE00000F049FE10BD10B50024FFF7B0FF4FF42F
:100CF0008051624801F073FA0A2000F03CFE4FF484
:100D000000515E4801F06BFA0A2000F034FE07E063
:100D1000601CC4B2FA2C03DDFFF7C7FF012010BD31
:100D20004FF48051554801F040FA0028F0D14FF4BB
:100D30000051524801F055FA0020F0E710B54FF489
:100D400000514E4801F04DFAFFF771FF4FF480510A
:100D50004A4801F046FA142000F00DFE4FF400510D
:100D6000464801F03CFA142000F005FE4FF4005113
:100D7000424801F036FA10BD10B54FF400513F481B
:100D800001F02FFAFFF753FF4FF480513B4801F079
:100D900026FA142000F0EFFD4FF40051374801F01F
:100DA0001EFA142000F0E7FD4FF40051334801F023
:100DB00018FA10BD70B50446FFF739FF4FF4005123
:100DC0002E4801F00EFA002523E0E00928B14FF487
:100DD00080512A4801F003FA04E04FF4805127487B
:100DE00001F0FFF96006040E142000F0C4FD4FF47A
:100DF0000051224801F0F3F9142000F0BCFD4FF43B
:100E000000511E4801F0EDF9142000F0B4FD681CFB
:100E1000C5B2082DD9DB142000F0ADFD70BD70B552
:100E200005460024FFF713FF00261DE04FF4005194
:100E3000124801F0D6F9142000F09DFD4FF4005146
:100E40000E4801F0CCF94FF6FF7000EA44044FF46D
:100E500080510A4801F0A9F908B1601C84B214203D
:100E600000F089FD701CC6B2082EDFDB15B9FFF754
:100E700083FF01E0FFF762FF204670BD000C0140D8
:100E80002DE9F04706460F4614461D46DDF820A022
:100E9000681E83B2601E82B23946304600F085FB80
:100EA000B8460EE0B14606E0504600F067FB09F197
:100EB00001001FFA80F9A145F6DB08F101001FFAD5
:100EC00080F8A845EEDBBDE8F08770B504460D4616
:100ED00016462B4622462946204600F066FB304641
:100EE00000F04CFB70BD2DE9FF4F85B081468A466E
:100EF0000020039083460798A0EB09050898A0EB13
:100F00000A06CDF80890CDF804A0002D01DD0127D8
:100F100005E00DB9002702E04FF0FF376D42002ECB
:100F200002DD4FF0010806E016B94FF0000802E0BC
:100F30004FF0FF387642B54201DD2C4600E03446E2
:100F4000002004901EE0019A91B2029A90B2129A87
:100F5000FFF7BBFF039828440390B3440398A042D3
:100F600005DD0398001B0390029838440290A345C6
:100F700004DDABEB040B0198404401900498401C45
:100F800080B20490611C04988842DCDB09B0BDE8A3
:100F9000F08F2DE9F84305460E4617469846089C03
:100FA00033463A46314628460094FFF79CFF4346B5
:100FB0002A46314628460094FFF795FF43463A46B5
:100FC000414628460094FFF78EFF43463A46314695
:100FD00038460094FFF787FFBDE8F8832DE9F04716
:100FE00006460F46904699460025444641E07A1B46
:100FF00091B2321B90B24A46FFF767FF7A1B91B25B
:10100000321990B24A46FFF760FF3A1991B2721B4B
:1010100090B24A46FFF759FF3A1B91B2721B90B249
:101020004A46FFF752FF7A1991B2321990B24A46F6
:10103000FFF74BFF3A1B91B2721990B24A46FFF785
:1010400044FF3A1991B2721990B24A46FFF73DFF38
:101050007A1991B2321B90B24A46FFF736FF6D1CE7
:1010600005FB05F004FB040108FB08F0814200DDEC
:10107000641EA542BBDDBDE8F0872DE9FF5F064693
:10108000894692469B460F9C00200390009620467E
:10109000E21704EB5272D2102146E31704EB5373AC
:1010A000DB10A4EBC3030BB1012300E000231A44BF
:1010B000624392B2019263200290002571E005EB39
:1010C0000510FA4911F810009AF80010884265D10D
:1010D00005EB0510F54901EB400040789AF8011046
:1010E00088425BD109EB0400401E83B23019401ED8
:1010F00082B24946304600F058FA00274BE04FF0E4
:10110000000842E01098F8B905EB0510E74901EB3B
:101110004000801CC05D012101FA08F1084018B1AF
:10112000584600F02BFA02E00E9800F027FA0398D8
:10113000401CC0B20390039890FBF4F104FB110033
:10114000F8B90020039023E005EB0510D74901EB27
:101150004000801CC05D012101FA08F1084020B167
:101160005A4649463046FFF7B0FE701C86B20098DA
:10117000301AA04205D1009E09F101001FFA80F942
:1011800006E008F1010000F0FF08B8F1080FB9DB34
:1011900000BF781CC7B201988742B0DB00BF681C53
:1011A00085B2029885428ADBBDE8FF9F2DE9FE4F9C
:1011B00006460F4614469846DDE90D5ADDF8309094
:1011C00011E0102D0AD14346224639463046CDE97A
:1011D000015ACDF80090FFF750FF01E0BDE8FE8F07
:1011E000A41C701986B220780028EAD100BFF5E768
:1011F0002DE9FF5F0546894692469B460F9E0020DB
:1012000002900095304606EBD071C1F347042046AA
:10121000E21704EB5272D2102146E31704EB53732A
:10122000DB10A4EBC3030BB1012300E000231A443D
:10123000724392B20192AAF1200000F0FF0A09EB7A
:101240000600401E83B22819401E82B24946284635
:1012500000F0ABF94FF0000846E0102E06D194489C
:1012600000EB0A1010F80800039001E0BDE8FF9FB2
:10127000002732E01098C0B90120B8400399084017
:1012800018B1584600F07AF902E00E9800F076F9AD
:101290000298401CC0B20290029890FBF4F104FB4B
:1012A0001100C0B90020029019E00120B840039954
:1012B000084020B15A4649462846FFF706FE681CFA
:1012C00085B20098281AA04205D1009D09F10100BD
:1012D0001FFA80F903E0781CC7B2082FCADB00BFF1
:1012E00008F101001FFA80F801988045B5DB00BFC6
:1012F000BCE72DE9FE4F06460F4614469846DDE949
:101300000D5ADDF8309010E0CDE9015ACDF800908B
:101310002278434639463046FFF76AFF284605EBF8
:10132000D07106EB61018EB2641C20780028EBD1ED
:10133000BDE8FE8F10B50246012000E050430B1EB1
:10134000A1F10104E1B2F9D110BD2DE9FF4F85B043
:10135000074691461D46DDE913A60020049030465D
:1013600006EBD071C1F3470B002434E0281B401E6C
:10137000C1B20A20FFF7DEFFB9FBF0F00A21B0FB93
:10138000F1F201FB12080498A0B9681EA04211DD19
:10139000B8F1000F0CD1002004FB0B71CDE900A6C1
:1013A000029088B22022129B0699FFF721FF10E0DD
:1013B00001200490002008F13001CAB204FB0B7137
:1013C000CDE900A6029088B2129B0699FFF710FFA4
:1013D00000BF601CC4B2AC42C8DB09B0BDE8F08FEE
:1013E0002DE9FF4F85B0074690461C46DDE9139670
:1013F000304606EBD071C1F3470B2E49404609F049
:1014000083FE039009F048FE80B20490002531E08D
:10141000601B401EC1B20A20FFF78CFF0499B1FB8C
:10142000F0F00A21B0FBF1F201FB120AA01EA84263
:1014300010D10020A11E01FB0B71CDE90096029096
:1014400088B22E22129B0699FFF7D2FE681CC5B205
:10145000601CC4B200200AF13001CAB205FB0B7156
:10146000CDE90096029088B2129B0699FFF7C0FE64
:10147000681CC5B2A542CBDB09B0BDE8F08F2DE9F1
:10148000F05F0746884615461E46DDF82890002482
:1014900008EB0600401E83B27819401E82B2414616
:1014A000384600F082F8A2461FE00000ACD10008E8
:1014B000B2B300080000C8424FF0000B0FE019F86B
:1014C000140000F055F8012101EB440119F8010066
:1014D00000F04EF8641C0BF101001FFA80FBB345CD
:1014E000EDDB0AF101001FFA80FAAA45E4DBBDE852
:1014F000F09F000008B50121042001F07FF8F320DF
:10150000ADF8000010208DF8030003208DF80200D4
:101510006946B34800F0B6FDF321B14800F05FFE24
:1015200008BD70B504464021AD4800F05AFE0025C4
:1015300017E00121AA4800F054FE04F0800020B119
:101540000221A74800F04BFE03E00221A44800F06E
:1015500048FE0121A24800F042FE6006040E681C0D
:10156000C5B2082DE5DB40219D4800F038FE70BD76
:1015700010B504462046FFF7D4FF10BD10B5044651
:101580002012FFF7CEFFE0B2FFF7CBFF10BD10B582
:1015900004462021924800F024FE2046FFF7C1FFB8
:1015A00020218F4800F01BFE10BD2DE9F0410446BC
:1015B0000D4616461F462A20FFF7E9FFA11C88B2F8
:1015C000FFF7DCFFB11C88B2FFF7D8FF2B20FFF735
:1015D000DEFF691C88B2FFF7D1FF791C88B2FFF7E4
:1015E000CDFF2C20FFF7D3FFBDE8F08110B5FFF74A
:1015F00081FF10217A4800F0F4FD642000F0DFF94B
:101600001021774800F0EBFD642000F0D8F980212C
:10161000734800F0E4FD642000F0D1F91120FFF7D9
:10162000B6FF782000F0CBF9B120FFF7B0FF05201E
:10163000FFF79EFF3C20FFF79BFF3C20FFF798FF42
:10164000B220FFF7A4FF0520FFF792FF3C20FFF731
:101650008FFF3C20FFF78CFFB320FFF798FF05209A
:10166000FFF786FF3C20FFF783FF3C20FFF780FF5A
:101670000520FFF77DFF3C20FFF77AFF3C20FFF7B6
:1016800077FFB420FFF783FF0320FFF771FFC0202F
:10169000FFF77DFF2820FFF76BFF0820FFF768FFAB
:1016A0000420FFF765FFC120FFF771FFC020FFF79F
:1016B0005FFFC220FFF76BFF0D20FFF759FF0020EF
:1016C000FFF756FFC320FFF762FF8D20FFF750FFA3
:1016D0002A20FFF74DFFC420FFF759FF8D20FFF7A9
:1016E00047FFEE20FFF744FFC520FFF750FF1A2009
:1016F000FFF73EFF3620FFF74AFFC020FFF738FF15
:10170000E020FFF744FF0420FFF732FF2220FFF71D
:101710002FFF0720FFF72CFF0A20FFF729FF2E20BD
:10172000FFF726FF3020FFF723FF2520FFF720FFDC
:101730002A20FFF71DFF2820FFF71AFF2620FFF7BA
:1017400017FF2E20FFF714FF3A20FFF711FF0020AC
:10175000FFF70EFF0120FFF70BFF0320FFF708FF45
:101760001320FFF705FFE120FFF711FF0420FFF72B
:10177000FFFE1620FFF7FCFE0620FFF7F9FE0D2006
:10178000FFF7F6FE2D20FFF7F3FE2620FFF7F0FE11
:101790002320FFF7EDFE2720FFF7EAFE2720FFF7C3
:1017A000E7FE2520FFF7E4FE2D20FFF7E1FE3B20BA
:1017B000FFF7DEFE0020FFF7DBFE0120FFF7D8FE7B
:1017C0000420FFF7D5FE1320FFF7D2FE3A20FFF7E3
:1017D000DEFE0520FFF7CCFE2920FFF7D8FE10BD66
:1017E0000008014070B505460C46FFF740FAB020EE
:1017F000FFF7E0FAFFF777FA2846FFF7DBFAFFF783
:1018000072FA2046FFF7D6FAFFF76DFAFFF74DFAA6
:10181000642000F0D4F870BD10B5FFF7EFF9032194
:101820002020FFF7DFFF10BD70B5FFF720FAB120D1
:10183000FFF7C0FAFFF757FA0120FFF7F0FA044666
:1018400024020120FFF7EBFA04440120FFF7E7FA36
:10185000C5B200BF24020120FFF7E1FA04442402CC
:101860000020FFF7DCFA0444FFF71FFA204670BDA2
:1018700008B54FF4E06000F037FB1C208DF8000045
:1018800000208DF8010003208DF8020001208DF862
:101890000300684600F02DFB08BD0EB50121084687
:1018A00000F0B9FE4FF0804001F038FB4FF47A7041
:1018B000ADF804004720ADF800000020ADF80200AC
:1018C00069464FF0804001F0FDFB0121880702F0DE
:1018D0001BFA01221146900701F06BFF01218807D6
:1018E00001F04CFF0121084600F095FE00214FF069
:1018F000804001F043FF0021012000F08CFE0EBD6E
:1019000010B50121880702F002FAC0B10121880751
:1019100002F00EFA0A480068401C094908600846AF
:10192000006864280BD900214FF0804001F026FFA9
:101930000021012000F06FFE00200149086010BD69
:101940001400002010B56FF0040000F01CFB2E48BE
:1019500000682E49B0FBF1F02D4908700846007868
:1019600000EB4001C1EBC0104FF6FF7101EAC0006F
:101970002849088010BD0146254A12784A434FF095
:10198000E0235A6100229A611A46126942F001026C
:101990001A6100BF4FF0E022106900F001021AB195
:1019A00000F48032002AF5D04FF0E022126922F0D4
:1019B00001024FF0E0231A6100229A61704701464C
:1019C000144A12884A434FF0E0235A6100229A6178
:1019D0001A46126942F001021A6100BF4FF0E0227C
:1019E000106900F001021AB100F48032002AF5D02B
:1019F0004FF0E022126922F001024FF0E0231A6159
:101A000000229A61704700000000002000127A0056
:101A1000180000201A00002010B586B004460121ED
:101A200044F2040000F0EAFD4FF40070ADF8140039
:101A300003208DF8160018208DF8170005A9FB4823
:101A400000F020FB4FF48060ADF8140004208DF806
:101A5000170005A9F54800F015FB25208DF80000BA
:101A600003208DF801008DF8020001208DF803009D
:101A7000684600F03EFA01940020ADF80800ADF889
:101A80000A00ADF80C00ADF810000C20ADF80E0007
:101A900001A9E74800F059FE012240F22551E4482F
:101AA00000F0EBFE0121E24800F0DBFE06B010BDC5
:101AB00010B540F22551DE4800F0C4FF002839D0AF
:101AC000DB4800F03FFFC4B2242C02D10020D949EA
:101AD0000880D84801880088401CD64A1080D64823
:101AE0004454007824281ED1D34800794D281AD1B7
:101AF000D1484079432816D10A2C14D15021CF481F
:101B000006F05CFBCB480288CB49CC4806F0DFFAF4
:101B10000120CA4981F850000020C6490880C82128
:101B2000C54806F04BFBC3480088C82802DBC82024
:101B3000C049088010BD10B504462146BE4806F0D5
:101B40001AFA08B1012010BD0020FCE710B5C82129
:101B5000B94806F033FB0020B649088010BD10B527
:101B60000020B64981F8500081F8510081F87800D2
:101B70005021B24806F022FBB048523000210160EB
:101B80004160018181720B3001604160018181728D
:101B90005D38A0F868106A300160416081606A3881
:101BA000A0F8761010BD0EB50CE0002010214FF605
:101BB000FF724FF47843CDE900210290A0A22E20BD
:101BC000FFF7F4FAF1E7F8B500269C4890F85000CA
:101BD000002866D00020994981F8500000BF5EE0DF
:101BE00046B99AA1954806F0C6F9041E55D10120C0
:101BF000FFF7D9FF641C95A1204606F0BCF9051E2D
:101C000048D0072E2ED2DFE806F02D040B11181F46
:101C100026002A1B21468948523006F058FA22E055
:101C20002A1B2146684606F052FA1CE02A1B214670
:101C300082485D3006F04BFA15E02A1B21467F48AA
:101C4000683006F044FA0EE02A1B21467B486A30D1
:101C500006F03DFA07E02A1B21467848763006F068
:101C600036FA00E000BF00BF2C460120734981F81E
:101C700051009DF80000412803D1012081F878002F
:101C800007E09DF80000562803D100206B4981F839
:101C9000780002E00220FFF786FF701CC6B2062E15
:101CA0009EDDF8BD0EB5654890F85100002852D071
:101CB0000020624981F8510010214FF6FF724FF465
:101CC0007843CDE9002102905C4A52322E20FFF782
:101CD00010FB5A4890F8780008B30020574981F863
:101CE000780010214FF6FF724FF47843CDE90021C0
:101CF0000290524A5D324F212E20FFF7FAFA00205F
:101D000010214FF6FF724FF47843CDE90021029085
:101D10004A4A6A325F212E20FFF7EBFA1BE00020CF
:101D200010214FF6FF724FF47843CDE90021029065
:101D300047A24F212E20FFF739FA002010214FF63D
:101D4000FF724FF47843CDE90021029040A25F2159
:101D50002E20FFF72BFA0EBD10B586B004460121E8
:101D6000042000F04BFC0121480400F054FC182032
:101D70008DF817000420ADF8140003208DF816002C
:101D800005A92A4800F07EF904208DF817000820E4
:101D9000ADF8140003208DF8160005A9234800F0C3
:101DA00071F901940020ADF810000C20ADF80E0080
:101DB0000020ADF80C00ADF80A00ADF8080001A94C
:101DC000264800F0C2FC0121244800F04AFD01220F
:101DD00040F22551214800F050FD26208DF80000EA
:101DE00001208DF8030000208DF801008DF802001D
:101DF000684600F07EF806B010BD2DE9F0410746B8
:101E00000C46154600260DE014F8011B384600F07C
:101E100095FD00BF4021384600F0FEFD0028F9D0B6
:101E2000701C86B2AE42EFDBBDE8F08100080140D5
:101E3000003801401E000020D10000205800002082
:101E4000BDE2CEF6B4EDCEF3000000002C000000A1
:101E5000B6A8CEBBCAA7B0DC00000000004400401A
:101E60000FB430B5CBB0054601AC50A800904FF48C
:101E7000947101A8009B4F9A05F06CFE0020009021
:101E80000BE014F8011B284600F058FD00BF40216C
:101E9000284600F0C1FD0028F9D020780028F0D1B4
:101EA0004BB030BC5DF814FB094880470948004737
:101EB000FEE7FEE7FEE7FEE7FEE7FEE7FEE7FEE7FA
:101EC000FEE7FEE704480549054A064B7047000057
:101ED0007B070008ED000008880200208808002029
:101EE000880400208804002031490143314A1160F0
:101EF000704770B5002100230F22C47804B32D4C25
:101F0000246804F4E064C4F5E064210AC1F1040328
:101F1000CA40447804FA03F184781440214309014B
:101F2000254C0678A155047804F01F050124AC4027
:101F300005786D11AD0005F1E025C5F8004109E017
:101F4000047804F01F050124AC401C4D067876117E
:101F500045F8264070BD1A4A0A400243154B1B1F24
:101F60001A60704739B1134A121D12680243114BAF
:101F70001B1D1A6006E00F4A121D126882430D4BAA
:101F80001B1D1A607047042808D14FF0E021096931
:101F900041F004014FF0E022116107E04FF0E02131
:101FA000096921F004014FF0E0221161704700003F
:101FB0000000FA050CED00E000E400E080E100E044
:101FC00080FFFF1F10B50446CC48844208D1012190
:101FD000042000F02DFB0021042000F029FB46E046
:101FE000C748844208D10121082000F021FB0021CC
:101FF000082000F01DFB3AE0C248844208D10121CC
:10200000102000F015FB0021102000F011FB2EE045
:10201000BD48844208D10121202000F009FB0021A5
:10202000202000F005FB22E0B848844208D10121BD
:10203000402000F0FDFA0021402000F0F9FA16E0FF
:10204000B348844208D10121802000F0F1FA002138
:10205000802000F0EDFA0AE0AE48844207D1012169
:10206000801500F0E5FA0021A01500F0E1FA10BD9E
:1020700010B50121084600F0DBFA0021012000F034
:10208000D7FA10BD2DE9F0410246002500260020B8
:1020900000230024002791F803C00CF00F0591F8ED
:1020A00003C00CF0100CBCF1000F03D091F802C07B
:1020B0004CEA050591F800C0BCF1000F31D014685E
:1020C00000202BE04FF0010C0CFA00F3B1F800C037
:1020D0000CEA03069E4220D183004FF00F0C0CFA4D
:1020E00003F7BC4305FA03FC4CEA040491F803C06F
:1020F000BCF1280F06D14FF0010C0CFA00FCC2F81D
:1021000014C00AE091F803C0BCF1480F05D14FF0AC
:10211000010C0CFA00FCC2F810C0401C0828D1D3F6
:102120001460B1F800C0BCF1FF0F34DD546800202A
:102130002EE000F1080C4FF0010808FA0CF3B1F89A
:1021400000C00CEA03069E4221D183004FF00F0C21
:102150000CFA03F7BC4305FA03FC4CEA040491F8BB
:1021600003C0BCF1280F05D100F1080C08FA0CF8E7
:10217000C2F8148091F803C0BCF1480F07D100F1F8
:10218000080C4FF0010808FA0CF8C2F81080401C47
:102190000828CED35460BDE8F0814FF6FF7101806E
:1021A000022181700421C1707047024600209368AB
:1021B0000B400BB1012000E0002070470146886809
:1021C00080B2704702460020D3680B400BB101205B
:1021D00000E0002070470146C86880B27047016186
:1021E0007047416170470AB1016100E04161704789
:1021F000C16070474FF480320A438261816182611D
:1022000082698269704702460020434B18684FF686
:102210008073184040EA021008433F4B1860704733
:102220003E49C8617047F0B50A46002300240021EA
:10223000002500F00046B6F1004F02D1364EF1699C
:1022400001E0354E7168C0F3034583B200F44016D7
:10225000B6F5401F08D121F070612F4E766826F048
:1022600070662D4F7E6012E000F48016B6F5801F78
:1022700006D1032606FA05F4A14341F0706106E099
:10228000460D360103FA06F6B14341F0706122B102
:10229000460D360103FA06F6314300F00046B6F16A
:1022A000004F02D11C4EF16101E01B4E7160F0BD88
:1022B00030B500228B071C0F0F2303FA04F2164BD4
:1022C00008338C1053F824309343134C08348D108A
:1022D00044F8253023468C1053F824308C07240F03
:1022E00000FA04F423430C4C08348D1044F82530D4
:1022F00030BD0A49DC310860704700000008014029
:10230000000C014000100140001401400018014081
:10231000001C01400020014000000140000020425C
:10232000DF48006840F00100DD4908600846406869
:10233000DC490840DA49486008460068DA49084044
:10234000D74908600846006820F4802008600846E5
:10235000406820F4FE0048604FF41F00886070471A
:10236000CF49096821F48031CD4A116011460968CE
:1023700021F480211160B0F5803F03D0B0F5802FAB
:102380000ED106E0C649096841F48031C44A1160A3
:1023900007E0C349096841F4A021C14A116000E087
:1023A00000BF00BF704710B5014600220023002087
:1023B0004A11012A02D1BA4C236806E0022A02D14E
:1023C000B74C236A01E0B64C636A01F01F02012496
:1023D00094401C400CB1012000E0002010BD38B535
:1023E000002000900024002500BF3120FFF7DBFF14
:1023F00005460098401C00900098B0F5A06F01D0F1
:10240000002DF2D03120FFF7CEFF08B1012400E00B
:102410000024204638BD01460020A14A106820F063
:10242000F80040EAC10010607047A049086070479A
:10243000024600209A4B586820F47C1042EA0103BF
:102440001843974B58607047984908667047014693
:102450000020934A506820F0030008435060704702
:102460008F48406800F00C007047014600208C4AFD
:10247000506820F0F000084350607047014600208B
:10248000874A506820F4E060084350607047014676
:102490000020834A506820F4605040EAC100506038
:1024A000704729B17E4A527A02437D4B5A7204E04A
:1024B0007B4A527A82437A4B5A7270477B49D831B1
:1024C0000860704701460020754A506820F440407B
:1024D0000843506070470021714A20321170704AE1
:1024E00082F82010012802D004280AD104E001213A
:1024F0006B4A2032117005E00521694A20321170C3
:1025000000E000BF00BF7047694908607047644938
:10251000096A0143624A116270476549443908609B
:10252000704730B500210022002400235C4D6D6807
:1025300005F00C0121B1042905D0082923D105E0BB
:102540005C4D056022E05B4D05601FE0544D6D68F9
:1025500005F47012524D6D6805F48034022505EBC8
:1025600092421CB9544D554305600BE04C4D6D68CB
:1025700005F400351DB1504D5543056002E04D4D49
:102580005543056002E04B4D056000BF00BF444D60
:102590006D6805F0F0010909484D6B5C0568DD4088
:1025A00045603F4D6D6805F4E061090A434D6B5C81
:1025B0004568DD4085603A4D6D6805F46051C90A93
:1025C0003E4D6B5C4568DD40C560354D6D6805F47A
:1025D0004041890B3A4D6B5CC568B5FBF3F505616D
:1025E00030BD29B12E4A526902432D4B5A6104E095
:1025F0002B4A526982432A4B5A61704729B1284AB3
:1026000092690243264B9A6104E0254A926982430B
:10261000234B9A61704729B1214AD2690243204B6A
:10262000DA6104E01E4AD26982431D4BDA617047C9
:1026300029B11B4AD2680243194BDA6004E0184AF8
:10264000D2688243164BDA60704729B1144A126986
:102650000243134B1A6104E0114A12698243104B82
:102660001A61704712494039086070470F49C864C1
:1026700070470B49C87170470948406A40F0807044
:1026800007494862704701460020054A92680A409F
:102690000AB1012000E000207047014988727047AC
:1026A000001002400000FFF8FFFFF6FE000042426B
:1026B0008004424200127A0000093D0022000020FE
:1026C0003200002010B50446FB48844209D10121A4
:1026D0008803FFF7ADFF00214FF48040FFF7A8FF0C
:1026E00032E0F648844209D101214804FFF7ADFFEA
:1026F00000214FF40030FFF7A8FF25E0F0488442A6
:1027000009D101218804FFF7A0FF00214FF48020A8
:10271000FFF79BFF18E0EB48844209D10121C80470
:10272000FFF793FF00214FF40020FFF78EFF0BE02F
:10273000E548844208D101210805FFF786FF002102
:102740004FF48010FFF781FF10BD2DE9F04786B0F0
:1027500005460E460024A24600BFA1460027B089C8
:1027600000B100BF2F462C8A4CF6FF700440F08861
:1027700004432C82AC894EF6F3100440B0883189B2
:102780000843718908430443AC81AC8A4FF6FF408B
:102790000440B0890443AC8201A8FFF7C2FEC648DA
:1027A000874202D1DDF810A001E0DDF80CA0A88975
:1027B00000F4004040B10AEBCA0000EB0A10316897
:1027C0004900B0FBF1F807E00AEBCA0000EB0A1081
:1027D00031688900B0FBF1F86420B8FBF0F0040127
:1027E0002009642101FB1089A88900F4004040B150
:1027F000322000EBC900B0FBF1F000F00700044309
:1028000008E0322000EB09106421B0FBF1F000F089
:102810000F0004432C8106B0BDE8F0874FF4165139
:10282000016000218180C18001810C214181002152
:102830008181704710B502460020108A4FF2FF03D5
:1028400018400B884C8823438C882343CC8823432F
:102850001843108210BD0021018041808180C18019
:10286000704721B1828942F40052828104E082895A
:102870004DF6FF731A4082817047F0B5034600247D
:1028800000260025002040F66A17B94200D100BF9B
:102890001846C1F3421401F01F06012707FA06F596
:1028A000012C01D10C3004E0022C01D1103000E0E9
:1028B00014301AB107682F43076002E00768AF437E
:1028C0000760F0BD1AB1838A0B43838202E0838ADA
:1028D0008B4383827047028A4FF6F0731A4002825C
:1028E000028A0A430282704782894FF2FF731A40BC
:1028F000828182890A438281704721B1828942F0B4
:102900000202828104E082894FF6FD731A408281BF
:102910007047028A4FF6DF731A400282028A0A4326
:102920000282704721B1028A42F48042028204E0AE
:10293000028A4BF6FF731A4002827047C1F3080205
:102940008280704701468888C0F3080070478189FB
:1029500041F0010181817047028BD2B20283028B68
:1029600042EA012202837047028B02F47F42028313
:10297000028B0A430283704721B1828A42F020020F
:10298000828204E0828A4FF6DF731A4082827047A7
:1029900021B1828A42F01002828204E0828A4FF6DC
:1029A000EF731A408282704721B1828A42F0080296
:1029B000828204E0828A4FF6F7731A40828270475F
:1029C00021B1828942F40042828103E08289C2F30C
:1029D0000E028281704721B1828A42F400628282B3
:1029E00004E0828A4FF2FF731A4082827047828A23
:1029F0004FF6FB731A408282828A0A4382827047B2
:102A000021B1828A42F00202828204E0828A4FF679
:102A1000FD731A408282704702460020B1F5007FA4
:102A200000D100BF13880B400BB1012000E0002053
:102A3000704701F40072B2F5007F00D100BFCA43B5
:102A40000280704770B50246002400230025002054
:102A500040F66A16B14200D100BFC1F3421501F041
:102A60001F03012606FA03F3012D02D19689334094
:102A700006E0022D02D1168A334001E0968A3340E7
:102A80000C12012606FA04F41688344013B10CB176
:102A9000012000E0002070BD10B50022002340F6A8
:102AA0006A14A14200D100BF0A1201249440A3B2CB
:102AB000DC43048010BD00000038014000440040A9
:102AC00000480040004C00400050004010B5044653
:102AD000FA48844208D101214015FFF7A9FD0021E1
:102AE0006015FFF7A5FD17E0F548844208D10121E4
:102AF0000015FFF79DFD00212015FFF799FD0BE064
:102B0000F048844208D10121C803FFF791FD00215C
:102B10004FF40040FFF78CFD10BD30B50246002099
:102B200000235068E84C20400D790C6844EA0524E5
:102B3000204350609068E54C2040D1E902542C437A
:102B40004D7944EA450420439060D06A20F4700037
:102B50000C7C641EE4B2234340EA0350D06230BDD3
:102B600000210160017141718160C1600121017426
:102B7000704721B1826842F00102826003E08268FE
:102B800022F001028260704721B1826842F48072B3
:102B9000826003E0826822F480728260704710B520
:102BA0000023CBB21AB144681C43446002E044687D
:102BB0009C43446010BD816841F00801816070470A
:102BC000014600208A6802F008020AB1012000E0F4
:102BD00000207047816841F0040181607047014620
:102BE00000208A6802F004020AB1012000E00020FF
:102BF000704721B1826842F4A002826003E08268DB
:102C000022F4A00282607047014600208A6802F424
:102C100080020AB1012000E00020704710B50A468A
:102C200000210023416821F46041531E41EA4331F1
:102C3000416010BD21B1426842F40062426003E08D
:102C4000426822F4006242607047F0B504460D46C7
:102C500000200021092D11DDE068A5F10A0606EB30
:102C60004607072606FA07F18843A5F10A0606EB90
:102C7000460603FA06F10843E0600CE0206905EB24
:102C80004507072606FA07F1884305EB450603FAD0
:102C900006F108432061072A0FDA606B561E06EB27
:102CA00086071F2606FA07F18843561E06EB86069E
:102CB00005FA06F10843606322E00D2A0FDA206B63
:102CC000D61F06EB86071F2606FA07F18843D61F94
:102CD00006EB860605FA06F10843206310E0E06A79
:102CE000A2F10D0606EB86071F2606FA07F18843B8
:102CF000A2F10D0606EB860605FA06F10843E0622E
:102D0000F0BD21B1826842F48012826003E08268E3
:102D100022F48012826070470146C86C80B270470E
:102D200066484C300068704721B1426842F48062C6
:102D3000426003E0426822F480624260704721B141
:102D4000426842F48052426003E0426822F48052BA
:102D5000426070470A460021816821F4E041114336
:102D60008160704721B1826842F40042826003E0D2
:102D7000826822F400428260704721B1826842F486
:102D80000212826003E0826822F4021282607047BD
:102D9000014600208A6802F400120AB1012000E016
:102DA00000207047F0B5044615460020002200269A
:102DB000092911DDE068A1F10A0707EB470C072795
:102DC00007FA0CF29043A1F10A0707EB470703FA51
:102DD00007F21043E0600CE0206901EB410C07278B
:102DE00007FA0CF2904301EB410703FA07F2104394
:102DF0002061A06BC0F30156EF1C06F1010CA7EB9C
:102E00000C0707EB870C1F2707FA0CF29043EF1C07
:102E100006F1010CA7EB0C0707EB870701FA07F295
:102E20001043A063F0BD10B50A4600210023816B5A
:102E300021F44011531E41EA0351816310BD08B5CE
:102E4000002300930090009B0B440093009B1A60AA
:102E500008BD08B5024600200090009201F128004C
:102E6000009B184400900098006880B208BD0A4694
:102E700000214168164B194011434160704741627F
:102E8000826270470A460021416821F01F01114308
:102E90004160704740B109490831096841F40001B7
:102EA000064A0832116007E004490831096821F434
:102EB0000001024A083211607047000000240140FE
:102EC00000280140003C0140FFFEF0FFFDF7F1FF4C
:102ED000FFFD3FFF0246002013680B400BB10120AD
:102EE00000E000207047CA430260704770B5024698
:102EF0000020002300240B125568CEB205EA060418
:102F000015681D4015B10CB1012000E0002070BD16
:102F100000220A12D34303607047000010B5044634
:102F2000FE48844208D10121C014FFF781FB002133
:102F3000E014FFF77DFBC4E0B4F1804F08D101211C
:102F40000846FFF782FB00210120FFF77EFBB8E077
:102F5000F348844208D101210220FFF776FB0021CB
:102F60000220FFF772FBACE0EE48844208D1012159
:102F70000420FFF76AFB00210420FFF766FBA0E0B6
:102F8000E948844208D101210820FFF75EFB0021B7
:102F90000820FFF75AFB94E0E448844208D101215D
:102FA0001020FFF752FB00211020FFF74EFB88E0B6
:102FB000DF48844208D101212020FFF746FB002191
:102FC0002020FFF742FB7CE0DA48844208D101214F
:102FD0004014FFF72DFB00216014FFF729FB70E080
:102FE000D548844209D10121C804FFF721FB002103
:102FF0004FF40020FFF71CFB63E0D048844209D166
:1030000001210805FFF714FB00214FF48010FFF7A2
:103010000FFB56E0CA48844209D101214805FFF759
:1030200007FB00214FF40010FFF702FB49E0C54801
:10303000844208D101214020FFF707FB00214020F6
:10304000FFF703FB3DE0C048844208D10121802006
:10305000FFF7FBFA00218020FFF7F7FA31E0BB48C9
:10306000844208D101218015FFF7EFFA0021A01555
:10307000FFF7EBFA25E0B648844209D101210804A4
:10308000FFF7D6FA00214FF48030FFF7D1FA18E0AD
:10309000B048844209D101214804FFF7C9FA002150
:1030A0004FF40030FFF7C4FA0BE0AB48844208D17C
:1030B00001218804FFF7BCFA00214FF48020FFF7BC
:1030C000B7FA10BD00220288944B98420ED0994B5B
:1030D00098420BD0B0F1804F08D0914B984205D068
:1030E000904B984202D0904B984204D14FF68F7388
:1030F0001A404B881A438D4B984207D08C4B98420C
:1031000004D04FF6FF431A40CB881A4302808B88C5
:1031100083850B880385814B98420BD0854B984261
:1031200008D08B4B984205D08A4B984202D08A4BEC
:10313000984201D10B7A038601238382704770B5D0
:10314000002400220023058C4FF6FE7635400584CE
:10315000028C8388048B4FF68F752C40B51E2C4053
:103160000D882C43751E2A400D892A434D882A4319
:103170006A4DA8420BD06F4DA84208D0744DA842AA
:1031800005D0744DA84202D0734DA84213D14FF61A
:10319000F7752A404D892A434FF6FB752A408D88E2
:1031A0002A434FF6FF652B404FF6FF552B408D8984
:1031B0002B43CD892B4383800483CD88858602846D
:1031C00070BD70B5002400220023058C4FF6EF7609
:1031D00035400584028C8388048B48F6FF752C40AB
:1031E0004FF6FF452C400D884FF6FF7606EA052581
:1031F0002C434FF6DF752A400D8906EA05152A4350
:103200004D8806EA05152A43444DA84202D0494D8F
:10321000A8421DD14FF67F752A404D894FF6FF76A3
:1032200006EA05152A434FF6BF752A408D8806EA3F
:1032300005152A434FF6FF352B404FF2FF752B4003
:103240008D8906EA85052B43CD8906EA85052B4342
:1032500083800483CD880587028470BD70B5002407
:1032600000220023058C4FF6FF6635400584028C52
:103270008388848B4FF68F752C404FF6FC752C405D
:103280000D882C434FF6FF552A400D894FF6FF76E7
:1032900006EA05252A434D8806EA05252A431F4DDF
:1032A000A84202D0234DA8421DD14FF2FF752A40FB
:1032B0004D894FF6FF7606EA05252A434FF6FF357E
:1032C0002A408D8806EA05252A434EF6FF752B40D5
:1032D0004DF6FF752B408D8906EA05152B43CD89E8
:1032E00006EA05152B4383808483CD888587028475
:1032F00070BD70B5002200230024058C4EF6FF76C9
:1033000035400584038C8488828B48F6FF752A40FB
:103310004FF6FF452A400D8820E00000002C0140B8
:103320000004004000080040000C00400010004075
:103330000014004000340140004C014000500140A6
:103340000054014000180040001C004000200040D4
:103350000040014000440140004801404FF6FF7624
:1033600006EA05252A434DF6FF752B400D8906EA2E
:1033700005352B434D8806EA05352B43FA4DA84207
:1033800002D0FA4DA84208D14BF6FF752C408D892A
:103390004FF6FF7606EA85152C4384808283CD881C
:1033A000A0F84050038470BD828B4FF2FF331A4067
:1033B0008283828B4FF6FF7303EA01231A438283D1
:1033C0007047F0B50C461546002200210026078CF8
:1033D0004EF6FF7C07EA0C070784828B018C4FF6C0
:1033E000FF7707EA043640F6FF473A404FF6FF778B
:1033F00007EA05273A434FF6FF7707EA03373A43D0
:10340000D94FB8420ED0D94FB8420BD0B0F1804F4F
:1034100008D0D74FB84205D0D64FB84202D0D64FC9
:10342000B84206D14DF6FF77394046F4805739430C
:1034300005E047F6FF57394044F48057394382830B
:103440000184F0BD828B4FF6F3731A408283828B26
:103450000A4382837047F0B50C46154600220021CE
:103460000026078C4FF6FF6C07EA0C070784828B57
:10347000018C4FF6FF7707EA04264FF60C773A40A7
:103480004FF6FF7707EA03172F433A43B64FB84288
:103490000ED0B64FB8420BD0B0F1804F08D0B44F29
:1034A000B84205D0B34FB84202D0B34FB84206D1AC
:1034B0004FF6FF57394046F48077394305E04FF225
:1034C000FF57394044F48077394382830184F0BD4B
:1034D000028B4FF2FF331A400283028B4FF6FF73C9
:1034E00003EA01231A4302837047F0B50C461546E0
:1034F000002200210026078C4FF6EF7C07EA0C071C
:103500000784028B018C4FF6FF7707EA041640F61A
:10351000FF473A404FF6FF7707EA03373A434FF643
:10352000FF7707EA05273A438F4FB8420ED08F4FF7
:10353000B8420BD0B0F1804F08D08D4FB84205D0C3
:103540008C4FB84202D08C4FB84206D14FF6DF778D
:10355000394046F01007394305E04FF65F773940B0
:1035600044F01007394302830184F0BD028B4FF60B
:10357000F3731A400283028B0A4302837047F0B54B
:103580000C46154600220021068C4FF6FE773E4081
:103590000684028B018C4FF60C7632407E1C06EAC4
:1035A00003162E433243704EB0420ED06F4EB042DF
:1035B0000BD0B0F1804F08D06D4EB04205D06D4EAB
:1035C000B04202D06C4EB04206D14FF6FD7631408B
:1035D00044F00106314305E04FF6F576314044F002
:1035E0000106314302830184F0BD70B505460C46E7
:1035F0005D4885420ED05D4885420BD0B5F1804FC5
:1036000008D05B48854205D05A48854202D05A48C6
:10361000854200D100E000BF208850B92389A288EC
:1036200061882846FFF7ABFFE1882846FFF79EFF39
:1036300025E0208804280AD12389A28861882846A9
:10364000FFF753FFE1882846FFF742FF17E0208885
:1036500008280AD12389A28861882846FFF7FBFE43
:10366000E1882846FFF7EEFE09E02389A2886188F9
:103670002846FFF7A6FEE1882846FFF795FE70BDB5
:103680002DE9F04105460C4600260127608808B95F
:10369000022600E00026A088012801D1022700E0D0
:1036A00001272088A0B92389A28861882846FFF7CE
:1036B00066FFE1882846FFF759FF23893A463146DD
:1036C0002846FFF712FFE1882846FFF701FF13E0C5
:1036D0002389A28861882846FFF707FFE1882846EA
:1036E000FFF7F6FE23893A4631462846FFF747FFA3
:1036F000E1882846FFF73AFFBDE8F0810A884B8849
:103700001A438B881A43CB881A430B891A434B8977
:103710001A438B891A43A0F8442070474FF6FF7173
:10372000818000210180C1804180017270470021A9
:10373000018041808180C180018141818181C1817D
:103740007047002101804180012181800021C180DA
:10375000018170470021018041808180C180018109
:103760004181818170470000002C014000340140FC
:103770000004004000080040000C004021B1028815
:1037800042F00102028004E002884FF6FE731A4004
:103790000280704731B1B0F8442042F40042A0F8F2
:1037A000442005E0B0F84420C2F30E02A0F8442003
:1037B00070471AB183890B43838102E083898B436D
:1037C000838170478182704741EA0203A0F8483044
:1037D00070471AB183890B43838102E083898B434D
:1037E0008381704701894FF6F8721140018170475B
:1037F0000A46002101894FF68F7319401143018158
:10380000704730B504460D4629462046FFF7F0FFC5
:10381000208940F00700208130BD2DE9F0410446A9
:103820000D4616461F46602D06D13B460122314605
:103830002046FFF75AFE05E03B460122314620466E
:10384000FFF79DFE29462046FFF7D2FF208940F072
:1038500007002081BDE8F08130B50C4600210189C8
:10386000C9B24FF6FF7505EA0325154325432943E1
:10387000018130BD2DE9F04105460E4617469846B8
:10388000002443463A4631462846FFF7E5FF2C8997
:103890004FF6F870044044F007044FF68F70044070
:1038A00044F070042C81BDE8F081F0B504460D466B
:1038B00016461F463B46324629462046FFF7CCFFB8
:1038C000208940F480402081F0BD018582827047CC
:1038D0000A46002101884FF68F7319401143018079
:1038E0007047F0B50C4615461E4600210022002305
:1038F0000189028B038C4FF6F877394021434FF64C
:10390000FC473A4040F201173A434FF6DD773B401F
:103910004FF6FF7707EA06172F433B4301810283E7
:103920000384F0BD0A460021018B4FF68F731940C6
:103930001143018370470A460021018B48F6FF734B
:1039400019404FF6FF7303EA0223194301837047BE
:103950000A460021818B4FF68F73194011438183F2
:1039600070470A460021818B48F6FF7319404FF6D5
:10397000FF7303EA022319438183704721B1028850
:1039800042F08002028004E002884FF67F731A4002
:103990000280704721B1828842F00402828004E0F4
:1039A00082884FF6FB731A408280704721B182886B
:1039B00042F00802828004E082884FF6F7731A40D2
:1039C0008280704721B1828842F00102828004E047
:1039D00082884FF6FE731A40828070470A460021A3
:1039E000018B4FF6F77319401143018370470A4664
:1039F0000021018B4FF2FF7319404FF6FF7303EA6A
:103A000002231943018370470A460021818B4FF638
:103A1000F77319401143818370470A460021818B57
:103A20004FF2FF7319404FF6FF7303EA0223194365
:103A3000818370470A460021018B4FF6FB731940C2
:103A40001143018370470A460021018B4FF6FF3373
:103A500019404FF6FF7303EA0223194301837047AD
:103A60000A460021818B4FF6FB7319401143818375
:103A700070470A460021818B4FF6FF3319404FF6FD
:103A8000FF7303EA02231943818370470A4600212A
:103A9000018B4FF67F7319401143018370470A462B
:103AA0000021018BC1F30E014FF6FF7303EA0223DD
:103AB0001943018370470A460021818B4FF67F73BB
:103AC00019401143818370470A460021818BC1F35D
:103AD0000E014FF6FF7303EA0223194381837047F7
:103AE0000A460021018C4FF6FD73194011430184F1
:103AF00070470A460021018C4FF6F77319401143B5
:103B0000018470470A460021018C4FF6DF7319408B
:103B10004FF6FF7303EA02131943018470470A4604
:103B20000021018C4FF67F7319404FF6FF7303EAB3
:103B300002131943018470470A460021018C4FF695
:103B4000FF5319404FF6FF7303EA02231943018420
:103B500070470A460021018C4FF2FF7319404FF65F
:103B6000FF7303EA02231943018470470A460021C8
:103B7000018C4DF6FF7319404FF6FF7303EA0233D1
:103B800019430184704730B5002301248C40A3B24F
:103B9000048C9C430484048C02FA01F5ADB22C43DE
:103BA000048430BD30B5002304248C40A3B2048CBF
:103BB0009C430484048C02FA01F5ADB22C430484C6
:103BC00030BD70B50346002000241846183001258A
:103BD0008D40ACB21D8CA5431D8409B1082909D1C3
:103BE00000EB6100056825F0700505600568154368
:103BF00005600EE00D1FC5F34E052844056825F449
:103C0000E045056005684FF6FF7606EA0226354373
:103C1000056070BD21B1028842F00202028004E01A
:103C200002884FF6FD731A400280704721B1028866
:103C300042F00402028004E002884FF6FB731A404F
:103C40000280704721B1828842F08002828004E0C5
:103C500082884FF67F731A408280704702884FF641
:103C6000F7731A40028002880A43028070478288F4
:103C70004FF68F731A40828082880A438280704791
:103C800002894FF6F8731A40028102890A430281C1
:103C9000704702894FF67F731A40028102890A43F6
:103CA00002817047818470478185704781867047A3
:103CB0000187704781877047A0F8401070470288DD
:103CC0004FF6FF431A40028002880A430280704781
:103CD0000146888E70470146088F70470146888FDD
:103CE00070470146B1F8400070470146888C704724
:103CF0000146088D704702460020138A0B400BB125
:103D0000012000E000207047CA430282704730B5AE
:103D10000246002000230024158A05EA0103958944
:103D200005EA010413B10CB1012000E0002030BD10
:103D3000CA4302827047000030B58BB00020079064
:103D4000089009900A900125E0A0E3A3E3A2E5A171
:103D50000090F048FEF784F807A800210291039133
:103D6000CDE9041000912B02D8A20191DAA1DBA0C9
:103D700000F019FC002851D1089A91B2079803F07D
:103D8000E9FB4FF4967003F0FCFB0446002C41D095
:103D9000204600F0D3FB02283CD1204600F068FD0D
:103DA000062831D2DFE800F003171C21262BDAA108
:103DB000D848FEF755F8002010214FF6FF724FF457
:103DC0007843CDE900210290D8A28F212B20FDF766
:103DD000EDF900251DE0D8A1CE48FEF741F818E026
:103DE000DCA1CC48FEF73CF813E0E3A1C948FEF79C
:103DF00037F80EE0E8A1C748FEF732F809E0EFA176
:103E0000C448FEF72DF804E0F7A1C248FEF728F8F1
:103E100000BF00BF07A800F049FB03E0F9A1BD48BF
:103E2000FEF71EF828460BB030BD7FB5002000908D
:103E30000190029003900125684601F0E5F9B0B9C0
:103E4000019A91B2009803F085FBFA2003F099FBE8
:103E5000044634B1204600F071FB0D2804D1002542
:103E600002E0284604B070BD684600F01FFB2846FB
:103E7000F8E770B590B004464021684604F0C0F9F8
:103E8000E9A1204604F089F84021684604F0B8F919
:103E9000EA48B0F902000A2190FBF1F201FB120599
:103EA000E648B0F9020090FBF1F62B463246E4A159
:103EB000684603F069FE6946204604F0FCF840219C
:103EC000684604F09DF9DD480288E9A1684603F0E0
:103ED0005BFE6946204604F0EEF84021684604F097
:103EE0008FF9D6488279EDA1684603F04DFE694608
:103EF000204604F0E0F84021684604F081F9CF48FC
:103F00008288F2A1684603F03FFE6946204604F02D
:103F1000D2F8F9A1204604F0CEF8204604F061F86A
:103F2000C0B210B070BD30B5C7B00020439044900F
:103F30004590469000240025F0A17648FDF790FFBB
:103F40004FF4807103A804F05BF903A8FFF791FF19
:103F50000446002C34D043A80123002221460090BF
:103F60005AA000F06BFDC8B908E003A8415D449A6F
:103F7000501C449043988154681C05B2A542F4DB60
:103F8000449A91B2439803F0E5FAE4A16148449A57
:103F9000FDF766FF43A800F089FA11E0E3A15D4850
:103FA000FDF75EFF002010214FF6FF724FF47843BB
:103FB000CDE900210290E5A28F212B20FDF7F6F834
:103FC00047B030BD2DE9F04F8DB0824600200990FA
:103FD0000A900B900C9008900790069000260027FE
:103FE00000248146504600F0A9FA0646042E46D029
:103FF0000F2E6AD106AB08AA07A9504600F0AAFD09
:104000000746002F3AD1BDF818000090D2A14148D0
:10401000DDE90723FDF724FF089802F0FDF880464C
:10402000B8F1000F08D101F007F983465A46D3A131
:104030003848FDF715FF0FE0D5A1404602F09FFB81
:1040400005466869012802D1D249086004E0686920
:1040500010B90020CF49086009AADDE9070100F086
:10406000BFFD58B9CCA12B48FDF7FAFE0A9A91B2D0
:10407000099803F06FFA09A800F018FAB7E1504662
:1040800001F017F890B9CAA12248FDF7E9FE002017
:1040900010214FF6FF724FF47843CDE900210290D2
:1040A000CBA28F212B20FDF781F80DE000201021FD
:1040B0004FF6FF724FF47843CDE900210290C7A27A
:1040C0008F212B20FDF772F891E18DE131303138ED
:1040D000373836323635000031313100353630323E
:1040E000363900004F6E654E65745F4465764C69E5
:1040F0006E6B0D0A50524F49443A2025732C0941EA
:104100005549463A2025732C0944455649443A25D9
:10411000730D0A0000380140546970733A09C1AC4C
:10412000BDD3B3C9B9A60D0A00000000C1ACBDD310
:10413000B3C9B9A6000000005741524E3A09C1ACBC
:10414000BDD3CAA7B0DCA3BAD0ADD2E9B4EDCEF3EB
:104150000D0A00005741524E3A09C1ACBDD3CAA75F
:10416000B0DCA3BAB7C7B7A8B5C4636C69656E7491
:1041700069640D0A000000005741524E3A09C1AC73
:10418000BDD3CAA7B0DCA3BAB7FECEF1C6F7CAA7A3
:10419000B0DC0D0A000000005741524E3A09C1AC94
:1041A000BDD3CAA7B0DCA3BAD3C3BBA7C3FBBBF2C2
:1041B000C3DCC2EBB4EDCEF30D0A00005741524E02
:1041C0003A09C1ACBDD3CAA7B0DCA3BAB7C7B7A878
:1041D000C1B4BDD328B1C8C8E7746F6B656EB7C7EB
:1041E000B7A8290D0A0000004552523A09C1ACBDDA
:1041F000D3CAA7B0DCA3BACEB4D6AAB4EDCEF30D21
:104200000A0000005741524E3A094D5154545F5034
:1042100061636B6574436F6E6E656374204661699C
:104220006C65640D0A0000007B2264617461737424
:104230007265616D73223A5B000000003600002059
:104240007B226964223A2254656D70222C226461BB
:104250007461706F696E7473223A5B7B2276616C55
:104260007565223A25642E25647D5D7D2C00000055
:104270007B226964223A22434F32222C22646174E9
:1042800061706F696E7473223A5B7B2276616C7524
:1042900065223A25647D5D7D2C0000007B226964E7
:1042A000223A22486F6E67776169222C226461741A
:1042B00061706F696E7473223A5B7B2276616C75F4
:1042C00065223A25647D5D7D000000007B226964E3
:1042D000223A2259616C69222C2264617461706FE8
:1042E000696E7473223A5B7B2276616C7565223A43
:1042F00025647D5D7D0000005D7D00005469707364
:104300003A094F6E654E65745F53656E644461741F
:10431000612D4D5154540D0A0000000053656E6428
:104320002025642042797465730D0A005741524E6E
:104330003A094D5154545F4E657742756666657211
:10434000204661696C65640D0A000000B7A2CBCD00
:10435000B4EDCEF300000000636D6469643A20257B
:10436000732C207265713A2025732C207265715F61
:104370006C656E3A2025640D0A0000004572726F6C
:1043800072206265666F72653A205B25735D0A0074
:104390004C454400B4012242546970733A09536594
:1043A0006E6420436D64526573700D0A0000000056
:1043B000546970733A094D515454205075626C69B8
:1043C00073682053656E64204F4B0D0A0000000097
:1043D000C9CFB4ABCAFDBEDD00000000C9CFB4AB8D
:1043E000CAA7B0DC000000004FF0FF3700BF00BFDD
:1043F00003F06CF8781C10B90DB0BDE8F08F7D218A
:10440000089803F09CFD0446C4B1781CB0B1641C4C
:1044100006E014F8012B484609F1010903A90A54E2
:104420002078302802DB20783928F2DD002003A92B
:1044300001F8090003A803F075FD81460F2E01D095
:10444000032E05D1079803F0F4FA089803F0F1FA67
:1044500000BFD1E770B504460E460025206898B924
:1044600001202073304603F0B5FA20602068E0B1E7
:1044700000206060A66003E00020216848556D1CA4
:10448000A068A842F8D810E00220207303E00020C2
:10449000216848556D1CA068A842F8D800206060CB
:1044A000A068B04201D20020206070BD10B5044663
:1044B000207B012802D1206803F0BBFA0020206095
:1044C0006060A060207310BD0246002301230DE050
:1044D00002F07F000870D2092AB1087840F080000D
:1044E0000870491C01E0184670475B1C042BEFDD87
:1044F0004FF0FF30F8E7F0B504460D46264601239D
:1045000000201060002114E0775C07F07F0710683E
:1045100007FB03001060705C00F0800008B9481CC5
:10452000F0BDDB01B3F5001F02D36FF00100F7E728
:10453000491CA942E8DB4FF0FF30F1E7F8B504462B
:10454000FF2720780511012D01DB0E2D01DD3846F6
:10455000F8BD032D24D1002000906A460421601C80
:10456000FFF7C9FF2044461C0098022803D3207897
:1045700000F0010008B1FF20EAE77078317840EAE6
:104580000120801C0099884201D9FF20E0E7F8A1B2
:10459000B01C03F0F0FC08B10F2700E0032700E097
:1045A0002F463846D4E72DE9FF4F83B082468B462D
:1045B0009146159C0025002002900F270190484647
:1045C00003F00FFD0FFA80F8B9F1000F03D10120BD
:1045D00007B0BDE8F08F08F10200384487B21098A8
:1045E00008B145F00205129878B145F0040512981B
:1045F00003F0F7FCC0B20290139803F0F2FC0146FE
:104600000298001D0844384487B2119820B101284F
:1046100004D0022808D104E000BF07E045F00C05F3
:1046200004E045F0140501E00220D1E700BF149832
:1046300008B145F02405BAF1000F02D0BBF1000F1C
:1046400001D10320C4E745F0C005504603F0C9FC82
:104650000646584603F0C5FC3044001D384487B276
:1046600039462046FFF7F6FE206808B90420AFE778
:104670003946206803F0A2FD10216268501C60607A
:1046800020688154D4E90023D118781FFFF71CFF5C
:1046900000B201900198002804DA2046FFF706FFD7
:1046A000052095E761680198084460600021626810
:1046B000501C60602068815404216268501C606056
:1046C000206881544D216268501C606020688154CC
:1046D00051216268501C60602068815454216268D6
:1046E000501C6060206881546268501C60602068C3
:1046F000815404216268501C6060206881546168A4
:10470000481C6060206845540698010A6268501C85
:104710006060206881540698C1B26268501C606075
:1047200020688154C8F307216268501C60602068CB
:1047300081546268501C6060206800F80280D4E9EF
:10474000001288184246494603F003FC6068404462
:10475000606005F00400B8B30026139808B986A07D
:104760001390129803F03DFC86B2310A6268501C27
:104770006060206881546268501C606020688654C4
:10478000D4E9001288183246129903F0E2FB6068FF
:1047900030446060139803F024FC86B2310A6268EA
:1047A000501C6060206881546268501C6060206802
:1047B0008654D4E9001288183246139903F0C9FBD5
:1047C00060683044606000BF05F08000C8B15046AA
:1047D00003F007FC86B2310A6268501C60602068F2
:1047E00081546268501C606020688654D4E90012CD
:1047F00088183246514603F0ACFB60683044606074
:1048000000BF05F04000C8B1584603F0EAFB86B28D
:10481000310A6268501C6060206881546268501CD4
:10482000606020688654D4E90012881832465946E0
:1048300003F08FFB60683044606000BF0020C7E673
:1048400010B5044602212046FFF704FE206808B98F
:10485000012010BDE0216268501C60602068815416
:1048600000216268501C6060206881540020F0E7DD
:1048700001464878022801D001207047887810B19D
:104880008878012801D1C878F7E7FF20F5E72DE9FE
:10489000FF4F83B0834690469946139C002600251F
:1048A0000020029001900027BBF1000F03D10120EE
:1048B00007B0BDE8F08F00250AE00498405D23288A
:1048C00003D00498405D2B2801D10220F0E76D1C35
:1048D0000498405D0028F0D147F03007119808B1E6
:1048E00047F0010705EB0900861C109820B101284C
:1048F00004D002280AD105E000BF09E047F0020712
:10490000B61C05E047F00407B61C01E00320CFE722
:1049100000BF98F80000022822D14FF0000A00BF23
:1049200050460AF1010A18F800007D28F8D1AAF1D2
:10493000030A0AF1070002900298A9EB000AF01C92
:10494000A0EB0A012046FFF785FD206808B9042086
:10495000AEE7F21CA2EB0A01206803F02FFC11E085
:10496000F11C2046FFF776FD206838B904209FE748
:10497000246372657100000000000000F11C2068D3
:1049800003F01CFC6168481C606020684754D4E94F
:10499000000281183046FFF797FD0190019800282A
:1049A00004DA2046FFF782FD052081E7616801985F
:1049B00008446060C5F307216268501C606020688D
:1049C00081546268501C606020688554D4E90012EC
:1049D00088182A46049903F0BCFA6068284460608D
:1049E000109860B14FEA1B216268501C606020681B
:1049F00081546268501C6060206800F802B0B8F111
:104A0000000F19D098F8000002280BD1D4E9001249
:104A100088184146029A03F05AFB616802980844DC
:104A2000606009E0D4E9001288184A46414603F064
:104A30004EFB606848446060002039E72DE9FF4183
:104A400007460D4690461E460A9C01200021CDE9EE
:104A50000001EB1C0A46FAA1CDE902040A20FFF787
:104A600016FF88B96168481C606020684654C5F329
:104A700007216268501C6060206881546268501C85
:104A800060602068855403E0012004B0BDE8F08137
:104A90000020FAE72DE9F04F85B080460D4691469B
:104AA000012004900027002600244FF0000A404611
:104AB00003F097FA00F10D0B584602F08BFF074602
:104AC0001FB9049805B0BDE8F08F4246DDA1384615
:104AD00003F05AF8384603F084FAC6B2F01D00EB32
:104AE000050AAAEB050002F075FF044624B9384612
:104AF00002F09FFF0498E5E702202070002060701C
:104B0000A67032463946E01C03F0E1FA290EF01C8B
:104B10002154C5F30741301D2154C5F30721701DF1
:104B20002154B01D255401200021CDE90001534638
:104B30002246C3A1CDE902090A20FFF7A8FE08B961
:104B400000200490384602F074FF204602F071FF06
:104B50000498B7E72DE9F84380460C4615461E46F3
:104B60002F2108F1060003F0EAF907460020009023
:104B700017B90120BDE8F8837F1C6A46042108F1BB
:104B80000100FFF7B8FC252002F024FF2060206818
:104B900008B90220EEE72521206803F00FFB24224C
:104BA0003946206803F093FA243700982C38308077
:104BB0003188481C02F00EFF2860286820B9206860
:104BC00002F037FF0320D5E73288511C286803F034
:104BD000F5FA32883946286803F079FA0020C9E7E7
:104BE0002DE9FF5F07460D469046384603F0F9F978
:104BF00086B2284603F0F5F91FFA80FA4FF0000953
:104C0000B01D02F0E7FE04461CB9012004B0BDE867
:104C1000F09FB11D204603F0D1FA8EA001682160FB
:104C20008088A08032463946204603F092F9284613
:104C300003F0D7F983460120002100915B462A4604
:104C4000CDE90208019121460A20FFF720FE10B9A4
:104C50004FF0000901E04FF00109204602F0E9FEA3
:104C60004846D3E72DE9FF5F8046174699460E9CDC
:104C70000026B246B3460025B8F1000F03D101204B
:104C800004B0BDE8F09F0BE057F8250008B90220FA
:104C9000F6E757F8250003F0A4F90644681CC5B2EE
:104CA0004D45F1DB09EB4900801C00EB060A0AF1D7
:104CB00005012046FFF7CEFB206808B90320DFE797
:104CC00082216268501C606020688154D4E900022F
:104CD00081185046FFF7F8FB0FFA80FBBBF1000F7D
:104CE00004DA2046FFF7E2FB0420C9E76068584475
:104CF00060604FEA18216268501C6060206881542F
:104D00006268501C6060206800F80280002524E082
:104D100057F8250003F065F90646C6F307216268D7
:104D2000501C6060206881546268501C606020687C
:104D30008654D4E90023D01857F82510324603F0E2
:104D400008F96068304460600198C1B26268501C24
:104D5000606020688154681CC5B24D45D8DB0020D6
:104D60008EE70146FF208A78A2B9CA78142A11D1A9
:104D70000A7932B1012A05D0022A04D0802A06D14C
:104D800003E000BF00BF002003E0012001E002209B
:104D900000BF00BF70472DE9F05F80460F46914687
:104DA0001C460026B246B3460025B8F1000F02D1DA
:104DB0000120BDE8F09F0BE057F8250008B902205C
:104DC000F7E757F8250003F00CF90644681CC5B254
:104DD0004D45F1DB022000EB490000EB060A0AF129
:104DE00005012046FFF736FB206808B90320E0E7FD
:104DF000A2216268501C606020688154D4E90002DE
:104E000081185046FFF760FB0FFA80FBBBF1000FE3
:104E100004DA2046FFF74AFB0420CAE760685844DA
:104E200060604FEA18216268501C606020688154FD
:104E30006268501C6060206800F8028000252BE04A
:104E4000246470007B2264735F6964223A222573B4
:104E5000227D000024637273702F000057F8250034
:104E600003F0BFF80646C6F307216268501C606075
:104E7000206881546268501C606020688654D4E9C0
:104E80000023D01857F82510324603F062F8606806
:104E900030446060681CC5B24D45DFDB002088E708
:104EA000014601208A781AB9CA781E2A00D100204A
:104EB00070472DE9FC5F81460D4614461E46DDE92C
:104EC0000C8B99F8000000F00F0A002001900AF006
:104ED00008000090CAF341008BF8000001AA0421E9
:104EE00009F10100FFF707FB4844471C019802281D
:104EF00002D30AF0010010B1FF20BDE8FC9F7878D2
:104F0000397840EA012020802088801C019988425D
:104F100001D9FF20F1E7AFF2A851B81C03F02BF83C
:104F200008B10F20E9E79BF8000020B101283DD02F
:104F3000022877D13BE0009808B1FF20DDE7218807
:104F4000481C02F047FD2860286808B9FF20D4E714
:104F50002288511C286803F031F92288B91C28687E
:104F600003F0B5F80198801E2188401AA8F80000C7
:104F7000B8F80010481C02F02DFD3060306820B9F0
:104F8000286802F056FDFF20B7E7B8F80020511C52
:104F9000306803F013F9B8F80020B4F800C0BB1C67
:104FA0000CEB0301306803F092F84FE000BF20885B
:104FB000801C0199884201D9FF209EE72088C01CEF
:104FC000395C2088801C385C41EA00210E98018001
:104FD0000E9808B9FF2090E72188481C02F0FAFCDF
:104FE0002860286808B9FF2087E72288511C2868B4
:104FF00003F0E4F82288B91C286803F068F80198E7
:10500000001F2188401AA8F80000B8F80010481CBA
:1050100002F0E0FC3060306828B9286802F009FD31
:10502000FF206AE710E0B8F80020511C306803F058
:10503000C5F8B8F80020B4F800C03B1D0CEB030124
:10504000306803F044F801E0FF2056E700BF2B2151
:10505000284602F074FF20B92321284602F06FFF92
:1050600008B1FF2049E7002047E770B505460C4628
:1050700004212046FFF7EEF9206808B9012070BD31
:1050800040216268501C606020688154022162687F
:10509000501C60602068815429126268501C606056
:1050A000206881546268501C60602068855400202C
:1050B000E5E701464878022801D00120704788784A
:1050C00020B9C8780A2801D10020F7E70120F5E7C8
:1050D00070B505460C4604212046FFF7BBF9206851
:1050E00008B9012070BD50216268501C60602068C2
:1050F000815402216268501C60602068815429122A
:105100006268501C6060206881546268501C606056
:10511000206885540020E5E701464878022801D040
:1051200001207047887820B9C8780A2801D100206A
:10513000F7E70120F5E770B505460C460421204647
:10514000FFF788F9206808B9012070BD6221626804
:10515000501C60602068815402216268501C6060AD
:105160002068815429126268501C60602068815454
:105170006268501C6060206885540020E5E70246A4
:105180005078022801D0012070479078B0EB112FA1
:1051900005D1D078CBB2984201D10020F4E70120AC
:1051A000F2E770B505460C4604212046FFF752F998
:1051B000206808B9012070BD70216268501C6060D1
:1051C0002068815402216268501C6060206881540C
:1051D00029126268501C6060206881546268501C0B
:1051E0006060206885540020E5E701464878022881
:1051F00001D001207047887820B9C8780A2801D1E9
:105200000020F7E70120F5E710B50446022120460B
:10521000FFF720F9206808B9012010BDC02162689D
:10522000501C60602068815400216268501C6060DE
:10523000206881540020F0E7F8480068F749496881
:1052400008447047014609B900207047087B1028C0
:1052500001D10120F9E70020F7E700B5024610462A
:10526000FFF7F0FF08B9002000BD1069FCE7014618
:1052700009B900207047087B082801D10120F9E70F
:105280000020F7E700B502461046FFF7F0FF10B91F
:105290000020E34900BDD2E90601FBE708B50F2075
:1052A00007230122DFA10090E14802F06DFCE048F5
:1052B00008BD70B504460D4604B10DB9012070BD9E
:1052C000AC4201D10020FAE705E0207808B90020BF
:1052D000F5E7641C6D1C207802F02EFC0646287849
:1052E00002F02AFC8642F0D0207802F025FC064627
:1052F000287802F021FC301AE1E72DE9F04104465C
:105300000D460026002714B90020BDE8F081204694
:1053100002F067FE461C30462968884707460FB9E9
:105320000020F2E732462146384602F0D0FE3846E9
:10533000EBE738B9BF49C04A1160C0495160C04964
:1053400091607047BB49BC4A1160016809B10168AE
:105350001160BA49B84A5160416809B14168516069
:105360000021B54A916011460968B24A914207D1BD
:10537000B1494968B14A914202D1B149AE4A9160FE
:1053800000BFDEE770B5044628202168884705463F
:105390001DB12821284602F033FF284670BD70B5A4
:1053A0000446002522E02568A08900F4807020B919
:1053B000A06810B1A068FFF7F2FFA08900F4807028
:1053C00028B9206918B19C4A206951688847A0898A
:1053D00000F4007028B9206A18B1974A206A516811
:1053E000884795484168204688472C46002CDAD1EA
:1053F00070BD2E2070472DE9F04391B080460C46D9
:1054000000BF00201090FFF7F4FF814600250CB18B
:10541000206818B9002011B0BDE8F08300253CE0F9
:10542000A16820680844405D342820D00ADCA0F13F
:105430002B0009282ED2DFE800F0202D212A2D167E
:1054400017181900382816D006DC352810D0362851
:105450000FD037281ED10DE039280DD045280FD0A8
:10546000652817D10BE000BF00BF00BF00BF00BF21
:1054700000BF00BF00BF00BF00BF00BF00BF00BF34
:10548000A16820680844405D0DF8050003E00DF8B0
:10549000059000E00AE000BF6D1C3F2D05D224B14D
:1054A000A068284461688842BAD300BF00200DF884
:1054B000050010A9684605F0BFF906460F46684684
:1054C0001099884201D10020A5E7C8E906675D4A26
:1054D0005D4B3046394605F093FC04D86FF0004030
:1054E000C8F8140011E00022584B3046394605F048
:1054F0004DFB04D84FF00040C8F8140005E03046DA
:10550000394605F0FDFAC8F814000820C8F80C0068
:10551000A0686A461099891A0844A06001207AE7B9
:1055200070B5064614461D46464A474B2046294656
:1055300005F066FC03D86FF0004070610FE00022B8
:10554000424B2046294605F021FB03D84FF000408E
:10555000706104E02046294605F0D2FA70612046C9
:105560002946C6E9064570BD10B504463248416873
:105570002046884710BD2DE9F04104460E4600251F
:10558000207B00F0100018B1A08900F4807010B1E9
:105590000020BDE8F081304602F023FD0746206977
:1055A00002F01FFD874205D83146206902F0F5FC64
:1055B0002069EEE720493046FFF79FFE05460DB90A
:1055C0000020E6E7206910B12069FFF7CDFF2561D3
:1055D0002846DEE72DE9F04104460D460026002767
:1055E0000CB1206810B90020BDE8F081606828B1D6
:1055F000D4E90110884201D30020F5E7B5F1004F4E
:1056000001D30020F0E7A068401C05446068A84270
:105610001ED3A16820680844E6E70000400000208F
:105620000000F87F25692E25692E256900000000FD
:1056300099010020D579000848000020337A00083D
:10564000817A00080000C0FFFFFFDF410000E0C1D9
:10565000206908B10020C7E7B5F1804F07D3B5F145
:10566000004F02D26FF0004702E00020BCE76F005D
:10567000206A60B13946226A206890470646DEB942
:10568000E16920688847002060602060ACE7384608
:10569000A1698847064636B9E16920688847002035
:1056A00060602060A0E7A068421C3046216802F0DC
:1056B0000EFDE1692068884767602660A068304475
:1056C00092E770B5044600250CB1206800B970BDA2
:1056D000A16820684518284602F083FCA1680844A8
:1056E000A06000BFF3E72DE9FC5F04460D461646B7
:1056F0001F4627F00043B24625F000405246CDE950
:1057000000402046019905F07BFB03D225F00041C3
:10571000204602E027F000413046804689460022BC
:10572000F84B4046494605F06DFA82468B463246B4
:105730003B462046294605F099FB21F000415246A0
:105740005B46CDE9000105F021FA02D80120BDE851
:10575000FC9F0020FBE72DE9F04F8BB081460F4600
:105760004FF0000AD9E90645D04600261C2104A8BE
:1057700002F046FDFFF73DFE8346002002900390B5
:1057800017B90BB0BDE8F08FCDE90045DDE9002188
:105790000AB1012200E0002241EA020020F00041AB
:1057A000D94A511AC90F61B9CDE900455100019894
:1057B000B1EB400F03D1009808B9012000E00020B0
:1057C00028B1D2A104A802F0DFF980462EE0D9F872
:1057D000140005F0C4F922462B46CDE9000105F07E
:1057E00053F907D1CBA104A8D9F8142002F0CCF9C1
:1057F00080461BE022462B46C7A104A802F0C4F94C
:10580000804602AAC6A104A802F06EFB012806D1B8
:1058100022462B46DDE90201FFF765FF30B922463B
:105820002B46C0A104A802F0AFF98046B8F1000FE2
:1058300002DBB8F1190F01DD0020A2E708F1010138
:105840003846FFF7C7FE8246BAF1000F01D10020AB
:1058500097E700260DE004A8805D584503D12E206F
:105860000AF8060004E004A8805D0AF8060000BFFC
:10587000761C4645EFD300200AF80600B86840447D
:10588000B86001207DE702460023002100BF23E02D
:10589000505C302806DB505C392803DC505C303823
:1058A000034415E0505C412806DB505C462803DCCD
:1058B000505C373803440BE0505C612806DB505CD9
:1058C000662803DC505C5738034401E00020704731
:1058D000032900D21B01491C0429D9D31846F6E735
:1058E0002DE9FF5F80468946154600240026C24602
:1058F00000200390834602900190A9EB0A0006283D
:1059000000DA81E00AF10200FFF7BDFF0646B6F5B6
:105910005C4F03D3B6F5604F00D275E0B6F5584F33
:1059200029D3B6F55C4F26D20AF106070020009075
:105930000C200290A9EB0700062800DA64E0387812
:105940005C2802D17878752800D05DE0B81CFFF79C
:105950009AFF00900098B0F55C4F03D30098B0F523
:10596000604F00D350E0C6F30901009861F39F2017
:1059700000F5803402E0062002903446802C02D2EA
:105980000120039018E0B4F5006F04D202200390C8
:10599000C020019010E0B4F5803F04D203200390B2
:1059A000E020019008E0B4F5881F04D204200390A1
:1059B000F020019000E027E00398401E00F0FF0B6C
:1059C0000BE004F0BF0040F08000296801F80B00F4
:1059D000A409ABF1010000F0FF0BBBF1000FF0DCFC
:1059E0000398012804DD019820432968087003E02A
:1059F00004F07F002968087029680398084428602B
:105A0000029804B0BDE8F09F0020FAE72DE9F84FB6
:105A100080460C46A16820680844461CA16820689E
:105A20000844451C002000900027A1682068405CC5
:105A3000222800D0BAE04FF0000AD1460DE02878C5
:105A40005C2809D1681C2168401A6168884200D32B
:105A5000ACE009F101096D1C6D1C2068281A616811
:105A6000884202D228782228E9D12068281A616861
:105A7000884202D22878222800D097E0A1682068C6
:105A80000844281AA0EB090A0AF101002169884795
:105A9000074607B98AE0009775E030785C2807D0A0
:105AA00016F8010B009908700098401C00906AE0FD
:105AB0004FF00209A81B012800DA77E07078662809
:105AC00019D008DC222846D02F2846D05C2843D0A5
:105AD000622854D108E06E2828D072282DD074286E
